:020000040800F2
:1000000000C000202D570008C1560008C556000842
:10001000C9560008CD560008D1560008000000005F
:10002000000000000000000000000000D55600089D
:10003000D956000800000000DD560008E15600080F
:100040007557000875570008755700087557000860
:100050007557000875570008755700087557000850
:10006000755700087557000875570008314F00088C
:1000700075570008755700080D5700081D570008F0
:100080007557000875570008755700087557000820
:100090007557000875570008755700087557000810
:1000A0007557000875570008755700087557000800
:1000B000755700087557000875570008ED56000879
:1000C000FD56000875570008755700087557000859
:1000D00075570008755700087557000875570008D0
:1000E00075570008755700087557000875570008C0
:1000F00075570008755700087557000875570008B0
:10010000755700087557000875570008755700089F
:10011000755700087557000875570008755700088F
:10012000755700087557000875570008755700087F
:1001300000000000000000000000000000000000BF
:1001400000000000000000000000000000000000AF
:10015000000000000000000000000000000000009F
:10016000000000000000000000000000000000008F
:10017000000000000000000000000000000000007F
:10018000000000000000000000000000000000006F
:10019000000000000000000000000000000000005F
:1001A000000000000000000000000000000000004F
:1001B000000000000000000000000000000000003F
:1001C000000000000000000000000000000000002F
:1001D000000000000000000000000000000000001F
:0401E0005FF8E0F1F3
:1001E800044B05481B1A062B02D9044B03B11847C8
:1001F800704700BF8B00002088000020000000002E
:1002080005490648091A891001EBD171491002D035
:10021800034B03B11847704788000020880000206E
:100228000000000010B5064C237843B9FFF7D8FF4B
:10023800044B13B10448AFF300800123237010BDB1
:1002480088000020000000002860000808B5084B5E
:100258001BB108480849AFF300800848036813B980
:10026800BDE80840CCE7064B002BF9D09847F7E7E4
:1002780000000000286000088C0000208800002092
:100288000000000081F0004102E000BF83F000435D
:1002980030B54FEA41044FEA430594EA050F08BF19
:1002A80090EA020F1FBF54EA000C55EA020C7FEADD
:1002B800645C7FEA655C00F0E2804FEA5454D4EB5A
:1002C8005555B8BF6D420CDD2C4480EA020281EA24
:1002D800030382EA000083EA010180EA020281EA5C
:1002E8000303362D88BF30BD11F0004F4FEA0131AE
:1002F8004FF4801C4CEA113102D0404261EB4101BD
:1003080013F0004F4FEA03334CEA133302D0524242
:1003180063EB430394EA050F00F0A780A4F10104FE
:10032800D5F1200E0DDB02FA0EFC22FA05F2801838
:1003380041F1000103FA0EF2801843FA05F359411E
:100348000EE0A5F120050EF1200E012A03FA0EFC9D
:1003580028BF4CF0020C43FA05F3C01851EBE371C7
:1003680001F0004507D54FF0000EDCF1000C7EEBE4
:1003780000006EEB0101B1F5801F1BD3B1F5001F22
:100388000CD349085FEA30004FEA3C0C04F1010441
:100398004FEA445212F5800F80F09A80BCF1004F6A
:1003A80008BF5FEA500C50F1000041EB045141EAEC
:1003B800050130BD5FEA4C0C404141EB010111F4ED
:1003C800801FA4F10104E9D191F0000F04BF014698
:1003D8000020B1FA81F308BF2033A3F10B03B3F176
:1003E80020020CDA0C3208DD02F1140CC2F10C0206
:1003F80001FA0CF021FA02F10CE002F11402D8BF64
:10040800C2F1200C01FA02F120FA0CFCDCBF41EA2F
:100418000C019040E41AA2BF01EB0451294330BDFE
:100428006FEA04041F3C1CDA0C340EDC04F11404DB
:10043800C4F1200220FA04F001FA02F340EA0300B2
:1004480021FA04F345EA030130BDC4F10C04C4F1F8
:10045800200220FA02F001FA04F340EA03002946D8
:1004680030BD21FA04F0294630BD94F0000F83F422
:10047800801306BF81F480110134013D4EE77FEA05
:10048800645C18BF7FEA655C29D094EA050F08BF51
:1004980090EA020F05D054EA000C04BF1946104632
:1004A80030BD91EA030F1EBF0021002030BD5FEA76
:1004B800545C05D14000494128BF41F0004130BD9E
:1004C80014F580043CBF01F5801130BD01F00045F2
:1004D80045F0FE4141F470014FF0000030BD7FEA65
:1004E800645C1ABF194610467FEA655C1CBF0B4660
:1004F800024650EA013406BF52EA033591EA030F77
:1005080041F4002130BD00BF90F0000F04BF00216E
:10051800704730B54FF4806404F132044FF00005A1
:100528004FF0000150E700BF90F0000F04BF00211A
:10053800704730B54FF4806404F1320410F0004580
:1005480048BF40424FF000013EE700BF42004FEA7B
:10055800E2014FEA31014FEA02701FBF12F07F43F8
:1005680093F07F4F81F06051704792F0000F14BFF5
:1005780093F07F4F704730B54FF4607401F0004539
:1005880021F0004120E700BF50EA010208BF704790
:1005980030B54FF000050AE050EA010208BF704785
:1005A80030B511F0004502D5404261EB41014FF4EE
:1005B800806404F132045FEA915C3FF4DCAE4FF0F2
:1005C80003025FEADC0C18BF03325FEADC0C18BFD9
:1005D800033202EBDC02C2F1200300FA03FC20FA2A
:1005E80002F001FA03FE40EA0E0021FA02F1144477
:1005F800C1E600BF70B54FF0FF0C4CF4E06C1CEA8C
:1006080011541DBF1CEA135594EA0C0F95EA0C0F00
:1006180000F0DEF82C4481EA030621EA4C5123EA73
:100628004C5350EA013518BF52EA033541F48011A2
:1006380043F4801338D0A0FB02CE4FF00005E1FB55
:1006480002E506F00042E0FB03E54FF00006E1FB9F
:1006580003569CF0000F18BF4EF0010EA4F1FF04E2
:10066800B6F5007F64F5407404D25FEA4E0E6D4122
:1006780046EB060642EAC62141EA55514FEAC52033
:1006880040EA5E504FEACE2EB4F1FD0C88BFBCF5AF
:10069800E06F1ED8BEF1004F08BF5FEA500E50F160
:1006A800000041EB045170BD06F0004646EA010126
:1006B80040EA020081EA0301B4EB5C04C2BFD4EB58
:1006C8000C0541EA045170BD41F480114FF0000E51
:1006D800013C00F3AB8014F1360FDEBF002001F0BF
:1006E800004170BDC4F10004203C35DA0C341BDC39
:1006F80004F11404C4F1200500FA05F320FA04F00B
:1007080001FA05F240EA020001F0004221F000413E
:1007180010EBD37021FA04F642EB06015EEA430EB1
:1007280008BF20EAD37070BDC4F10C04C4F12005E1
:1007380000FA04F320FA05F001FA04F240EA020094
:1007480001F0004110EBD37041F100015EEA430E65
:1007580008BF20EAD37070BDC4F1200500FA05F285
:100768004EEA020E20FA04F301FA05F243EA020304
:1007780021FA04F001F0004121FA04F220EA020013
:1007880000EBD3705EEA430E08BF20EAD37070BD59
:1007980094F0000F0FD101F00046400041EB010139
:1007A80011F4801F08BF013CF7D041EA060195F01B
:1007B800000F18BF704703F00046520043EB0303D5
:1007C80013F4801F08BF013DF7D043EA06037047C2
:1007D80094EA0C0F0CEA135518BF95EA0C0F0CD0CD
:1007E80050EA410618BF52EA4306D1D181EA030113
:1007F80001F000414FF0000070BD50EA410606BF0D
:100808001046194652EA430619D094EA0C0F02D151
:1008180050EA013613D195EA0C0F05D152EA033696
:100828001CBF104619460AD181EA030101F00041B4
:1008380041F0FE4141F470014FF0000070BD41F0FD
:10084800FE4141F4780170BD70B54FF0FF0C4CF4D7
:10085800E06C1CEA11541DBF1CEA135594EA0C0FF6
:1008680095EA0C0F00F0A7F8A4EB050481EA030E43
:1008780052EA03354FEA013100F088804FEA03332A
:100888004FF0805545EA131343EA12634FEA0222F8
:1008980045EA111545EA10654FEA00260EF00041B9
:1008A8009D4208BF964244F1FD0404F5407402D20B
:1008B8005B084FEA3202B61A65EB03055B084FEA9C
:1008C80032024FF480104FF4002CB6EB020E75EB99
:1008D800030E22BFB61A754640EA0C005B084FEAC1
:1008E8003202B6EB020E75EB030E22BFB61A75463E
:1008F80040EA5C005B084FEA3202B6EB020E75EB89
:10090800030E22BFB61A754640EA9C005B084FEA00
:100918003202B6EB020E75EB030E22BFB61A75460D
:1009280040EADC0055EA060E18D04FEA051545EAFC
:1009380016754FEA06164FEAC30343EA52734FEAA5
:10094800C2025FEA1C1CC0D111F4801F0BD141EA1E
:1009580000014FF000004FF0004CB6E711F4801F83
:1009680004BF01430020B4F1FD0C88BFBCF5E06F63
:100978003FF6AFAEB5EB030C04BFB6EB020C5FEA73
:10098800500C50F1000041EB045170BD0EF0004EC8
:100998004EEA113114EB5C04C2BFD4EB0C0541EAFA
:1009A800045170BD41F480114FF0000E013C90E6F7
:1009B80045EA060E8DE60CEA135594EA0C0F08BFBB
:1009C80095EA0C0F3FF43BAF94EA0C0F0AD150EABA
:1009D80001347FF434AF95EA0C0F7FF425AF10464D
:1009E80019462CE795EA0C0F06D152EA03353FF475
:1009F800FDAE1046194622E750EA410618BF52EAF2
:100A080043067FF4C5AE50EA41047FF40DAF52EAC5
:100A180043057FF4EBAE12E74FF0FF3C06E000BF62
:100A28004FF0010C02E000BF4FF0010C4DF804CD6F
:100A38004FEA410C7FEA6C5C4FEA430C18BF7FEA2F
:100A48006C5C1BD001B050EA410C0CBF52EA430C5D
:100A580091EA030F02BF90EA020F0020704710F1DD
:100A6800000F91EA030F58BF994208BF90422CBF6C
:100A7800D8176FEAE37040F0010070474FEA410C65
:100A88007FEA6C5C02D150EA013C07D14FEA430C83
:100A98007FEA6C5CD6D152EA033CD3D05DF8040BF4
:100AA800704700BF8446104662468C461946634626
:100AB80000E000BF01B5FFF7B7FF002848BF10F1FD
:100AC800000F01BD4DF808EDFFF7F4FF0CBF012042
:100AD80000205DF808FB00BF4DF808EDFFF7EAFFBE
:100AE80034BF012000205DF808FB00BF4DF808ED79
:100AF800FFF7E0FF94BF012000205DF808FB00BF6E
:100B08004DF808EDFFF7CEFF94BF012000205DF8F7
:100B180008FB00BF4DF808EDFFF7C4FF34BF012004
:100B280000205DF808FB00BF4FEA410212F50012F1
:100B380015D211D56FF47873B3EB625212D94FEA1C
:100B4800C12343F0004343EA505311F0004F23FA06
:100B580002F018BF404270474FF00000704750EA5B
:100B6800013005D111F0004008BF6FF00040704718
:100B78004FF00000704700BF4FEA4102B2F1E04376
:100B880024BFB3F5001CDCF1FE5C0DD901F0004C6C
:100B98004FEAC0024CEA5070B2F1004F40EB8300BC
:100BA80008BF20F00100704711F0804F21D113F1E8
:100BB8003872BCBF01F00040704741F480114FEA21
:100BC8005252C2F11802C2F1200C10FA0CF320FAAA
:100BD80002F018BF40F001004FEAC1234FEAD323C7
:100BE80003FA0CFC40EA0C0023FA02F34FEA430331
:100BF800CCE77FEA625307D150EA01331EBF4FF0BA
:100C0800FE4040F44000704701F0004040F0FE40D4
:100C180040F40000704700BF80F0004002E000BFD1
:100C280081F0004142001FBF5FEA410392EA030FCF
:100C38007FEA226C7FEA236C6AD04FEA1262D2EB19
:100C48001363C1BFD218414048404140B8BF5B421E
:100C5800192B88BF704710F0004F40F4000020F0B7
:100C68007F4018BF404211F0004F41F4000121F0CD
:100C78007F4118BF494292EA030F3FD0A2F1010217
:100C880041FA03FC10EB0C00C3F1200301FA03F155
:100C980000F0004302D5494260EB4000B0F5000F78
:100CA80013D3B0F1807F06D340084FEA310102F137
:100CB8000102FE2A51D2B1F1004F40EBC25008BFE9
:100CC80020F0010040EA03007047490040EB0000B3
:100CD80010F4000FA2F10102EDD1B0FA80FCACF1E2
:100CE800080CB2EB0C0200FA0CF0AABF00EBC250E1
:100CF80052421843BCBFD0401843704792F0000FCF
:100D080081F4000106BF80F400000132013BB5E721
:100D18004FEA41037FEA226C18BF7FEA236C21D097
:100D280092EA030F04D092F0000F08BF08467047FC
:100D380090EA010F1CBF0020704712F07F4F04D1CA
:100D4800400028BF40F00040704712F100723CBFDD
:100D580000F50000704700F0004343F0FE4040F407
:100D6800000070477FEA226216BF08467FEA2363C5
:100D78000146420206BF5FEA412390EA010F40F4B0
:100D8800800070474FF0000304E000BF10F00043FC
:100D980048BF40425FEA000C08BF704743F09643E3
:100DA80001464FF000001CE050EA010208BF7047FE
:100DB8004FF000030AE000BF50EA010208BF704785
:100DC80011F0004302D5404261EB41015FEA010C9A
:100DD80002BF84460146002043F0B64308BFA3F192
:100DE8008053A3F50003BCFA8CF2083AA3EBC25374
:100DF80010DB01FA02FC634400FA02FCC2F1200293
:100E0800BCF1004F20FA02F243EB020008BF20F0C9
:100E18000100704702F1200201FA02FCC2F120022F
:100E280050EA4C0021FA02F243EB020008BF20EA24
:100E3800DC7070474FF0FF3C06E000BF4FF0010C3C
:100E480002E000BF4FF0010C4DF804CD4FEA40021C
:100E58004FEA41037FEA226C18BF7FEA236C11D066
:100E680001B052EA530C18BF90EA010F58BFB2EB19
:100E7800030088BFC81738BF6FEAE17018BF40F099
:100E8800010070477FEA226C02D15FEA402C05D14D
:100E98007FEA236CE4D15FEA412CE1D05DF8040BD2
:100EA800704700BF844608466146FFE70FB5FFF765
:100EB800C9FF002848BF10F1000F0FBD4DF808ED1D
:100EC800FFF7F4FF0CBF012000205DF808FB00BF0E
:100ED8004DF808EDFFF7EAFF34BF012000205DF868
:100EE80008FB00BF4DF808EDFFF7E0FF94BF0120B5
:100EF80000205DF808FB00BF4DF808EDFFF7D2FFB2
:100F080094BF012000205DF808FB00BF4DF808EDF4
:100F1800FFF7C8FF34BF012000205DF808FB00BFC1
:100F280082B0084B1B68084AA2FB03235B0A00FB3C
:100F380003F0019000BF019B5A1E0192002BF9D1CA
:100F480002B0704700000020D34D621070B582B027
:100F58000446036813F0010F6BD0A84B5B6803F0DD
:100F68000C03042B0AD0A54B5B6803F00C03082B79
:100F78000DD1A24B5B6813F4803F08D09F4B1B68D0
:100F880013F4003F55D06368002B52D1B8E1636871
:100F9800B3F5803F05D1994A136843F48033136051
:100FA80026E063B903F1804303F504331A6822F499
:100FB80080321A601A6822F480221A6018E0B3F5A9
:100FC800A02F0CD103F18043A3F53C331A6842F4F7
:100FD80080221A601A6842F480321A6008E0874B4F
:100FE8001A6822F480321A601A6822F480221A6081
:100FF80063687BB101F01CF8054605E001F018F8BC
:10100800401B642800F27E817C4B1B6813F4003F70
:10101800F4D00EE001F00CF8054605E001F008F800
:10102800401B642800F27081744B1B6813F4003F66
:10103800F4D1236813F0020F50D0704B5B6813F0A3
:101048000C0F0AD06D4B5B6803F00C03082B16D10C
:101058006A4B5B6813F4803F11D1684B1B6813F02F
:10106800020F03D02369012B40F05081634A1368B3
:1010780023F0F803616943EAC10313602EE0236992
:10108800D3B101225E4B1A6000F0D2FF054605E09D
:1010980000F0CEFF401B022800F23A81574B1B6834
:1010A80013F0020FF4D0554A136823F0F80361696E
:1010B80043EAC103136011E00022514B1A6000F0AB
:1010C800B7FF054605E000F0B3FF401B022800F219
:1010D80021814A4B1B6813F0020FF4D1236813F0E7
:1010E800080F29D0A369ABB10122464B1A6000F062
:1010F8009FFF054605E000F09BFF401B022800F219
:101108000B813E4B5B6A13F0020FF4D00120FFF70E
:1011180007FF11E000223B4B1A6000F089FF0546EB
:1011280005E000F085FF401B022800F2F780334BF2
:101138005B6A13F0020FF4D1236813F0040F00F078
:1011480089802E4BDB6913F0805F0BD12B4BDA695A
:1011580042F08052DA61DB6903F080530193019B0E
:10116800012500E00025284B1B6813F4807F13D16C
:10117800254A136843F48073136000F059FF06464C
:1011880005E000F055FF801B642800F2C9801E4B63
:101198001B6813F4807FF4D0E368012B05D1174A4C
:1011A800136A43F00103136222E063B903F1804339
:1011B80003F504331A6A22F001021A621A6A22F04D
:1011C80004021A6214E0052B09D10C4B1A6A42F08A
:1011D80004021A621A6A42F001021A6208E0074B16
:1011E8001A6A22F001021A621A6A22F004021A62CA
:1011F800E368CBB100F01CFF06460FE00010024088
:1012080000004242800442420070004000F010FF9B
:10121800801B41F28833984200F28480494B1B6A54
:1012280013F0020FF2D00FE000F002FF064606E0CE
:1012380000F0FEFE801B41F28833984274D8414B7F
:101248001B6A13F0020FF3D125B13E4AD36923F08C
:101258008053D361E369002B68D03A4A526802F0A0
:101268000C02082A64D0022B37D10022364B1A60B0
:1012780000F0DEFE054604E000F0DAFE401B02281E
:1012880058D8304B1B6813F0007FF5D1236AB3F5AB
:10129800803F06D12B494B6823F40032A3681343DF
:1012A8004B602848436823F47411236A626A134325
:1012B8000B4343600122244B1A6000F0B9FE044638
:1012C80004E000F0B5FE001B022835D81D4B1B6852
:1012D80013F0007FF5D0002031E000221A4B1A608D
:1012E80000F0A6FE044604E000F0A2FE001B02285F
:1012F80024D8144B1B6813F0007FF5D100201EE0A2
:1013080001201CE003201AE0032018E0012016E069
:10131800032014E0032012E0032010E003200EE075
:1013280003200CE003200AE0032008E0002006E088
:10133800012004E0032002E0032000E0032002B0C3
:1013480070BD00BF001002406000424230B486B059
:10135800164D02AC28686968AA68EB680FC42B8A26
:10136800ADF80430124B5A6802F00C03082B19D15F
:10137800C2F3834306A90B4413F8103C12F4803FD0
:101388000CD00B4A5268C2F340420A4412F8140CBB
:10139800084AB2FBF0F003FB00F004E0064800FB4B
:1013A80003F000E0034806B030BC70474060000816
:1013B8000010024000127A0000093D0070B55C4B35
:1013C8001B6803F007038B420BD2594A136823F0BA
:1013D80007030B431360136803F007038B4240F0C5
:1013E8009780036813F0020F06D0524C636823F00D
:1013F800F0028368134363600D460446036813F0E4
:10140800010F4DD04268012A05D14A4B1B6813F4DD
:10141800003F0DD17EE0022A05D1464B1B6813F030
:10142800007F05D178E0434B1B6813F0020F75D09D
:1014380040494B6823F0030313434B6000F0F8FD69
:1014480006466368012B0ED106E000F0F1FD801B13
:1014580041F28833984263D8364B5B6803F00C033B
:10146800042BF2D11CE0022B15D106E000F0E0FDC0
:10147800801B41F28833984254D82E4B5B6803F0A6
:101488000C03082BF2D10BE000F0D2FD801B41F2D7
:101498008833984248D8274B5B6813F00C0FF3D178
:1014A800234B1B6803F00703AB420AD9204A136891
:1014B80023F007032B431360136803F00703AB42C1
:1014C80034D1236813F0040F06D01A494B6823F46B
:1014D800E062E36813434B60236813F0080F07D0FA
:1014E800144A536823F46053216943EAC1035360E3
:1014F800FFF72CFF0F4B5B68C3F303130E4AD35C53
:10150800D8400E4B1860002000F062FD002070BD2E
:10151800012070BD012070BD012070BD012070BD8B
:10152800032070BD032070BD032070BD012070BD75
:101538000020024000100240546000080000002013
:10154800014B1868704700BF0000002008B5FFF77E
:10155800F7FF044B5B68C3F30223034AD35CD8400C
:1015680008BD00BF001002406460000808B5FFF71E
:10157800E7FF044B5B68C3F3C223034AD35CD8403C
:1015880008BD00BF001002406460000830B4036A60
:1015980023F001030362036A4468826922F073023C
:1015A8000D682A4323F002038D682B43104DA8428F
:1015B80003D005F50065A84205D123F00803CD68DE
:1015C8002B4323F004030A4DA84203D005F5006518
:1015D800A84205D124F440744D692C438D692C43ED
:1015E800446082614A684263036230BC704700BF4E
:1015F800002C014030B4036A23F480730362036A49
:101608004468C26922F073020D682A4323F4007308
:101618008D6843EA0523124DA84203D005F50065FD
:10162800A84206D123F40063CD6843EA052323F4D6
:1016380080630B4DA84203D005F50065A84207D189
:1016480024F440544D6944EA05148D6944EA0514AC
:101658004460C2614A68C263036230BC704700BF1D
:10166800002C014030B4036A23F480530362036AF8
:101678004468C26922F4E6420D6842EA052223F46E
:1016880000538D6843EA0533094DA84203D005F598
:101698000065A84204D124F480444D6944EA8514C5
:1016A8004460C2614A680264036230BC704700BF8C
:1016B800002C014010B4036A046A24F00104046297
:1016C800846924F0F00444EA021223F00A0319435F
:1016D800826101625DF8044B704700BF10B4036A71
:1016E80023F0100303628469036A24F4704444EA13
:1016F800023223F0A00343EA0111826101625DF81E
:10170800044B704710B4846824F47F4442EA0323EE
:1017180019430C4384605DF8044B704710B50C46C0
:101728000268936823F0700349680B4323F00703AA
:1017380021680B4393606368502B1FD002D8402B5D
:101748000BD010BD602B1FD0702B22D10068E16830
:10175800A2682369FFF7D6FF10BD0368196A1A6AE1
:1017680022F001021A620268936923F0F0032469E7
:1017780043EA041393610368196210BD0068A16805
:101788002269FFF797FF10BD0068A1682269FFF77B
:10179800A5FF10BD704700BF38B590F83C30012B4D
:1017A80018D00446012580F83C50022380F83D30CB
:1017B800FFF7B4FF2268D36823F04003D3602268A0
:1017C800D36823F48043D36084F83D50002084F824
:1017D8003C0038BD022038BD0368244A904212D02C
:1017E80002F5006290420ED0B0F1804F0BD0A2F506
:1017F8009832904207D002F58062904203D002F5F9
:101808008062904203D123F070034A681343174A59
:10181800904212D002F5006290420ED0B0F1804F93
:101828000BD0A2F59832904207D002F58062904220
:1018380003D002F58062904203D123F44073CA6852
:10184800134323F080034A69134303608B68C36220
:101858000B688362054B984203D003F500639842F6
:1018680001D10B690363012343617047002C0140D8
:10187800C0B110B5044690F83D3013F0FF0F04D105
:10188800002380F83C30FFF785FF022384F83D30C1
:10189800214651F8040BFFF79FFF012384F83D30E0
:1018A800002010BD0120704730B4036A23F01003F4
:1018B8000362036A4468826922F4E6420D6842EAD8
:1018C800052223F020038D6843EA0513114DA84231
:1018D80003D005F50065A84206D123F08003CD6842
:1018E80043EA051323F040030A4DA84203D005F547
:1018F8000065A84207D124F440644D6944EA850490
:101908008D6944EA8504446082614A68826303629F
:1019180030BC7047002C014038B590F83C30012BA2
:1019280066D00D460446012380F83C30022380F837
:101938003D300C2A55D8DFE802F0075454541A54A5
:1019480054542E54545441000068FFF71FFE226877
:10195800936943F0080393612268936923F00403B1
:101968009361226891692B690B43936139E00068A0
:10197800FFF79AFF2268936943F400639361226832
:10198800936923F48063936122689369296943EA20
:101998000123936125E00068FFF72CFE2268D369D4
:1019A80043F00803D3612268D36923F00403D361A9
:1019B8002268D1692B690B43D36112E00068FFF7F5
:1019C80051FE2268D36943F40063D3612268D36966
:1019D80023F48063D3612268D369296943EA012328
:1019E800D361012384F83D30002084F83C0038BDE1
:1019F800022038BD10B401238B40046A24EA030393
:101A08000362036A8A401A4302625DF8044B704716
:101A180010B5044600680122FFF7ECFF23680C4A62
:101A2800934205D002F50062934203D1012202E0FD
:101A3800012200E000221AB15A6C42F400425A64B2
:101A48002268136843F001031360002010BD00BF33
:101A5800002C014010B404238B40046A24EA0303D9
:101A68000362036A8A401A4302625DF8044B7047B6
:101A780010B5044600680422FFF7ECFF2268536C97
:101A880043F4004353642268136843F0010313606E
:101A9800002010BD90F83C30012B22D0012380F8A3
:101AA8003C30CB6823F440728B68134323F4806284
:101AB8004B68134323F400620B68134323F48052EA
:101AC8000B69134323F400524B6913438A6923F4C7
:101AD8004043134302685364002380F83C3018469F
:101AE80070470220704700BF90F83C30012B21D08E
:101AF80030B4012280F83C20022380F83D3004688D
:101B0800636823F070036360046865680B682B439F
:101B180063600468A36823F08003A3600468A56871
:101B28004B682B43A36080F83D20002380F83C30AD
:101B3800184601E00220704730BC704790F8243006
:101B4800012B27D0012380F8243003689A6812F00B
:101B5800010F10D1124A926812F0010F0BD1114AED
:101B6800934208D110B45A6822F470240A682243B8
:101B78005A60002309E0836A43F02003836201234B
:101B8800002280F8242018467047002280F824207C
:101B9800184601E0022070475DF8044B704700BF0B
:101BA800002801400024014000F00700064AD368DD
:101BB80023F4E0631B041B0C43EA002040F0BF60E1
:101BC80040F40030D060704700ED00E030B4164BB0
:101BD800DC68C4F30224C4F10705042D28BF0425DA
:101BE800231D062B01D9033C00E00024012303FA3E
:101BF80005F5013D2940A140A340013B1A400A4395
:101C0800002806DA00F00F001201D2B2074B1A546E
:101C180007E01201D2B200F1604000F5614080F89F
:101C2800002330BC704700BF00ED00E014ED00E079
:101C3800410900F01F0001238340024A42F8213085
:101C4800704700BF00E100E00138B0F1807F0AD2A0
:101C5800064B5860F021064A82F82310002098604D
:101C680007221A6070470120704700BF10E000E0AB
:101C780000ED00E0042805D1054A136843F0040389
:101C880013607047024A136823F004031360704717
:101C980010E000E0704700BF08B5FFF7FBFF08BD84
:101CA800F0B583B000273C46E2E00122A2400B6871
:101CB8001340934240F0DB804D68122D2DD00BD895
:101CC800022D27D003D85DB3012D1ED035E0032D9A
:101CD80030D0112D1BD030E0684EB54220D008D846
:101CE800A6F58016B5421BD006F58036B54224D13C
:101CF80016E0634EB54213D006F58036B5420FD0D4
:101D0800A6F58016B54218D10AE0CF6815E0CF686D
:101D1800043712E0CF6808370FE0CF680C370CE0C3
:101D28008D684DB1012D02D10261082705E042619D
:101D3800082702E0002700E00427FF2B01D884468B
:101D480001E000F1040CFF2B02D84FEA840E03E0F7
:101D5800A4F1080E4FEA8E0EDCF800600F2202FA9A
:101D68000EF226EA020507FA0EF22A43CCF8002002
:101D78004A6812F0805F7AD0424A956945F00105B9
:101D88009561926902F001020192019AA208961CDB
:101D98003D4D55F8266004F0030E4FEA8E0E0F25D0
:101DA80005FA0EF526EA0506384DA8421FD005F5B6
:101DB8008065A84219D005F58065A84213D005F5BD
:101DC8008065A8420DD005F58065A84207D005F5C5
:101DD8008065A84201D105250AE0062508E004250A
:101DE80006E0032504E0022502E0012500E00025C5
:101DF80005FA0EF535430232234E46F822504A685A
:101E080012F4803F04D0224D2A681A432A6004E065
:101E18001F4D2A6822EA03022A604A6812F4003F2A
:101E280004D01B4D6A681A436A6004E0184D6A685A
:101E380022EA03026A604A6812F4801F04D0144D33
:101E4800AA681A43AA6004E0114DAA6822EA0302AC
:101E5800AA604A6812F4001F04D00D4DEA681343C3
:101E6800EB6004E00A4DEA6822EA0303EB60013400
:101E78000F2C7FF61AAF03B0F0BD00BF0000211091
:101E8800000031100010024000000140000801402D
:101E98000004014083680B4201D0012070470020F4
:101EA800704700BF0AB101617047090401617047BA
:101EB800C3685940C160704770B582B00446036872
:101EC80013F0010F5CD03E4BDB6913F0805F0BD140
:101ED8003B4BDA6942F08052DA61DB6903F08053E8
:101EE8000193019B012600E00026364B1B6813F482
:101EF800807F12D1334A136843F48073136000F073
:101F080097F8054604E000F093F8401B64284FD882
:101F18002C4B1B6813F4807FF5D0294B1B6A13F4F4
:101F2800407321D0626802F440729A421CD0244A5D
:101F3800136A23F44070244901250D6000250D60C3
:101F4800106213F0010F0FD000F072F8054606E09A
:101F580000F06EF8401B41F2883398422AD8184B9B
:101F68001B6A13F0020FF3D015490B6A23F4407271
:101F7800636813430B621EB1CB6923F08053CB61B6
:101F8800236813F0020F06D00D494B6823F4404232
:101F9800A36813434B60236813F0100F0CD0084953
:101FA8004B6823F48002636913434B60002004E00C
:101FB800032002E0032000E0002002B070BD00BF53
:101FC800001002400070004040044242704700BFC9
:101FD80010B50446074B1B680748A0FB033080096F
:101FE800FFF732FE4FF0FF3021460022FFF7EEFDEB
:101FF800002010BD00000020D34D621008B5074A2C
:10200800136843F0100313600320FFF7CDFD002091
:10201800FFF7DEFFFFF7DAFF002008BD00200240CF
:10202800024A136801331360704700BFE8000020BC
:10203800014B1868704700BFE800002030B583B036
:102048000190FFF7F5FF0546019CB4F1FF3F00D072
:102058000134FFF7EDFF401BA042FAD303B030BDB7
:10206800704700BF70B483B00023019390F8243008
:10207800012B00F08380012380F824304B68062B65
:102088000DD80668756B03EB8303053B1F229A4046
:1020980025EA02040A689A40224372631CE00C2B6A
:1020A8000DD80668356B03EB8303233B1F229A4048
:1020B80025EA02040A689A40224332630CE0066863
:1020C800F56A03EB8303413B1F229A4025EA020489
:1020D8000A689A402243F2620B68092B0DD90668F8
:1020E800F56803EB43031E3B07229A4025EA0204E6
:1020F8008A689A402243F2600BE00668356903EB70
:10210800430307229A4025EA02048A689A40224338
:1021180032610B68103B012B26D80368194A934299
:102128001CD19A6812F4000F20D19A6842F4000278
:102138009A600B68102B1BD1134B1B68134AA2FB28
:1021480003239B0C03EB83035B00019302E0019BD9
:10215800013B0193019B002BF9D10AE0836A43F00C
:1021680020038362012304E0002302E0002300E04F
:102178000023002280F82420184600E0022003B043
:1021880070BC7047002401400000002083DE1B4320
:1021980030B583B00023019303689A6812F0010FE9
:1021A8002FD19A6842F001029A60174B1B68174AB0
:1021B800A2FB03239B0C019302E0019B013B0193CB
:1021C800019B002BF9D10446FFF732FF054611E0C9
:1021D800FFF72EFF401B02280CD9A36A43F0100317
:1021E800A362E36A43F00103E362002384F8243026
:1021F800012007E023689B6813F0010FE8D0002056
:1022080000E0002003B030BD0000002083DE1B4347
:1022180090F82430012B70D010B50446012380F8C3
:102228002430FFF7B5FF0346002861D1A26A22F4E3
:10223800407222F0010242F48072A26222683049A0
:102248008A4205D1A1F58061496811F4702F0ED139
:10225800A16A21F48011A162516811F4806F1CD029
:10226800A16A21F4405141F48051A16215E0A16AAC
:1022780041F48011A16223498A4203D001F58061AB
:102288008A420AD11F49496811F4806F05D0A16AB2
:1022980021F4405141F48051A162A16A11F4805F98
:1022A80004D0E16A21F00601E16201E00021E16267
:1022B800002184F824106FF00201116022689168EF
:1022C80001F46021B1F5602F0DD10D498A4205D185
:1022D800A1F58061496811F4702F04D1916841F427
:1022E800A001916007E0916841F48011916002E0DB
:1022F800002284F82420184610BD0220704700BF31
:10230800002801400024014038B503689A6812F09B
:10231800010F1ED004469A6822F001029A60FFF766
:1023280087FE05460EE0FFF783FE401B022809D909
:10233800A36A43F01003A362E36A43F00103E36274
:10234800012038BD23689B6813F0010FEBD10020F2
:1023580038BD002038BD00BF002800F0888070B567
:102368000446836A23B9C36280F82430FFF778FEF5
:102378002046FFF7C9FFA36A13F0100F71D1002898
:102388006FD1A36A23F4885323F0020343F00203B6
:10239800A36262682168374B994206D1E369B3F5B5
:1023A800402F03D14FF4002300E0E3691343E568AD
:1023B80043EA4503A268B2F5807F04D0012A05D11B
:1023C8004FF4807203E04FF4807200E000226669E7
:1023D800012E0FD135B9A569013D42EA453242F4D3
:1023E800006207E0A56A45F02005A562E56A45F0A8
:1023F8000105E5624D6825F469452A434A6021686C
:102408008D681D4A2A401A438A60A268B2F5807F07
:1024180001D0012A03D12269013A110500E0002107
:102428002568EA6A22F470020A43EA62226891681F
:10243800124A0A40934208D10023E362A36A23F0B8
:10244800030343F00103A36270BDA36A23F01203E0
:1024580043F01003A362E36A43F00103E36201203F
:1024680070BDA36A43F01003A362012070BD012070
:10247800704700BF003C0140FDF7E1FFFE0E1FFF63
:102488002DE9F843814601680B6923F44052C3687B
:1024980013430B6181680369194343691943006851
:1024A800C26822F4B05323F00C030B43C360D9F87D
:1024B80000104B6923F44072D9F8183013434B616C
:1024C800D9F800505B4B9D4259D1FFF74FF800EB0C
:1024D800800000EB8000D9F80440A400B0FBF4F4BD
:1024E800554EA6FB043464092401FFF73FF800EBBE
:1024F800800000EB8000D9F804309B00B0FBF3F7B4
:10250800FFF734F800EB800000EB8000D9F80430C6
:102518009B00B0FBF3F3A6FB03235B094FF06408B1
:1025280008FB13731B013233A6FB03235B0903F07B
:10253800F0031C44FFF71AF800EB800000EB800062
:10254800D9F804309B00B0FBF3F7FFF70FF800EB66
:10255800800000EB8000D9F804309B00B0FBF3F357
:10256800A6FB03235B0908FB13731B013233A6FB8D
:102578000323C3F343131C44AC60BDE8F883FEF7A0
:10258800E5FF00EB800000EB8000D9F80440A400D0
:10259800B0FBF4F4284EA6FB043464092401FEF7CA
:1025A800D5FF00EB800000EB8000D9F804309B00D9
:1025B800B0FBF3F7FEF7CAFF00EB800000EB8000EA
:1025C800D9F804309B00B0FBF3F3A6FB03235B09A7
:1025D8004FF0640808FB13731B013233A6FB032377
:1025E8005B0903F0F0031C44FEF7B0FF00EB80002A
:1025F80000EB8000D9F804309B00B0FBF3F7FEF73E
:10260800A5FF00EB800000EB8000D9F804309B00A8
:10261800B0FBF3F3A6FB03235B0908FB13731B0151
:102628003233A6FB0323C3F343131C44AC60BDE859
:10263800F88300BF003801401F85EB51704700BF89
:1026480068B310B5044690F8393013F0FF0F04D181
:10265800002380F83830FFF7F1FF242384F839305D
:102668002268D36823F40053D3602046FFF708FF9D
:102678002268136923F4904313612268536923F095
:102688002A0353612268D36843F40053D3600020BF
:10269800E063202384F8393084F83A3010BD0120F3
:1026A800704700BF90F83E30DBB2402B0ED1036D6F
:1026B8002BB90268436C03F0FE03136132E0026831
:1026C800436C43F00103DBB213612BE00369B3F5FC
:1026D800804F11D190F83D30DBB2212B05D1026833
:1026E800436C03F0FE0313611CE00268436C43F083
:1026F8000103DBB2136115E0036D43B90268436C53
:1027080003F44073DB1143F0F00313610AE0036D37
:10271800012B07D10268436C03F44073DB1143F0CB
:10272800F1031361002070470268436CDBB2136148
:102738000020704710B48DB090F83E30DAB2C16A0C
:10274800046B90F83D30DBB2222B40F0D380036D50
:102758004BB9402A07D1019303685A6901929B69D2
:102768000193019BCEE0036D9BB90369B3F5404F1C
:102778000FD10023029303685A6902929A69029260
:10278800029A1A6842F480721A60036D0133036575
:10279800B8E0438D9BB25BB9039303685A6903920F
:1027A8009A690392039A1A6842F400721A609EE0CA
:1027B800438D9BB2012B54D111F5803F22D1026881
:1027C800136823F48063136003685A6812F4006F77
:1027D8000CD01A6822F480621A60002304930368FC
:1027E8005A6904929B690493049B80E00022059235
:1027F8005A6905929A690592059A1A6842F4007214
:102808001A6074E004291AD0082918D0122C16D09E
:10281800C36A022B05D00268136823F4806313602F
:1028280004E00268136843F480631360002306938E
:1028380003685A6906929B690693069B57E00268EB
:10284800136823F4806313600023079303685A69AD
:1028580007929A690792079A1A6842F400721A60F6
:1028680045E0438D9BB2022B2BD1C36A022B11D0BA
:102878000268136843F40063136000230893036835
:102888005A6908929A690892089A1A6822F480622A
:102898001A600CE00268136843F480631360002335
:1028A800099303685A6909929B690993099B03680C
:1028B8005A6812F4006F1AD05A6842F480525A606B
:1028C80015E00268136843F48063136003685A686C
:1028D80012F4006F03D05A6842F480525A60002301
:1028E8000A9303685A690A929B690A930A9B002310
:1028F800036507E000230B9303685A690B929B69F1
:102908000B930B9B00200DB05DF8044B704700BF84
:10291800438D9BB24BB10268436A591C41621B78D4
:102928001361438D013B9BB243850020704700BF74
:10293800438D9BB24BB1436A5A1C426202681269CA
:102948001A70438D013B9BB243850020704700BF3E
:1029580003685A6912F4806F0DD06FF480625A616F
:102968000423036400230363202280F83D2080F8B9
:102978003C30012070470020704700BFF8B506467C
:102988000C4617461D4614E0B5F1FF3F11D02DB196
:10299800FFF74EFB069BC01AA8420AD900233363EF
:1029A800202286F83D2086F83E3086F83C30032009
:1029B800F8BDC4F30743012B08D133685B6924EAE7
:1029C80003039BB2B3FA83F35B0907E033689B699F
:1029D80024EA03039BB2B3FA83F35B09BB42D3D067
:1029E8000020F8BDF8B504460D4616461F4629E0F6
:1029F80023685A6912F4806F12D01A6842F4007280
:102A08001A6023686FF480625A61042323640023E8
:102A18002363202284F83D2084F83C300120F8BD4F
:102A2800B6F1FF3F0ED026B1FFF702FBC01BB04244
:102A380008D900232363202284F83D2084F83C3001
:102A48000320F8BDC5F30743012B08D123685B6950
:102A580025EA03039BB2003318BF012307E023686C
:102A68009B6925EA03039BB2003318BF0123002B9F
:102A7800BED10020F8BD00BFF0B583B004460F46B4
:102A880016461D46C36A042B04D0012B02D013F549
:102A9800803F05D12268136843F48073136007E010
:102AA800036B122B04D10268136843F4807313601C
:102AB800009520464FF0011100223346FFF75EFFD4
:102AC80058BB2369B3F5804F04D1236807F0FE078C
:102AD8001F6115E0226807F44073DB1143F0F0032F
:102AE80013612046114932462B46FFF77BFF20B180
:102AF800236C042B13D1012314E02368FFB21F6158
:102B080020460B4932462B46FFF76CFF034648B177
:102B1800236C042B05D1012304E0032302E00323E3
:102B280000E00323184603B0F0BD00BF0800010011
:102B3800020001002DE9F04184B004460F46164614
:102B48001D46C26A01680B6843F480630B60042A5F
:102B580004D0012A02D012F5803F05D122681368FB
:102B680043F48073136007E0036B112B04D10268F0
:102B7800136843F480731360009520464FF00111E9
:102B880000223346FFF7FAFE002851D12369B3F536
:102B9800804F05D1236847F00107FFB21F613AE073
:102BA800236807F440784FEAD81848F0F0021A6111
:102BB8002046264932462B46FFF714FF20B1236CE6
:102BC800042B37D101233CE02368FFB21F61204664
:102BD8001F4932462B46FFF705FF20B1236C042B13
:102BE8002AD101232DE00022039223685969039119
:102BF800996903910399196841F4807119600095E6
:102C080020464FF001113346FFF7B8FEB0B92268ED
:102C180048F0F103136120460D4932462B46FFF771
:102C2800E1FE034668B1236C042B09D1012308E0B7
:102C3800032306E0032304E0032302E0032300E068
:102C48000323184604B0BDE8F08100BF0800010066
:102C58000200010070B504460D46164619E02046EC
:102C6800FFF776FEE0B9B5F1FF3F12D025B1FFF7C7
:102C7800DFF9801BA8420CD9236C43F0200323649E
:102C880000232363202284F83D2084F83C3003206D
:102C980070BD23685B6913F0800FE0D0002070BD21
:102CA800012070BD70B504460D46164619E0204651
:102CB800FFF74EFEE0B9B5F1FF3F12D025B1FFF79F
:102CC800B7F9801BA8420CD9236C43F02003236476
:102CD80000232363202284F83D2084F83C3003201D
:102CE80070BD23685B6913F0040FE0D0002070BD4D
:102CF800012070BD70B505460C46164622E05A699B
:102D080012F0100F0CD06FF010025A6100232B64E0
:102D18002B63202285F83D2085F83C30012070BDCA
:102D280024B1FFF785F9801BA0420BD92B6C43F027
:102D380020032B64202385F83D30002385F83C30A0
:102D4800032070BD2B685A6912F0400FD7D00020BD
:102D580070BD00BF704700BF002800F0838038B501
:102D6800044690F83D3013F0FF0F04D1002380F89B
:102D78003C30FFF7EFFF242384F83D3022681368C6
:102D880023F001031360FEF7E1FB374BA3FB00239D
:102D98009B0C2268536021686568344A954201D8C3
:102DA800013308E04FF4967202FB03F3304AA2FBAA
:102DB80003239B0901330B62216863682B4A934202
:102DC80008D85B00B0FBF3F0C0F30B03032B2BD840
:102DD800042029E0A5684DB903EB4302B0FBF2F2E9
:102DE800C2F30B02B2FA82F252090AE003EB830241
:102DF80002EB8202B0FBF2F2C2F30B02B2FA82F2E9
:102E0800520982B935B903EB4303B0FBF3F040F440
:102E1800004009E003EB830303EB8303B0FBF3F00B
:102E280040F4404000E00120C8612268E169236A5B
:102E38000B43136022682169E3680B43936022689F
:102E48006169A3690B43D3602268136843F00103E7
:102E5800136000202064202384F83D30206384F828
:102E68003E0038BD0120704783DE1B43A086010069
:102E7800D34D62102DE9F04184B004460D469046CA
:102E88001F46FFF7D5F894F83D30DBB2202B40F011
:102E9800A080064600902046544901221923FFF7D6
:102EA8006DFD002840F0978094F83C30012B00F02D
:102EB8009480012384F83C3023681A6812F0010FCB
:102EC80003D11A6842F001021A602268136823F4D9
:102ED80000631360212384F83D30102384F83E30CA
:102EE80000232364C4F824806785A3F58033E36254
:102EF800638D2385204629460A9A3346FFF7BCFD91
:102F0800054660B1236C042B04D1002384F83C30BF
:102F1800012567E0002384F83C30032562E00023A4
:102F2800039323685A6903929B690393039B3FE0C9
:102F380020460A993246FFF78DFE48B1236C042BD0
:102F48004DD12268136843F400731360012549E0EA
:102F58002268636A591C61621B781361638D013BA7
:102F68009BB26385238D013B9BB2238522685169FF
:102F780011F0040F0CD05BB1636A591C61621B78B5
:102F88001361638D013B9BB26385238D013B2385D0
:102F980020460A993246FFF785FE48B1236C042B78
:102FA8001FD12268136843F400731360012519E0E8
:102FB800238D002BBCD12268136843F4007313607F
:102FC800202384F83D30002384F83E3084F83C30D8
:102FD80008E0022506E0022504E0022502E00325B8
:102FE80000E00325284604B0BDE8F0810200100087
:102FF8002DE9F04186B004460D4690461F46FFF77E
:1030080017F894F83D30DBB2202B40F05C8106467F
:1030180000902046944901221923FFF7AFFC0028AD
:1030280040F0538194F83C30012B00F0508101238B
:1030380084F83C3023681A6812F0010F03D11A682B
:1030480042F001021A602268136823F400631360D7
:10305800222384F83D30102384F83E300023236473
:10306800C4F824806785A3F58033E362638D2385E4
:10307800204629460C9A3346FFF75CFD054660B1A9
:10308800236C042B04D1002384F83C30012529E16A
:10309800002384F83C30032524E1238D5BB9029397
:1030A80023685A6902929A690292029A1A6842F44B
:1030B80000721A60FAE0012B13D12268136823F416
:1030C8008063136072B60023039323685A690392DE
:1030D8009A690392039A1A6842F400721A6062B6F7
:1030E800E4E0022B13D12268136843F400631360F1
:1030F80072B60023049323685A6904929A69049269
:10310800049A1A6822F480621A6062B6CEE02268D5
:10311800136843F4806313600023059323685A6996
:1031280005929B690593059BC0E0032B00F29180F3
:10313800012B19D120460C993246FFF7DBFD28B147
:10314800236C202B40F0C5800325CBE0636A5A1C12
:103158006262226812691A70238D013B2385638D90
:10316800013B9BB26385A1E0022B2BD10096204640
:103178003E4900220C9BFFF701FC002840F0AB8081
:1031880072B62268136843F400731360636A5A1CAA
:103198006262226812691A70238D013B2385638D50
:1031A800013B9BB2638562B6636A5A1C62622268FD
:1031B80012691A70238D013B2385638D013B9BB2F5
:1031C800638573E000962046284900220C9BFFF790
:1031D800D5FB002840F081802268136823F48063BF
:1031E800136072B6636A5A1C6262226812691A70A6
:1031F800238D013B2385638D013B9BB2638500963C
:1032080020461A4900220C9BFFF7B8FB002866D11C
:103218002268136843F400731360636A5A1C62627D
:10322800226812691A70238D013B2385638D013B47
:103238009BB2638562B6636A5A1C6262226812692D
:103248001A70238D013B2385638D013B9BB26385F7
:103258002CE020460C993246FFF74CFD40B1236C18
:10326800202B3ED103253DE00200100004000100A0
:10327800636A5A1C6262226812691A70238D013BC4
:103288002385638D013B9BB2638523685A6912F0DD
:10329800040F0BD0626A511C61621B691370238D85
:1032A800013B2385638D013B9BB26385238D002BF6
:1032B8007FF43BAF202384F83D30002384F83E3070
:1032C80084F83C300EE002250CE002250AE00225D5
:1032D80008E0012506E0032504E0032502E00325B4
:1032E80000E00125284606B0BDE8F081704700BF20
:1032F800704700BF704700BF90F83D30DAB2438D89
:103308009BB2EBB110B50168436A5C1C44621B7840
:103318000B61438D013B9BB24385438D9BB26BB9D7
:10332800292A0BD10268536823F480635360212350
:103338000363282380F83D30FFF7DCFF002010BD31
:1033480000207047704700BF08B590F83D30DAB2EA
:10335800438D9BB2D3B1436A591C41620168096924
:103368001970438D013B9BB24385438D9BB26BB96A
:103378002A2A0BD10268536823F4806353602223FE
:103388000363282380F83D30FFF7DCFF002008BDE9
:10339800704700BF08B503689A6912F0040F01D09E
:1033A800002100E001219B6913F0800F01D182897F
:1033B80000E0028BFFF7ECFF002008BD704700BF5C
:1033C80008B590F83D30DBB2C26A042A01D0082A59
:1033D8001BD1282B19D11E4BC3620268536823F4F2
:1033E800E063536003686FF480625A61026813688F
:1033F80023F48063136000230363202280F83D20B8
:1034080080F83E30FFF7DAFF20E0212B1AD1104B6D
:10341800C36221230363202380F83D30002380F812
:103428003E300268536823F4E063536003686FF426
:1034380080625A610268136823F480631360FFF79F
:1034480059FF03E003686FF480625A61002008BDE9
:103458000000FFFF704700BF10B590F83D30DBB2A9
:1034680090F83E20D2B2C46A018D002938D1212BB0
:1034780036D1042C14D0082C12D014F5803F0FD06C
:103488000268536823F4E063536011230363002345
:1034980080F83E30202380F83D30FFF727FF7CE09E
:1034A8000268536823F4E06353600268136843F4C6
:1034B8000073136000230363202380F83D3090F8E5
:1034C8003E30DBB2402B05D1002380F83E30FFF7B9
:1034D800C1FF62E0002380F83E30FFF707FF5CE0A1
:1034E800212B03D0402A58D1222B56D1438D9BB291
:1034F8002BB90268536823F4806353604DE090F859
:103508003E30DBB2402B3ED1036D9BB9C36C012B1F
:1035180007D10268836CDBB21361036D0233036564
:103528003BE00268836CC3F307231361036D013327
:10353800036532E0036D012B07D10268836CDBB2AF
:103548001361036D0133036527E0036D022B24D15A
:1035580090F83D30DBB2222B05D10268136843F4A2
:103568008073136019E090F83D30DBB2212B14D141
:103578000268436A591C41621B781361438D013B01
:103588009BB2438509E00268436A591C41621B7873
:103598001361438D013B9BB24385002010BD00BFE2
:1035A80008B5C26A90F83D30DBB2212B43D1438D78
:1035B8009BB253B10268436A591C41621B7813617C
:1035C800438D013B9BB2438535E0042A14D0082A79
:1035D80012D012F5803F0FD00268536823F4E063DD
:1035E800536011230363002380F83E30202380F8C2
:1035F8003D30FFF77BFE1EE00268536823F4E0636A
:1036080053600268136843F4007313600023036374
:10361800202380F83D3090F83E30DBB2402B05D1B6
:10362800002380F83E30FFF715FF04E0002380F800
:103638003E30FFF75BFE002008BD00BF704700BFAB
:1036480008B590F83D30DBB2222B5CD1438D9BB29C
:10365800032B0AD9436A5A1C4262026812691A701B
:10366800438D013B9BB243854DE0023B012B18D8AB
:10367800C36A022B0AD00268136823F480631360BC
:103688000268136843F40063136004E00268136877
:1036980043F4806313600268536823F480635360C3
:1036A80031E0C36A022B05D00268136823F48063F3
:1036B800136004E00268136843F4806313600268CF
:1036C800536823F4E0635360436A5A1C42620268F9
:1036D80012691A70438D013B9BB24385202380F801
:1036E8003D300023036390F83E30DBB2402B05D118
:1036F800002380F83E30FFF7A1FF04E0002380F8A4
:103708003E30FFF7F5FD002008BD00BF08B5C26ACE
:10371800438D9BB2032B16D1042A04D0082A02D069
:1037280012F5803F04D10268136823F480631360A4
:10373800436A5A1C4262026812691A70438D013B3F
:103748009BB243855BE0438D9BB2022B4DD1042A8B
:1037580017D0082A15D012F5803F12D0022A05D0BA
:103768000268136823F48063136004E00268136836
:1037780043F4806313600268536823F44073536012
:1037880009E00268536823F44073536002681368C1
:1037980043F400731360436A5A1C42620268126958
:1037A8001A70438D013B9BB24385436A5A1C42629F
:1037B800026812691A70438D013B9BB2438520232E
:1037C80080F83D300023036390F83E30DBB2402B95
:1037D80005D1002380F83E30FFF730FF0FE00023CB
:1037E80080F83E30FFF784FD09E0436A5A1C4262C4
:1037F800026812691A70438D013B9BB24385002011
:1038080008BD00BF704700BF704700BF10B5044631
:1038180090F83D30293B012B05D80023036328236A
:1038280080F83D3010E090F83D30DBB2602B07D0D7
:1038380003685B6813F4006F02D1202380F83D30E1
:103848000023236384F83E302268136823F400635E
:10385800136023685A6812F4006F39D05A6822F44A
:1038680000625A60636B93F82120012A12D0374A0C
:103878005A63606B00F08CFA002851D022681368F4
:1038880023F001031360202384F83D30606B436B01
:10389800984745E0A36B2D4A5A63A06B00F078FA6D
:1038A80000283DD023685A6912F0400F04D0626A9C
:1038B800511C61621B6913702268136823F00103AD
:1038C8001360202384F83D30A06B436B984727E0B2
:1038D80094F83D20D2B2602A16D1202284F83D20E7
:1038E800002222645A6912F0400F04D0626A511C07
:1038F80061621B6913702268136823F00103136067
:103908002046FFF781FF0BE05A6912F0400F04D000
:10391800626A511C61621B6913702046FFF772FFCF
:1039280094F83D30DBB2282B0FD1236C13F0040F31
:103938000BD0074BE36200232363202284F83D2049
:1039480084F83E302046FFF739FD10BD953C00084D
:103958000000FFFF10B582B090F83D30DBB201687F
:103968004A6822F4E0624A600022019202685169C2
:103978000191116841F001011160019A01680A681A
:1039880022F480620A6001684A6812F4006F14D059
:1039980090F83D20D2B2222A04D090F83D20D2B22D
:1039A8002A2A05D1826B1268526892B2428504E0D5
:1039B800426B1268526892B24285428D92B2F2B15D
:1039C8004A6912F0040F08D0426A541C446209691B
:1039D8001170428D013A92B242850268516911F024
:1039E800400F08D0416A4C1C446212690A70428D2B
:1039F800013A92B24285026C42F004020264026CFF
:103A080012B1FFF703FF1FE0282B03D02A2B01D0A8
:103A1800292B0BD10E4BC36200230363202280F8AD
:103A28003D2080F83E30FFF7C9FC0DE0026B222AEA
:103A380001D0222B08D100230363202280F83D20E7
:103A480080F83E30FFF77EFC002002B010BD00BFBA
:103A58000000FFFFF8B5054603689F695C695E686A
:103A680090F83E30DBB2102B01D0402B4FD114F030
:103A7800011F06D016F4007F03D02846FEF712FE79
:103A880012E0454B234033B116F4007F03D028469B
:103A9800FEF74AFE08E0414B23402BB116F4007FA5
:103AA80002D02846FEF746FE3D4B3B40BBB13D4B9E
:103AB80023404BB116F4806F06D03B4B23401BB913
:103AC8002846FFF7C9FCF8BD374B2340002B61D0CF
:103AD80016F4007F5ED02846FFF762FDF8BD334B31
:103AE80023404BB116F4806F06D02F4B23401BB9EF
:103AF8002846FFF7A5FDF8BD2B4B2340002B49D0E6
:103B080016F4007F46D02846FFF700FEF8BD234B89
:103B180023402BB116F4007F02D0FFF73BFCF8BD21
:103B2800234B234033B116F4007F03D02846FFF718
:103B380011FFF8BD1A4B3B40B3B11A4B23404BB1B0
:103B480016F4806F06D0184B23401BB92846FFF7A0
:103B5800D3FBF8BD144B2340E3B116F4007F19D012
:103B68002846FEF7D5FEF8BD104B23404BB116F49E
:103B7800806F06D00C4B23401BB92846FFF7E4FBA7
:103B8800F8BD094B23402BB116F4007F02D028461C
:103B9800FEF7CEFEF8BD00BF0800010002000100DC
:103BA8000400100080000100040001004000010032
:103BB8001000010070B5044603685D695E68324A0A
:103BC80015420ED016F4807F0BD0026C42F0010231
:103BD80002646FF480725A610268136843F4004308
:103BE800136015F4813F0AD016F4807F07D0236C48
:103BF80043F00203236423686FF400725A6115F4DA
:103C0800823F2CD016F4807F29D094F83E30DBB266
:103C1800628D91B294F83D20D2B2206B202B0CD14A
:103C280059B9212A05D0292A03D0282A05D12128C3
:103C380003D12046FFF7C4FB11E0236C43F00403D3
:103C4800236494F83E30DBB2102B04D12268136849
:103C580043F40073136023686FF480625A6115F4AB
:103C6800843F0AD016F4807F07D0236C43F0080302
:103C7800236423686FF400625A61236C13B12046F1
:103C8800FFF7C4FD70BD00BF0001010008B5406A20
:103C98000268136823F48063136000234385426B32
:103CA8005363826B536390F83D30DBB2602B0ED1C7
:103CB800202380F83D30002380F83E3003640268FA
:103CC800136823F001031360FFF79EFD08BD20234E
:103CD80080F83D30002380F83E300268136823F0F6
:103CE80001031360FFF78EFD08BD00BF00283ED01A
:103CF80010B403460168204A91420AD81F4A0A4470
:103D08001F49A1FB02121209920002641D4AC263F4
:103D180009E01D4A0A441A49A1FB0212120992003D
:103D280002641A4AC263022283F821201C682268AE
:103D380022F47F5222F03002586899680843D96803
:103D48000843196908435969084399690843D969B7
:103D580001430A43226000209862D86218635863BE
:103D68009863012283F8212083F8200001E00120D4
:103D780070475DF8044B704707040240F8FFFDBF29
:103D8800CDCCCCCC00000240F8FBFDBF00040240C3
:103D980008B590F82130022B03D004238363012057
:103DA80008BD0268136823F00E03136002681368E5
:103DB80023F00103136003684B4A934243D9783ACE
:103DC80093423CD01432934237D01432934231D0CC
:103DD800143293422BD01432934225D0143293429A
:103DE8001FD01432934219D002F56272934213D055
:103DF800143293420ED01432934208D014329342B4
:103E080002D14FF480521BE04FF4803218E04FF497
:103E1800807215E0102213E0012211E04FF0807249
:103E28000EE04FF480120BE04FF4803208E04FF4BC
:103E3800805205E04FF4807202E0102200E0012277
:103E48002A4B5A6042E02A4A93423CD014329342A9
:103E580037D01432934231D0143293422BD01432DB
:103E6800934225D0143293421FD01432934219D072
:103E780002F56272934213D0143293420ED0143278
:103E8800934208D01432934202D14FF480521BE07F
:103E98004FF4803218E04FF4807215E0102213E0DE
:103EA800012211E04FF080720EE04FF480120BE017
:103EB8004FF4803208E04FF4805205E04FF48072EE
:103EC80002E0102200E001220A4B5A60012380F828
:103ED8002130002380F82030436B13B1984700202D
:103EE80008BD002008BD00BF800002400004024059
:103EF800080002400000024038B5C36B1A68046825
:103F08002568016C04238B40134200F09D8015F056
:103F1800040F00F09980236813F0200F03D1236861
:103F280023F0040323600368A84A934243D9783AEC
:103F380093423CD01432934237D01432934231D05A
:103F4800143293422BD01432934225D01432934228
:103F58001FD01432934219D002F56272934213D0E3
:103F6800143293420ED01432934208D01432934242
:103F780002D14FF480421BE04FF4802218E04FF446
:103F8800806215E0402213E0042211E04FF08062C5
:103F98000EE04FF480020BE04FF4802208E04FF46B
:103FA800804205E04FF4806202E0402200E00422F3
:103FB800874B5A6042E0874A93423CD0143293427E
:103FC80037D01432934231D0143293422BD014326A
:103FD800934225D0143293421FD01432934219D001
:103FE80002F56272934213D0143293420ED0143207
:103FF800934208D01432934202D14FF480421BE01E
:104008004FF4802218E04FF4806215E0402213E05C
:10401800042211E04FF080620EE04FF480020BE0C2
:104028004FF4802208E04FF4804205E04FF48062AC
:1040380002E0402200E00422674B5A60C36A002B6A
:1040480000F0C280984738BD02238B40134200F02D
:10405800A18015F0020F00F09D80236813F0200F57
:1040680006D1236823F00A032360012380F8213056
:104078000368564A934243D9783A93423CD0143263
:10408800934237D01432934231D0143293422BD01A
:104098001432934225D0143293421FD014329342E3
:1040A80019D002F56272934213D0143293420ED0A3
:1040B8001432934208D01432934202D14FF4005282
:1040C8001BE04FF4003218E04FF4007215E0202294
:1040D80013E0022211E04FF000720EE04FF40012DC
:1040E8000BE04FF4003208E04FF4005205E04FF4C3
:1040F800007202E0202200E00222354B5A6042E0C2
:10410800344A93423CD01432934237D0143293420B
:1041180031D0143293422BD01432934225D014322A
:1041280093421FD01432934219D002F5627293421F
:1041380013D0143293420ED01432934208D0143262
:10414800934202D14FF400521BE04FF4003218E0C2
:104158004FF4007215E0202213E0022211E04FF024
:1041680000720EE04FF400120BE04FF4003208E04A
:104178004FF4005205E04FF4007202E0202200E004
:104188000222154B5A60002380F82030836ADBB185
:10419800984738BD08238B40134215D015F0080FF7
:1041A80012D0236823F00E032360C26B016C012335
:1041B80003FA01F15160836380F82130002380F80D
:1041C8002030036B03B1984738BD00BF8000024020
:1041D8000004024008000240000002400F4B1A6829
:1041E80042F001021A6059680D4A0A405A601A687A
:1041F80022F0847222F480321A601A6822F4802233
:104208001A605A6822F4FE025A604FF41F029A603C
:104218004FF00062034B9A60704700BF00100240E5
:104228000000FFF800ED00E030B597B01F4BDA69E9
:1042380042F40032DA61DA6902F400320092009A3C
:104248005A6942F001025A615B6903F00103019364
:10425800019B174D06954FF4E1330793002408940A
:1042680009940A9408230B930C940D9406A8FEF75E
:10427800E7F96B6943F080036B6104230293012320
:10428800049302230393032305930A4802A9FDF725
:1042980007FD094B1C60094A9A605C6090221A600D
:1042A8004FF0E062803B5A6017B030BD001002400A
:1042B80000440040000801408000024004440040DF
:1042C8002DE9F0418AB04A4DEB6943F48003EB6174
:1042D800EB6903F480030193019B6B6943F00103CD
:1042E8006B616B6903F001030293029B0E200121AD
:1042F8000422FDF76BFC0E20FDF79AFC0F2001212C
:104308000322FDF763FC0F20FDF792FC394E3A4B70
:1043180033603A4B73600024B460F4604FF4804318
:1043280033617461B461F46134623046FEF714FDA0
:104338006B6943F001036B616B6903F0010303933D
:10434800039BAB6943F00803AB61AB6903F0080357
:104358000493049B4FF440630693122307930123AD
:10436800089303230993264806A9FDF799FCEB69EE
:1043780043F48003EB61EB6903F480030593059B29
:10438800204D214B2B606C60AC604FF08008C5F865
:104398000C802C616C61AC614FF48057EF6128464A
:1043A800FFF7A4FCB5636E62184D194B2B60102300
:1043B8006B60AC60C5F80C802C616C61AC61EF611E
:1043C8002846FFF793FC75636E622120214622463A
:1043D800FDF7FCFB2120FDF72BFC2220214622467D
:1043E800FDF7F4FB2220FDF723FC0AB0BDE8F081BD
:1043F800001002401C01002000580040A086010067
:10440800000C0140B001002058000240F4010020D7
:10441800440002402DE9F04F89B07B4B9A6942F085
:1044280004029A619A6902F004020192019A9A6957
:1044380042F008029A619A6902F008020292029A0E
:104448009A6942F010029A619B6903F01003039382
:10445800039B002305930693022707974FF0200A32
:104468000DEB0A0444F810AD68482146FDF718FC26
:104478004023049365482146FDF712FC80250495E6
:1044880062482146FDF70CFC4FF4806304936048B2
:104498002146FDF705FC4FF4006304935C48214670
:1044A800FDF7FEFB4FF48056049659482146FDF768
:1044B800F7FB049657482146FDF7F2FB0497554849
:1044C8002146FDF7EDFB4FF00108CDF814804FF0C1
:1044D8000409CDF810904D482146FDF7E1FB102660
:1044E80004964C482146FDF7DBFBCDF810A049485F
:1044F8002146FDF7D5FB03230593CDF810804448EA
:104508002146FDF7CDFBCDF8108042482146FDF746
:10451800C7FB4FF0080BCDF810B03D482146FDF71A
:10452800BFFB04973A482146FDF7BAFB0496384882
:104538002146FDF7B5FBCDF810A035482146FDF71B
:10454800AFFBCDF8109032482146FDF7A9FBCDF816
:1045580010B030482146FDF7A3FBCDF810902D4848
:104568002146FDF79DFB05974023049328482146E3
:10457800FDF796FB049526482146FDF791FB4FF47D
:104588008079CDF8109022482146FDF789FB0495E3
:1045980020482146FDF784FBCDF810801B482146B2
:1045A800FDF77EFB049719482146FDF779FBCDF806
:1045B800109018482146FDF773FB4FF400730493DD
:1045C80014482146FDF76CFB4FF4806304931148AF
:1045D8002146FDF765FB4FF4005304930B48214631
:1045E800FDF75EFB4FF48043049308482146FDF72E
:1045F80057FB4FF40043049304482146FDF750FB52
:1046080009B0BDE8F08F00BF00100240000C014067
:1046180000100140000801402DE9F04F99B0754B9A
:104628009A6942F400629A619A6902F400620192FE
:10463800019A9A6942F400529A619B6903F4005303
:104648000293029B6C4EDFF8B891C6F800900024E4
:1046580074604FF02008C6F808804FF4FA6BC6F86B
:104668000CB034617461B4613046FDF701F9102370
:1046780016931794304616A9FDF736FA60230F9360
:104688001094119408271297139414944FF40073FC
:10469800159330460FA92246FDF73EF930460FA97B
:1046A8000422FDF739F930460FA93A46FDF734F9E7
:1046B8004FF4006308934FF4806309930A94CDF88C
:1046C8002C800C940D940E9430460DEB0801FDF7E8
:1046D800E1F94A4DDFF82CA1C5F800A06C60C5F8D7
:1046E8000880C5F80CB02C616C61AC612846FDF7F8
:1046F800BFF8CDF8588080231793284616A9FDF7F0
:10470800F3F9049418A9052341F8543D2846FDF708
:1047180043F860230F9310941194129713941494F0
:104728004FF40073159328460FA92246FDF7F4F8B5
:1047380028460FA90422FDF7EFF828460FA93A46A4
:10474800FDF7EAF84FF4006308934FF48063099388
:104758000A94CDF82C800C940D940E9428460DEBF9
:104768000801FDF797F9DAF8443023F40043CAF852
:104778004430D9F8443023F40043C9F8443028467B
:104788002146FDF745F928460421FDF741F9284659
:104798003946FDF73DF928462146FDF769F92846CF
:1047A8000421FDF765F928463946FDF761F93046D9
:1047B8002146FDF72DF930460421FDF729F9304649
:1047C8003946FDF725F930462146FDF751F93046BF
:1047D8000421FDF74DF930463946FDF749F92B68B4
:1047E80001221A633268136843F00103136019B099
:1047F800BDE8F08F00100240700100207C0200200C
:10480800002C0140003401402DE9F04387B0414EAF
:10481800B36943F40073B361B36903F4007300939D
:10482800009B3D4C3D4B23604FF48073A3600025F3
:10483800E56065614FF44023E36165604FF005086A
:10484800C4F810802046FDF787FD354A536843F4C5
:104858008023536006A94FF4C02341F8043D204645
:10486800FDF76CF9012304930E220292039320466C
:1048780002A9FDF7F7FB029502270397204602A934
:10488800FDF7F0FB04970B270297032303932046B9
:1048980002A9FDF7E7FB4FF00C09CDF808900423B7
:1048A8000393204602A9FDF7DDFBCDF80890CDF86B
:1048B8000C80204602A9FDF7D5FB23689A6842F4CC
:1048C80080729A609A6842F001029A60736943F0B4
:1048D80001037361736903F001030193019B114B99
:1048E8001D60C3F80480104A9A60104ADA6040F6E6
:1048F800A2221A601A6842F001021A603846294654
:104908002A46FDF763F93846FDF792F907B0BDE886
:10491800F08300BF0010024038020020002401404C
:1049280000000140080002404C24014068020020B9
:10493800F0B585B0274B9A6942F480629A619B6909
:1049480003F480630093009B234C244B23604FF4B3
:104958008073A3600023E36063614FF46022E26127
:104968006360052626612046FDF7F6FC01230393C4
:104978000F2201920293204601A9FDF773FB0D2334
:10498800019302250295204601A9FDF76BFB0395CB
:104998000A23019303270297204601A9FDF762FB2A
:1049A80001950423029320460DEB0301FDF75AFB02
:1049B80001970296204601A9FDF754FB23689A68DF
:1049C80042F480729A609A6842F001029A6005B0D7
:1049D800F0BD00BF00100240EC000020002801409C
:1049E80070B582B0104CF0232370552363700F4DBF
:1049F800642600962846522122460223FEF73AFAF8
:104A08000A20FDF71BFBFB2323700023637000962D
:104A18002846522122460223FEF72CFA0A20FDF7E7
:104A28000DFB02B070BD00BFFC0200201C0100207D
:104A380030B583B0144A00231370144C64250095D4
:104A4800204652210123FEF715FA0520FDF7F6FA54
:104A58000095204652210E4A0623FEF7C9FA18B9D6
:104A680000220C4B1A6003E00A4A136801331360F2
:104A7800084B1B68032B04D93220FDF7DFFAFFF738
:104A8800AFFF03B030BD00BFFC0200201C010020B6
:104A9800A40000200400002030B597B002250C9532
:104AA80001231093102311931395002414944FF4A9
:104AB800601315930CA8FCF749FA0F230793089580
:104AC80009944FF480630A930B9407A82946FCF7CE
:104AD80075FC01954FF44043039301A8FDF7ECF9E9
:104AE800FCF72EFD084BA3FB00308009FDF7ACF85E
:104AF8000420FDF7BFF84FF0FF3021462246FDF7AE
:104B080065F817B030BD00BFD34D6210000000003B
:104B18002DE9F04F83B0FDF771FAC34CA36943F058
:104B28000103A361A36903F001030193019B03201F
:104B3800FDF73AF86FF00B0000210A46FDF746F83A
:104B48006FF00A0000210A46FDF740F86FF00900EF
:104B580000210A46FDF73AF86FF0040000210A46E2
:104B6800FDF734F86FF0030000210A46FDF72EF830
:104B78006FF0010000210A46FDF728F84FF0FF30DA
:104B880000210A46FDF722F8FFF786FF636923F044
:104B980001036361FFF73EFCFFF73EFDFFF734FEBC
:104BA800FFF7C6FEFFF740FBA04820210122FDF7D2
:104BB80079F99F48FDF72CFB9E48FDF729FB08244F
:104BC80005E09D4B1C706420FDF738FA013C002C71
:104BD800F7DA4FF0000A984B83F800A097480421B1
:104BE8000122FDF75FF9FFF76BFBFFF7F9FE0122E2
:104BF800934B1A70D34601E0C346A2460520FDF741
:104C08001DFAFFF715FF8F4B1978A1F17F03DB0021
:104C1800B3F57A7F04DC8C4A9342B8BF134601E0AF
:104C28004FF47A73894A1360864B5B78803BDB00CC
:104C3800B3F57A7F04DC844A9342B8BF134601E097
:104C48004FF47A73824E33607E4C637903F001002F
:104C5800804A1070C3F340037F4A1370002000F0AD
:104C6800F1FC0120617800F0EDFC7C4F3868FBF71F
:104C78005BFC67A3D3E90023FBF7BCFC04460D46A5
:104C8800724B1868FBF750FC63A3D3E90023FBF7CA
:104C9800B1FC02460B4620462946FBF7F9FAFBF71A
:104CA80043FF804638606E4F3868FBF73DFC58A3D9
:104CB800D3E90023FBF79EFC04460D463068FBF75A
:104CC80033FC55A3D3E90023FBF794FC02460B46BB
:104CD80020462946FBF7DCFAFBF726FF3860FBF78E
:104CE80023FC00225F4BFBF785FC06460F46404637
:104CF800FBF71AFC00225B4BFBF77CFC04460D46D5
:104D08003046394622462B46FBF7C0FA804689468C
:104D18000022554BFBF7FEFE80B94046494640A3AA
:104D2800D3E90023FBF7D8FE28B940464946FBF7EC
:104D3800FBFE804604E0DFF8108101E04FF47A784A
:104D48003046394622462B46FBF7A2FA04460D4662
:104D58000022454BFBF7DEFE78B92046294630A3F2
:104D6800D3E90023FBF7B8FE28B920462946FBF70C
:104D7800DBFE044603E0344C01E04FF47A74022071
:104D8800414600F05FFC0320214600F05BFC0AF17D
:104D980032039C4215DAAAF1320A544511DD0BF1AF
:104DA800320398450DDAABF1320BD84509DD2F4BAC
:104DB8001B68042B05D8C8F100032D4A13602D4B3E
:104DC8001C6000F045FC19480221FDF763F8002833
:104DD80054D000221A4B1A7014480221FDF75AF8D1
:104DE8000028F9D10024144B1C70234B1C7005E0DB
:104DF800114B1C706420FDF721F90134072CF7DDF5
:104E08000A4820210022FDF74DF8FEE7AFF30080A5
:104E1800CDCCCCCCCCCCEC3F9A9999999999B93F07
:104E28000000000000408FC0001002400008014050
:104E380038020020EC000020CC000020000C0140CB
:104E4800C4000020A400002018FCFFFF1803002065
:104E5800040300201403002000030020080300209E
:104E6800100300200000E03F00408F4004000020B5
:104E7800D0000020C8000020B0000020214B1D6891
:104E880028462149FCF724F858B128461F49FCF761
:104E98003DF830B105221E4B1A7008221D4B1A70BE
:104EA800AAE628461949FCF713F858B128461A49C2
:104EB800FCF72CF830B10522154B1A700122154B5E
:104EC8001A7099E628461449FCF702F898B10024AC
:104ED800104B1C70114B1C7005E00D4B1C706420AE
:104EE800FDF7ACF80134072CF7DD0D48202100222E
:104EF800FCF7D8FFFEE70023054A1370054A137034
:104F08007AE600BF180000200000104200000442AA
:104F1800CC000020B00000200000F841C4000020B0
:104F280000080140000000000222854B5A60854BB2
:104F38001B68B3F57A7F3ADA0133824A1360824AF2
:104F4800938899B2814803680B4403EBD3735B10D1
:104F58000360D38899B27E4803680B4403EBD3738C
:104F68005B100360138899B27A4803680B4403EB1B
:104F7800D3735B100360538899B2774803680B4476
:104F880003EBD3735B100360538999B273480368CA
:104F98000B4403EBD3735B10036013899AB2704917
:104FA8000B68134403EBD3735B100B6070472DE958
:104FB800F0416C4B1C886C4BA3FB04235B096422F7
:104FC80002FB13439BB223BB684D2868FBF7BEFA6C
:104FD80053A3D3E90023FBF70DFB06460F465A4BB4
:104FE800988980B2FBF7CEFEFBF7B0FA4EA3D3E95F
:104FF8000023FBF7FFFA4EA3D3E90023FBF7FAFAE5
:1050080002460B4630463946FBF742F9FBF7B4FD3A
:1050180028604D4B588980B2504B1D68401BFBF7E8
:1050280083FA45A3D3E90023FBF7E4FA002200231F
:10503800FBF752FD80B1444B588980B2401BFBF707
:1050480073FA3DA3D3E90023FBF7D4FA0022484BB7
:10505800FBF742FDB8B90FE03B4B588980B2401BC3
:10506800FBF762FA34A3D3E90023FBF7C3FA002263
:10507800404BFBF74FFD30B93F4B1B68052B02D85F
:105088003E4B1B782BB93E4A536C23F400435364C0
:1050980004E03B4A536C43F4004353642A4B188999
:1050A80080B22F4B1D68401BFBF73EFA22A3D3E9C1
:1050B8000023FBF79FFA00220023FBF70DFD80B1C8
:1050C800214B188980B2401BFBF72EFA1AA3D3E9AB
:1050D8000023FBF78FFA0022254BFBF7FDFCC0B934
:1050E8000FE0194B188980B2401BFBF71DFA12A379
:1050F800D3E90023FBF77EFA00221E4BFBF70AFDDB
:1051080038B91D4B1B68052B03D81C4B1B78002B8B
:105118003AD11C4A536C23F40043536439E000BF6E
:105128002B8716D9CEF7EF3FF5E4E827181C9B3FED
:10513800FCA9F1D24D62503F7B14AE47E17A943F0F
:1051480000000240AC000020680200200C00002093
:105158000800002014000020100000201C0000207F
:1051680020000020D40000201F85EB5118000020EB
:1051780000002EC000002E4004000020C4000020C3
:1051880000340140002C0140914A536C43F4004321
:10519800536490498B6813F0200F0CBF0122002242
:1051A8008B6813F0400F0CBF01230023896811F0AE
:1051B800800F0CBF012500258749886810F4806F8F
:1051C8000CBF012000208E6816F4006F0CBF012769
:1051D8000027896811F4805F03EB450302EB430362
:1051E8007E4EF35C7E490B600B6803F102030B6093
:1051F8000D687C4B83FB05E2A2EBE57202EB4202F1
:105208004FEA4202A5EB02020A600CBF022200220A
:105218003A4400EB4202B05C734A106010680230F6
:105228001060106883FB0053A3EBE07303EB4303A8
:105238005B00C31A136009686C4883889BB26C4A88
:1052480012689A1AC3889BB26A4800681B1A052913
:1052580018D8DFE801F003070A0D1013D31A664ABD
:10526800136012E0644B1A600FE0634B1A600CE0A5
:10527800614A136009E0604A136006E09B1A5E4ABF
:10528800136002E000225C4B1A600134A4B25B4B4D
:105298001C805B4B1878A8B15A4BA3FB04231B0B4B
:1052A800594A1278013293FBF2F102FB11334BB9E0
:1052B80094FBF0F300FB13444CB954481021FCF75D
:1052C800F7FD04E0514810210022FCF7EBFD504B9C
:1052D800D3F800E0424B1B68052B22D8DFE803F027
:1052E80003080E12161C7446CEF1000E00251CE0B1
:1052F800CEF1000574464FF0000E16E0CEF1000521
:10530800002412E0CEF1000400250EE0CEF10004E6
:1053180075464FF0000E08E07546CEF1000E0024E9
:1053280003E04FF0000E744675463A4B1E682E4B4C
:105338001B68052B1AD8DFE803F003070B0E1115BD
:1053480032467642002114E071423246002610E0CF
:10535800714200220DE0724200210AE07242314699
:10536800002606E031467642002202E00026324658
:105378003146274B1B68002B50DD274B1868184B0C
:105388001F680537174B83FB07C3A3EBE77303EBD2
:1053980043035B00FB1A052B6FD8DFE803F0030714
:1053A8000B0E11150746404200236BE043420746A7
:1053B800002067E04342002764E04742002361E0A1
:1053C8004742034600205DE003464042002759E07B
:1053D800002C0140000C0140001001406C600008E6
:1053E800B8000020ABAAAA2AC0000020680200204A
:1053F8000C00002008000020D8000020D400002065
:10540800CC0000205917B7D1B00000200008014097
:10541800C8000020D0000020B4000020814B18688C
:105428004742814B1B6803F1010C804B83FB0C83C3
:10543800A3EBEC7303EB43035B00C3EB0C03052BFB
:1054480004D8DFE803F01E070A0E131700200746EA
:10545800034617E00346002014E0034638460027B9
:1054680010E03B460746184600230BE03B4607463C
:10547800002007E03B46002704E0002007460346DB
:1054880000E000231D443C447044694B1B68002B1A
:1054980033DD684BD3F800E0674B1F680537634B73
:1054A80083FB07C3A3EBE77303EB43035B00FB1A20
:1054B800052B56D8DFE803F003080E12161C7746B2
:1054C800CEF1000E002352E0CEF1000377464FF0F4
:1054D800000E4CE0CEF10003002748E0CEF10007B3
:1054E800002344E0CEF1000773464FF0000E3EE083
:1054F8007346CEF1000E002739E04E4BD3F800E09A
:10550800CEF100074C4B1B6803F1010C474B83FBA2
:105518000C83A3EBEC7303EB43035B00C3EB0C03BB
:10552800052B04D8DFE803F022080C10151A4FF0F9
:10553800000E774673461AE073464FF0000E16E0E9
:105548007346BE46002712E03B4677469E46002338
:105558000DE03B4677464FF0000E08E03B4600273B
:1055680005E04FF0000E7746734600E0002319442B
:105578003A440EEB060305F57A7540F2C676B54255
:1055880003DC0A2DB8BF0A2501E040F2C6752B4E90
:10559800756304F57A7440F2C675AC4203DC0A2CD4
:1055A800B8BF0A2401E040F2C674244DAC6300F58C
:1055B8007A7040F2C674A04203DC0A28B8BF0A20F9
:1055C80001E040F2C6701D4CE06301F57A7140F2CB
:1055D800C670814203DC0A29B8BF0A2101E040F203
:1055E800C6711748416302F57A7240F2C6718A4261
:1055F80003DC0A2AB8BF0A2201E040F2C672104949
:105608008A6303F57A7340F2C672934203DC0A2B6D
:10561800B8BF0A2301E040F2C673094AD363BDE864
:10562800F08100BFB4000020B8000020ABAAAA2A6D
:10563800D0000020BC000020C00000200034014041
:10564800002C0140014B23F8101070478003002004
:1056580030B583B0144C20460021642200F0AEF827
:1056680012490A884B888888C98800B2009009B214
:10567800019120460E4912B21BB200F0A7F80D4B5B
:105688005B6873B90B4C236823F001032360064D54
:10569800284600F0BFF86060E560236843F0010326
:1056A800236003B030BD00BF1C030020800300202E
:1056B8007460000880000240704700BFFEE700BF2A
:1056C800FEE700BFFEE700BFFEE700BF704700BF70
:1056D800704700BF704700BF08B5FCF7A1FCFCF796
:1056E800DBFA08BD08B50248FEF7B4F908BD00BFEB
:1056F8001C01002008B50248FEF75CFA08BD00BF8F
:105708001C01002008B50248FEF7F6FB08BD00BFE3
:10571800F401002008B50248FEF7EEFB08BD00BF03
:10572800B0010020002103E00B4B5B5843500431CB
:105738000A480B4B42189A42F6D30A4A02E0002361
:1057480042F8043B084B9A42F9D3FEF747FD00F0B4
:105758000FF8FFF7DDF97047C4600008000000206B
:105768008800002088000020D4030020FEE7000005
:105778000E4B70B51E460E4C0025E41AA410A54227
:1057880004D056F8253098470135F8E700F048FC72
:10579800084B094C1E46E41AA4100025A54204D063
:1057A80056F8253098470135F8E770BDBC60000809
:1057B800BC600008BC600008C060000803460244E2
:1057C800934202D003F8011BFAE770470EB400B504
:1057D8004FF402719CB0ADF814106FF000410491C1
:1057E80007914FF6FF711DABADF81610084953F835
:1057F800042B02900690086802A9019300F06CF847
:10580800029B00221A701CB05DF804EB03B07047CD
:1058180084000020034613F8012B002AFBD1181A34
:10582800013870472DE9F0478E688246B3420C462E
:105838009046994640D38A8912F4906F3AD02568E9
:10584800096902236F1A656905EB450595FBF3F5B0
:105858007B1C4B449D4238BF1D4653050FD5294636
:1058680000F03AFB064698B121693A4600F0CAFAB8
:10587800A38923F4906343F08003A38113E02A46AD
:1058880000F080FB064670B95046216900F0E0FA46
:105898000C23CAF80030A3894FF0FF3043F04003CF
:1058A800A381BDE8F08726613E4426604E466561C7
:1058B800ED1BA560B14500D24E46324620684146F0
:1058C80000F0ABFAA36800209B1BA36023681E446A
:1058D8002660BDE8F08700002DE9F0439DB00393F2
:1058E8008B8906461C060D4690460CD50B6953B9A4
:1058F800402100F0F1FA2860286110B90C233360C8
:10590800CCE040236B610023099320238DF82930D4
:1059180030238DF82A3043461C4613F8012B1AB958
:10592800B4EB08090FD002E0252AF5D1F8E7304694
:10593800294642464B46FFF775FF013000F0A98023
:10594800099B4B4409932378002B00F0A280002385
:105958004FF0FF3204930793059206938DF8533066
:105968001A9304F101084446DFF848912178484623
:10597800052200F039FA08F10108049B30B1C9EB9F
:1059880000000122824013430493ECE7D80644BF89
:1059980020228DF85320190744BF2B228DF853205D
:1059A80022782A2A02D0079923460EE0039A013466
:1059B800111D12680391002ABBBF524243F0020333
:1059C80007920792B8BF04930AE01C462278013375
:1059D800303A092A03D80A2000FB0121F5E707918C
:1059E80023782E2B1AD163782A2B0AD1039B0234F1
:1059F8001A1D1B680392002BB8BF4FF0FF330593A5
:105A08000CE0611C00220C4623780131303B092B45
:105A180003D80A2000FB0232F5E70592DFF89880E8
:105A280021784046032200F0DFF938B1049AC8EB28
:105A380000004023834013430493013421781A481B
:105A4800062204F101088DF8281000F0CDF988B17C
:105A5800164B33B9039B073323F00703083303932B
:105A680013E003AB0093304604A92A46104BAFF36A
:105A7800008007E003AB0093304604A92A460C4B8C
:105A880000F092F8421C074603D0099B3B44099357
:105A980041E7AB895B0601D4099801E04FF0FF307C
:105AA8001DB0BDE8F08300BF906000080000000052
:105AB8002D580008866000088C6000082DE9F8431E
:105AC80091461F468A680B6906469342B8BF13463B
