:020000040800F2
:1000000000C000205D4E0008114E0008154E00088B
:10001000194E00081D4E0008214E00080000000087
:10002000000000000000000000000000254E000855
:10003000294E0008000000002D4E0008314E000837
:10004000A54E0008A54E0008A54E0008A54E0008C4
:10005000A54E0008A54E0008A54E0008A54E0008B4
:10006000A54E0008A54E0008A54E000881460008D0
:10007000A54E0008A54E0008A54E0008A54E000894
:100080003D4E00084D4E0008A54E0008A54E000844
:10009000A54E0008A54E0008A54E0008A54E000874
:1000A000A54E0008A54E0008A54E0008A54E000864
:1000B000A54E0008A54E0008A54E0008A54E000854
:1000C000A54E0008A54E0008A54E0008A54E000844
:1000D000A54E0008A54E0008A54E0008A54E000834
:1000E000A54E0008A54E0008A54E0008A54E000824
:1000F000A54E0008A54E0008A54E0008A54E000814
:10010000A54E0008A54E0008A54E0008A54E000803
:10011000A54E0008A54E0008A54E0008A54E0008F3
:10012000A54E0008A54E0008A54E0008A54E0008E3
:1001300000000000000000000000000000000000BF
:1001400000000000000000000000000000000000AF
:10015000000000000000000000000000000000009F
:10016000000000000000000000000000000000008F
:10017000000000000000000000000000000000007F
:10018000000000000000000000000000000000006F
:10019000000000000000000000000000000000005F
:1001A000000000000000000000000000000000004F
:1001B000000000000000000000000000000000003F
:1001C000000000000000000000000000000000002F
:1001D000000000000000000000000000000000001F
:0401E0005FF8E0F1F3
:1001E800044B05481B1A062B02D9044B03B11847C8
:1001F800704700BF8B00002088000020000000002E
:1002080005490648091A891001EBD171491002D035
:10021800034B03B11847704788000020880000206E
:100228000000000010B5064C237843B9FFF7D8FF4B
:10023800044B13B10448AFF300800123237010BDB1
:100248008800002000000000A84E000808B5084BF0
:100258001BB108490848AFF300800848036813B980
:10026800BDE80840CCE7064B002BF9D09847F7E7E4
:10027800000000008C000020A84E00088800002024
:100288000000000070B50F4E0F4D761BB61018BF5A
:10029800002405D0013455F8043B9847A642F9D10B
:1002A8000A4E0B4D04F0FCFD761BB61018BF002457
:1002B80006D0013455F8043B9847A642F9D170BDE1
:1002C80070BD00BF444F0008444F0008484F000865
:1002D800444F000870B4840746D0541E002A41D009
:1002E800CDB2034602E0621EE4B3144603F8015B94
:1002F8009A07F8D1032C2ED9CDB245EA05250F2C43
:1003080045EA054519D9264603F11002103E0F2E7D
:1003180042F8105C42F80C5C42F8085C42F8045C55
:1003280002F11002F2D8A4F1100222F00F0204F038
:100338000F041032032C13440DD91E462246043AEA
:10034800032A46F8045BFAD8221F22F0030204327B
:10035800134404F003042CB1C9B21C4403F8011B74
:10036800A342FBD170BC704714460346C2E700BFE6
:100378000CB4F0B54FF6FF779DB022AC54F8042BBF
:100388006FF000452346029106914FF4027602A9C8
:100398000194ADF81670ADF814600495079500F057
:1003A80041F9029B00221A701DB0BDE8F04002B06E
:1003B800704700BF0EB40146F0B54FF6FF779CB00A
:1003C80021AC54F8042B0D4823466FF000450291E8
:1003D80006914FF4027602A900680194ADF81670F0
:1003E800ADF814600495079500F01CF9029B0022F3
:1003F8001A701CB0BDE8F04003B070470000002040
:1004080020F0030110F00300C0F1000051F8043B94
:1004180000F1040C4FEACC0C6FF000021CBF22FA6A
:100428000CF213434FF0010C4CEA0C2C4CEA0C4C28
:10043800A3EB0C0222EA030212EACC1204BF51F821
:10044800043B0430F4D0C2F1000102EA0102B2FA1E
:1004580082F2C2F11F0200EBD20070472DE9F84F7B
:100468008E680C469E421F46904612D88B8913F41C
:10047800906F10D1354620682A46414600F09AFC14
:10048800A36822689E1B1544A66025600020BDE86D
:10049800F88F1E46EEE74D692268096905EB4505A8
:1004A800C1EB020A814605EBD5750AF101006D1012
:1004B8003844A8422A4684BF05462A465B0510D51B
:1004C8001146484600F020FD8346F8B1524621699E
:1004D80000F0FAFBA38923F4906343F08003A3811F
:1004E80004E0484600F06EFD834658B1CAEB0503A8
:1004F8000BEB0A0065613E46C4F810B02060A360AB
:100508003D46B9E72169484600F0B8FC0C23C9F814
:100518000030A3894FF0FF3043F04003A381BDE8CA
:10052800F88F00BF2DE9F04F936883B09046002BF9
:1005380072D04FF000090D464C468346166808688D
:100548008B68002C45D09C421F469A4646D3AB89FF
:1005580013F4906F2DD06F69296907EB4707C1EB3A
:10056800000A07EBD777601C7F105044B8423A4620
:1005780084BF07463A465B0533D51146584600F016
:10058800C3FC002837D052462969019000F09CFB33
:10059800AA89019B22F4906242F08002AA81CAEBE8
:1005A800070203EB0A006F61A24627462B61286009
:1005B800AA605246494600F0FDFBD8F80820AB680F
:1005C8002868DB1B5044141BAB602860C8F808403F
:1005D80014B3D6F8009074680836B2E72746A246E6
:1005E800E7E7584600F0EEFC03460028D7D1296912
:1005F800584600F043FC0C23CBF80030AB890022AE
:1006080043F040034FF0FF30AB81C8F80820C8F82A
:10061800042003B0BDE8F08F0020C8F8040003B040
:10062800BDE8F08F2DE9F04F0F4689899DB00C0683
:1006380092460393804603D53B69002B00F0F78070
:1006480030238DF82A309AF80030002120227F4D7F
:10065800DFF8FC9109918DF82920002B00F08C809F
:10066800252B544603D117E0252B00F08E8014F873
:10067800013F002BF8D1B4EB0A0B7DD052465B4604
:1006880039464046FFF7EAFE013075D0099B2278CB
:100698005B440993002A6FD000224FF0FF31631C9E
:1006A8000492079206928DF853201A92059101241C
:1006B80005E0049A401B04FA00F0104304901978EE
:1006C800052262489A4600F0B9FA0AF101030028A7
:1006D800EFD1049BD80644BF20228DF85320190778
:1006E8009AF8001044BF2B228DF853202A296FD086
:1006F800A1F13002092A0BD8079B1AF8011F03EB56
:10070800830302EB4303A1F13002092AF5D90793C9
:100718002E2945D003224E4800F090FA50B1049992
:10072800C9EB0000402202FA00F041EA00030AF196
:10073800010A04939AF800300622194645488DF8B4
:1007480028300AF1010A00F079FA002865D0424BF6
:10075800FBB103AB00933A46404B04A94046AFF3C4
:1007680000800646721C07D0099B334409939AF807
:100778000030002B7FF474AFBB895B0654BF099827
:100788004FF0FF301DB0BDE8F08FB4EB0A0B83D0FB
:1007980074E7039B073323F0070308330393E3E766
:1007A8009AF801102A291FD0A1F130020023092A42
:1007B8000AF1010A0593ADD81AF8011F03EB830368
:1007C80002EB4303A1F13002092AF5D90593A1E709
:1007D800039A116804320029039218DB07919AF8EA
:1007E80001100AF1010A93E7039B0AF102001A6853
:1007F8000433002A0393B8BF4FF0FF330592AEBF0E
:100808009AF802109AF802100593824682E7494244
:1008180043F0020307910493E1E703AB00933A46E0
:100828000E4B04A9404600F0B5F806469AE7402169
:1008380000F06AFB3860386110B140237B61FFE645
:100848000C23C8F800304FF0FF309BE7084F000832
:10085800104F0008144F000800000000650400084D
:100868002DE9F0470D690C46896891468D422A4664
:10087800B8BF0A46C9F8002094F8431006461F4638
:10088800DDF8208011B10132C9F8002023689906EB
:100898005DD5D9F800200232C9F80020236813F08A
:1008A800060F19461DD1E1688A1A002AD8BF1946D1
:1008B80017DD04F1190A002505E0E368D9F80020DE
:1008C8009B1AAB420CDD0123524639463046C047DD
:1008D800013005F10105F0D14FF0FF30BDE8F08798
:1008E800216894F84330003318BF01238A060AD5DB
:1008F800E218302182F8431094F845105A1C22441B
:1009080082F84310023304F1430239463046C047A7
:100918000130E1D0236803F00603042B29D0A36833
:1009280022699342C8BF4FF000092FDD9B1A9944F2
:100938001A34002501E04D4528D0012322463946C6
:100948003046C047013005F10105F4D1C4E713F082
:10095800060F08D1E168D9F800208A1A002AD8BF02
:100968001946A6DCBDE794F84330003318BF0123CD
:10097800C9E7D9F80000E168A3682269091A934217
:1009880021EAE179D2DCB9F1000FD1D10020BDE82C
:10099800F08700BF2DE9F0430C46097E85B06E292B
:1009A80006461746984604F1430C0C985AD01AD8B4
:1009B800632900F0128100F2D68000295CD0582902
:1009C80040F0F58084F84510226803681506DFF8C2
:1009D80064E203F104011ED4550653BF1B6801608D
:1009E8001B88016019E0732900F0CF807ED86F2939
:1009F80000F0E480702940F0DA80226842F020029A
:100A08002260782384F8453003681506DFF828E269
:100A180003F10401E0D51B680160D00744BF42F030
:100A280020022260002B40F090802268102122F0E2
:100A380020022260002284F8432060680028A06019
:100A4800C0F28880226822F004022260002B62D162
:100A5800002840F08180654608296AD0C5EB0C0360
:100A680023610CE023681A0640F1D58003686269A7
:100A7800191D01601B681A60654600232361CDF8C3
:100A880000803B4603AA21463046FFF7E9FE0130C5
:100A980021D02A46236939463046C04701301AD04A
:100AA8002368039813F0020FE36819D01A1A002A72
:100AB80016DD04F11909002504E0E36803981A1A01
:100AC800AA420DDD01234A4639463046C047013067
:100AD80005F10105F1D14FF0FF3005B0BDE8F08315
:100AE8009842B8BF184605B0BDE8F083752965D0AF
:100AF80078295CD1226884E761682D200029C3F138
:100B08000003A16084F8430021DB22F00402DFF82F
:100B180024E122600A216546B3FBF1F201FB12339E
:100B28001EF80300134605F8010D002AF4D1082920
:100B380094D12368D90791D5626823699A428DDCDC
:100B4800302305F8013C013D88E7102172E7DFF802
:100B5800E4E00A21002BDED19EF8003004F14205C2
:100B680084F8423078E7642901D069291FD12268C6
:100B78000368150603F104013AD51B680160002BD0
:100B8800BADBDFF8B0E00A2157E703686268191D8D
:100B980001601D680021284600F050F8002846D062
:100BA800401B60602061002384F8433067E701231D
:100BB80084F84210236104F14205F4E723681A0619
:100BC8001ED503681A1D1B680260227EDFF864E0E8
:100BD8006F2A14BF0A2108212CE703680122191D76
:100BE8001B6804F14205016084F842302261DAE7AB
:100BF800550653BF1B680160B3F900300160BEE7BA
:100C080013F0400F036803F1040215BF02601B686C
:100C18001B880260D9E713F0400F0368626903F18B
:100C2800040101601B6814BF1A801A6024E7606819
:100C3800B8E700BF1C4F0008304F0008830770B4A6
:100C4800CDB23DD0531E02B30278AA421ED0421C38
:100C580004E0D3B10478013BAC4217D012F0030F83
:100C6800104602F10102F4D1032B11D853B30278D4
:100C7800AA420BD00344421C02E00178A94205D0E5
:100C88009342104602F10102F7D1002070BC704770
:100C980004460E0206F47F462E4346EA06462268BC
:100CA80020467240A2F1013121EA020212F0803F8F
:100CB80004F10404DBD1043B032B2046EFD8D5E72D
:100CC8001346D1E71846E1E7844641EA000313F0EA
:100CD800030349D1403A23D30B6803604B68436050
:100CE8008B688360CB68C3600B6903614B694361A0
:100CF8008B698361CB69C3610B6A03624B6A436288
:100D08008B6A8362CB6AC3620B6B03634B6B43636F
:100D18008B6B8363CB6BC36340304031403ADBD28B
:100D280030320BD30B6803604B6843608B68836079
:100D3800CB68C36010301031103AF3D20C3205D3AF
:100D480051F8043B40F8043B043AF9D2043208D085
:100D5800D2071CBF11F8013B00F8013B01D30B88F7
:100D680003806046704700BF082A13D38B07B1D0B1
:100D780010F00303AED0C3F10403D21ADB071CBF83
:100D880011F8013B00F8013BA4D331F8023B20F8ED
:100D9800023B9FE7043AD9D3013A11F8013B00F826
:100DA800013BF9D20B7803704B7843708B788370D2
:100DB800604670478842F0B50DD98B1898420AD220
:100DC8008118002A51D09A1A13F8014D934201F85C
:100DD800014DF9D1F0BD0F2A48D941EA00039B071C
:100DE80046D1154600F1100401F1100353F8106CB8
:100DF800103D44F8106C53F80C6C0F2D44F80C6C33
:100E080053F8086C04F1100444F8186C53F8046C97
:100E180003F1100344F8146CE8D8A2F1100323F08E
:100E28000F0302F00F0E1033BEF1030F19440344F1
:100E380021D90E4674461D1F56F8047B043C032C2A
:100E480045F8047FF8D8AEF1040424F00304043410
:100E58002344214402F0030262B1013B0A4411F821
:100E6800014B8A4203F8014FF9D1F0BD0346F3E77D
:100E78000346F2E7F0BD7246EEE700BF30B481B139
:100E880051F8043C0439002BB8BFC9181D4B1A6827
:100E98002AB18A420AD908680C18A24225D04A60A9
:100EA800196030BC70478B4203D81A465368002B30
:100EB800F9D1146815198D420CD007D808680C1898
:100EC8009C4218D030BC4B60516070470C230360C3
:100ED80030BC704709680C44111999421460E0D17C
:100EE8000ACB0C4414605360DBE714685268204452
:100EF80081E80500D4E71C685B68204481E80900A4
:100F08005160CEE7A400002070B5CD1C25F0030584
:100F180008350C2D38BF0C25002D06463BDBA942B1
:100F280039D827490A6852B113685B1B04D436E0E4
:100F380023685B1B1AD522465468002CF8D14968EF
:100F48001F4C002936D02946304600F05FF8431C74
:100F580021D0C41C24F00304A04205D0211A304635
:100F680000F054F8013016D0256004E00B2B0DD9A1
:100F780023601C44256004F10B0020F00700231DAA
:100F8800C31A02D05A42E25070BD70BD94420ED0CE
:100F980063685360EFE70C233360002070BD0B2BB0
:100FA80003D8144653680B60E5E71446E0E7134698
:100FB8001446F8E7304600F029F86060C3E700BF40
:100FC800A4000020F9B1F8B506461546B2B10C46A2
:100FD80000F02EF8854201D82046F8BD2946304653
:100FE800FFF792FF074668B12A462146FFF76CFED5
:100FF80030462146FFF742FF3846F8BDFFF73EFF6F
:101008002846F8BDF8BD1146FFF77EBF38B5074C36
:10101800002305460846236000F014F8431C00D05E
:1010280038BD2368002BFBD02B6038BD100400208E
:1010380051F8040C0028BEBF091851F8043CC01828
:1010480004387047044A05491368002B08BF0B464B
:101058001844106018467047AC000020180400209F
:1010680081F0004102E000BF83F0004330B54FEA51
:1010780041044FEA430594EA050F08BF90EA020FBE
:101088001FBF54EA000C55EA020C7FEA645C7FEA51
:10109800655C00F0E2804FEA5454D4EB5555B8BF74
:1010A8006D420CDD2C4480EA020281EA030382EAE5
:1010B800000083EA010180EA020281EA0303362D77
:1010C80088BF30BD11F0004F4FEA01314FF4801C4A
:1010D8004CEA113102D0404261EB410113F0004F5C
:1010E8004FEA03334CEA133302D0524263EB430313
:1010F80094EA050F00F0A780A4F10104D5F1200EB1
:101108000DDB02FA0EFC22FA05F2801841F100010B
:1011180003FA0EF2801843FA05F359410EE0A5F1DF
:1011280020050EF1200E012A03FA0EFC28BF4CF010
:10113800020C43FA05F3C01851EBE37101F00045C6
:1011480007D54FF0000EDCF1000C7EEB00006EEBD3
:101158000101B1F5801F1BD3B1F5001F0CD349085D
:101168005FEA30004FEA3C0C04F101044FEA4452B4
:1011780012F5800F80F09A80BCF1004F08BF5FEA3B
:10118800500C50F1000041EB045141EA050130BD1B
:101198005FEA4C0C404141EB010111F4801FA4F1BE
:1011A8000104E9D191F0000F04BF01460020B1FA13
:1011B80081F308BF2033A3F10B03B3F120020CDA4B
:1011C8000C3208DD02F1140CC2F10C0201FA0CF029
:1011D80021FA02F10CE002F11402D8BFC2F1200C8E
:1011E80001FA02F120FA0CFCDCBF41EA0C01904044
:1011F800E41AA2BF01EB0451294330BD6FEA04048D
:101208001F3C1CDA0C340EDC04F11404C4F1200277
:1012180020FA04F001FA02F340EA030021FA04F389
:1012280045EA030130BDC4F10C04C4F1200220FAE0
:1012380002F001FA04F340EA0300294630BD21FA1E
:1012480004F0294630BD94F0000F83F4801306BFE4
:1012580081F480110134013D4EE77FEA645C18BFD8
:101268007FEA655C29D094EA050F08BF90EA020F6F
:1012780005D054EA000C04BF1946104630BD91EA67
:10128800030F1EBF0021002030BD5FEA545C05D16A
:101298004000494128BF41F0004130BD14F58004A9
:1012A8003CBF01F5801130BD01F0004545F0FE411D
:1012B80041F470014FF0000030BD7FEA645C1ABF52
:1012C800194610467FEA655C1CBF0B46024650EA89
:1012D800013406BF52EA033591EA030F41F40021B5
:1012E80030BD00BF90F0000F04BF0021704730B53B
:1012F8004FF4806404F132044FF000054FF0000110
:1013080050E700BF90F0000F04BF0021704730B5D0
:101318004FF4806404F1320410F0004548BF4042A5
:101328004FF000013EE700BF42004FEAE2014FEAFA
:1013380031014FEA02701FBF12F07F4393F07F4FD5
:1013480081F06051704792F0000F14BF93F07F4F07
:10135800704730B54FF4607401F0004521F000414A
:1013680020E700BF50EA010208BF704730B54FF0D0
:1013780000050AE050EA010208BF704730B511F0D5
:10138800004502D5404261EB41014FF4806404F10D
:1013980032045FEA915C3FF4DCAE4FF003025FEA8F
:1013A800DC0C18BF03325FEADC0C18BF033202EB17
:1013B800DC02C2F1200300FA03FC20FA02F001FA71
:1013C80003FE40EA0E0021FA02F11444C1E600BF10
:1013D80070B54FF0FF0C4CF4E06C1CEA11541DBFC3
:1013E8001CEA135594EA0C0F95EA0C0F00F0DEF88E
:1013F8002C4481EA030621EA4C5123EA4C5350EA73
:10140800013518BF52EA033541F4801143F48013C3
:1014180038D0A0FB02CE4FF00005E1FB02E506F054
:101428000042E0FB03E54FF00006E1FB03569CF0A9
:10143800000F18BF4EF0010EA4F1FF04B6F5007FAF
:1014480064F5407404D25FEA4E0E6D4146EB060621
:1014580042EAC62141EA55514FEAC52040EA5E50AA
:101468004FEACE2EB4F1FD0C88BFBCF5E06F1ED854
:10147800BEF1004F08BF5FEA500E50F1000041EB8B
:10148800045170BD06F0004646EA010140EA020038
:1014980081EA0301B4EB5C04C2BFD4EB0C0541EA5A
:1014A800045170BD41F480114FF0000E013C00F36F
:1014B800AB8014F1360FDEBF002001F0004170BD93
:1014C800C4F10004203C35DA0C341BDC04F11404AC
:1014D800C4F1200500FA05F320FA04F001FA05F238
:1014E80040EA020001F0004221F0004110EBD37005
:1014F80021FA04F642EB06015EEA430E08BF20EA31
:10150800D37070BDC4F10C04C4F1200500FA04F3D3
:1015180020FA05F001FA04F240EA020001F0004165
:1015280010EBD37041F100015EEA430E08BF20EAD8
:10153800D37070BDC4F1200500FA05F24EEA020E20
:1015480020FA04F301FA05F243EA020321FA04F04F
:1015580001F0004121FA04F220EA020000EBD37006
:101568005EEA430E08BF20EAD37070BD94F0000F06
:101578000FD101F00046400041EB010111F4801F3A
:1015880008BF013CF7D041EA060195F0000F18BFEB
:10159800704703F00046520043EB030313F4801F27
:1015A80008BF013DF7D043EA0603704794EA0C0FE1
:1015B8000CEA135518BF95EA0C0F0CD050EA4106F7
:1015C80018BF52EA4306D1D181EA030101F0004174
:1015D8004FF0000070BD50EA410606BF104619469C
:1015E80052EA430619D094EA0C0F02D150EA0136A8
:1015F80013D195EA0C0F05D152EA03361CBF1046E9
:1016080019460AD181EA030101F0004141F0FE4187
:1016180041F470014FF0000070BD41F0FE4141F40B
:10162800780170BD70B54FF0FF0C4CF4E06C1CEA0B
:1016380011541DBF1CEA135594EA0C0F95EA0C0FC0
:1016480000F0A7F8A4EB050481EA030E52EA03357B
:101658004FEA013100F088804FEA03334FF080559C
:1016680045EA131343EA12634FEA022245EA1115C9
:1016780045EA10654FEA00260EF000419D4208BF7A
:10168800964244F1FD0404F5407402D25B084FEA27
:101698003202B61A65EB03055B084FEA32024FF4D3
:1016A80080104FF4002CB6EB020E75EB030E22BF30
:1016B800B61A754640EA0C005B084FEA3202B6EBF0
:1016C800020E75EB030E22BFB61A754640EA5C009F
:1016D8005B084FEA3202B6EB020E75EB030E22BF2F
:1016E800B61A754640EA9C005B084FEA3202B6EB30
:1016F800020E75EB030E22BFB61A754640EADC00EF
:1017080055EA060E18D04FEA051545EA16754FEA50
:1017180006164FEAC30343EA52734FEAC2025FEA6E
:101728001C1CC0D111F4801F0BD141EA00014FF0FD
:1017380000004FF0004CB6E711F4801F04BF0143CE
:101748000020B4F1FD0C88BFBCF5E06F3FF6AFAEEA
:10175800B5EB030C04BFB6EB020C5FEA500C50F17A
:10176800000041EB045170BD0EF0004E4EEA1131FD
:1017780014EB5C04C2BFD4EB0C0541EA045170BD04
:1017880041F480114FF0000E013C90E645EA060E48
:101798008DE60CEA135594EA0C0F08BF95EA0C0F76
:1017A8003FF43BAF94EA0C0F0AD150EA01347FF4BE
:1017B80034AF95EA0C0F7FF425AF104619462CE795
:1017C80095EA0C0F06D152EA03353FF4FDAE1046F8
:1017D800194622E750EA410618BF52EA43067FF449
:1017E800C5AE50EA41047FF40DAF52EA43057FF4D9
:1017F800EBAE12E74FF0FF3C06E000BF4FF0010CE4
:1018080002E000BF4FF0010C4DF804CD4FEA410C47
:101818007FEA6C5C4FEA430C18BF7FEA6C5C1BD014
:1018280001B050EA410C0CBF52EA430C91EA030F95
:1018380002BF90EA020F0020704710F1000F91EAF2
:10184800030F58BF994208BF90422CBFD8176FEAC0
:10185800E37040F0010070474FEA410C7FEA6C5C8E
:1018680002D150EA013C07D14FEA430C7FEA6C5C95
:10187800D6D152EA033CD3D05DF8040B704700BFC1
:101888008446104662468C461946634600E000BF0F
:1018980001B5FFF7B7FF002848BF10F1000F01BDE1
:1018A8004DF808EDFFF7F4FF0CBF012000205DF8AC
:1018B80008FB00BF4DF808EDFFF7EAFF34BF012031
:1018C80000205DF808FB00BF4DF808EDFFF7E0FFCA
:1018D80094BF012000205DF808FB00BF4DF808ED1B
:1018E800FFF7CEFF94BF012000205DF808FB00BF82
:1018F8004DF808EDFFF7C4FF34BF012000205DF864
:1019080008FB00BF4FEA410212F5001215D211D5AB
:101918006FF47873B3EB625212D94FEAC12343F0E4
:10192800004343EA505311F0004F23FA02F018BF66
:10193800404270474FF00000704750EA013005D12F
:1019480011F0004008BF6FF0004070474FF00000F2
:10195800704700BF4FEA4102B2F1E04324BFB3F53C
:10196800001CDCF1FE5C0DD901F0004C4FEAC0020E
:101978004CEA5070B2F1004F40EB830008BF20F0F2
:101988000100704711F0804F21D113F13872BCBFAC
:1019980001F00040704741F480114FEA5252C2F101
:1019A8001802C2F1200C10FA0CF320FA02F018BF4A
:1019B80040F001004FEAC1234FEAD32303FA0CFC9D
:1019C80040EA0C0023FA02F34FEA4303CCE77FEA2C
:1019D800625307D150EA01331EBF4FF0FE4040F476
:1019E8004000704701F0004040F0FE4040F4000025
:1019F800704700BF80F0004002E000BF81F0004166
:101A080042001FBF5FEA410392EA030F7FEA226C9C
:101A18007FEA236C6AD04FEA1262D2EB1363C1BF2C
:101A2800D218414048404140B8BF5B42192B88BF9B
:101A3800704710F0004F40F4000020F07F4018BFBE
:101A4800404211F0004F41F4000121F07F4118BFDE
:101A5800494292EA030F3FD0A2F1010241FA03FC86
:101A680010EB0C00C3F1200301FA03F100F000436E
:101A780002D5494260EB4000B0F5000F13D3B0F136
:101A8800807F06D340084FEA310102F10102FE2AA5
:101A980051D2B1F1004F40EBC25008BF20F0010015
:101AA80040EA03007047490040EB000010F4000FC3
:101AB800A2F10102EDD1B0FA80FCACF1080CB2EB56
:101AC8000C0200FA0CF0AABF00EBC25052421843B5
:101AD800BCBFD0401843704792F0000F81F400015A
:101AE80006BF80F400000132013BB5E74FEA41032D
:101AF8007FEA226C18BF7FEA236C21D092EA030F99
:101B080004D092F0000F08BF0846704790EA010F12
:101B18001CBF0020704712F07F4F04D1400028BF3F
:101B280040F00040704712F100723CBF00F5000021
:101B3800704700F0004343F0FE4040F40000704757
:101B48007FEA226216BF08467FEA23630146420203
:101B580006BF5FEA412390EA010F40F48000704716
:101B68004FF0000304E000BF10F0004348BF4042BC
:101B78005FEA000C08BF704743F0964301464FF0F8
:101B880000001CE050EA010208BF70474FF0000354
:101B98000AE000BF50EA010208BF704711F0004395
:101BA80002D5404261EB41015FEA010C02BF844665
:101BB8000146002043F0B64308BFA3F18053A3F5C4
:101BC8000003BCFA8CF2083AA3EBC25310DB01FA0B
:101BD80002FC634400FA02FCC2F12002BCF1004F8F
:101BE80020FA02F243EB020008BF20F00100704720
:101BF80002F1200201FA02FCC2F1200250EA4C0074
:101C080021FA02F243EB020008BF20EADC707047B9
:101C18004FF0FF3C06E000BF4FF0010C02E000BFB0
:101C28004FF0010C4DF804CD4FEA40024FEA410352
:101C38007FEA226C18BF7FEA236C11D001B052EA08
:101C4800530C18BF90EA010F58BFB2EB030088BFCE
:101C5800C81738BF6FEAE17018BF40F0010070473D
:101C68007FEA226C02D15FEA402C05D17FEA236C1F
:101C7800E4D15FEA412CE1D05DF8040B704700BF66
:101C8800844608466146FFE70FB5FFF7C9FF0028FD
:101C980048BF10F1000F0FBD4DF808EDFFF7F4FF36
:101CA8000CBF012000205DF808FB00BF4DF808EDCF
:101CB800FFF7EAFF34BF012000205DF808FB00BFF2
:101CC8004DF808EDFFF7E0FF94BF012000205DF814
:101CD80008FB00BF4DF808EDFFF7D2FF94BF0120C5
:101CE80000205DF808FB00BF4DF808EDFFF7C8FFBE
:101CF80034BF012000205DF808FB00BF82B0084B0C
:101D08001B68084AA2FB03235B0A00FB03F001904F
:101D180000BF019B5A1E0192002BF9D102B07047F7
:101D280064000020D34D621070B582B00446036889
:101D380013F0010F6BD0A84B5B6803F00C03042B66
:101D48000AD0A54B5B6803F00C03082B0DD1A24BFE
:101D58005B6813F4803F08D09F4B1B6813F4003F67
:101D680055D06368002B52D1B8E16368B3F5803F62
:101D780005D1994A136843F48033136026E063B9A8
:101D880003F1804303F504331A6822F480321A60A1
:101D98001A6822F480221A6018E0B3F5A02F0CD13B
:101DA80003F18043A3F53C331A6842F480221A6099
:101DB8001A6842F480321A6008E0874B1A6822F4E5
:101DC80080321A601A6822F480221A6063687BB134
:101DD80001F016F8054605E001F012F8401B6428EA
:101DE80000F27E817C4B1B6813F4003FF4D00EE0B8
:101DF80001F006F8054605E001F002F8401B6428EA
:101E080000F27081744B1B6813F4003FF4D123680F
:101E180013F0020F50D0704B5B6813F00C0F0AD010
:101E28006D4B5B6803F00C03082B16D16A4B5B689B
:101E380013F4803F11D1684B1B6813F0020F03D0D5
:101E48002369012B40F05081634A136823F0F8039B
:101E5800616943EAC10313602EE02369D3B101220B
:101E68005E4B1A6000F0CCFF054605E000F0C8FFA5
:101E7800401B022800F23A81574B1B6813F0020FEF
:101E8800F4D0554A136823F0F803616943EAC103A3
:101E9800136011E00022514B1A6000F0B1FF0546B3
:101EA80005E000F0ADFF401B022800F221814A4BFB
:101EB8001B6813F0020FF4D1236813F0080F29D020
:101EC800A369ABB10122464B1A6000F099FF0546A1
:101ED80005E000F095FF401B022800F20B813E4B05
:101EE8005B6A13F0020FF4D00120FFF707FF11E03F
:101EF80000223B4B1A6000F083FF054605E000F026
:101F08007FFF401B022800F2F780334B5B6A13F017
:101F1800020FF4D1236813F0040F00F089802E4BD0
:101F2800DB6913F0805F0BD12B4BDA6942F08052EA
:101F3800DA61DB6903F080530193019B012500E01E
:101F48000025284B1B6813F4807F13D1254A13689A
:101F580043F48073136000F053FF064605E000F079
:101F68004FFF801B642800F2C9801E4B1B6813F4C6
:101F7800807FF4D0E368012B05D1174A136A43F038
:101F88000103136222E063B903F1804303F50433CC
:101F98001A6A22F001021A621A6A22F004021A620C
:101FA80014E0052B09D10C4B1A6A42F004021A629C
:101FB8001A6A42F001021A6208E0074B1A6A22F014
:101FC80001021A621A6A22F004021A62E368CBB1AB
:101FD80000F016FF06460FE00010024000004242E3
:101FE800800442420070004000F00AFF801B41F26A
:101FF8008833984200F28480494B1B6A13F0020F21
:10200800F2D00FE000F0FCFE064606E000F0F8FE15
:10201800801B41F28833984274D8414B1B6A13F0F5
:10202800020FF3D125B13E4AD36923F08053D3611F
:10203800E369002B68D03A4A526802F00C02082A79
:1020480064D0022B37D10022364B1A6000F0D8FE3C
:10205800054604E000F0D4FE401B022858D8304B57
:102068001B6813F0007FF5D1236AB3F5803F06D1D2
:102078002B494B6823F40032A36813434B6028486C
:10208800436823F47411236A626A13430B43436061
:102098000122244B1A6000F0B3FE044604E000F06D
:1020A800AFFE001B022835D81D4B1B6813F0007FBC
:1020B800F5D0002031E000221A4B1A6000F0A0FE93
:1020C800044604E000F09CFE001B022824D8144BB0
:1020D8001B6813F0007FF5D100201EE001201CE0F2
:1020E80003201AE0032018E0012016E0032014E082
:1020F800032012E0032010E003200EE003200CE090
:1021080003200AE0032008E0002006E0012004E0A4
:10211800032002E0032000E0032002B070BD00BFEE
:10212800001002406000424230B486B0164D02AC46
:1021380028686968AA68EB680FC42B8AADF8043070
:10214800124B5B6803F00C02082A19D1C3F38342CF
:1021580006A90A4412F8102C13F4803F0CD00B4B3C
:102168005B68C3F340430B4413F8140C084BB3FBF0
:10217800F0F000FB02F004E0064800FB02F000E08B
:10218800034806B030BC7047C04E0008001002403B
:1021980000127A0000093D0070B55C4B1B6803F023
:1021A80007038B420BD2594A136823F007030B43EA
:1021B8001360136803F00703994240F0978003689F
:1021C80013F0020F06D0524C636823F0F0028368C4
:1021D800134363600D460446036813F0010F4DD0A6
:1021E8004268012A05D14A4B1B6813F4003F0DD100
:1021F8007EE0022A05D1464B1B6813F0007F05D10B
:1022080078E0434B1B6813F0020F75D040494B68C8
:1022180023F0030313434B6000F0F2FD06466368A6
:10222800012B0ED106E000F0EBFD801B41F2883354
:10223800984263D8364B5B6803F00C03042BF2D149
:102248001CE0022B15D106E000F0DAFD801B41F2FC
:102258008833984254D82E4B5B6803F00C03082B44
:10226800F2D10BE000F0CCFD801B41F2883398429C
:1022780048D8274B5B6813F00C0FF3D1234B1B682E
:1022880003F007039D420AD2204A136823F007038C
:102298002B431360136803F007039D4234D123686E
:1022A80013F0040F06D01A494B6823F4E062E36880
:1022B80013434B60236813F0080F07D0144A536880
:1022C80023F46053216943EAC1035360FFF72CFFED
:1022D8000F4B5B68C3F303130E4AD35CD8400E4B15
:1022E8001860002000F05CFD002070BD012070BD6A
:1022F800012070BD012070BD012070BD032070BD9C
:10230800032070BD032070BD012070BD0020024075
:1023180000100240D44E000864000020014B1868E9
:10232800704700BF6400002008B5FFF7F7FF044BB3
:102338005B68C3F30223034AD35CD84008BD00BFDF
:1023480000100240E44E000808B5FFF7E7FF044B11
:102358005B68C3F3C223034AD35CD84008BD00BFFF
:1023680000100240E44E000870B4036A23F0010331
:102378000362036A4668826922F073020C6842EAC3
:10238800040523F002028B6813430F4CA04202D0CD
:102398000E4A904205D123F00803CA68134323F07C
:1023A8000403094CA04202D0084A904205D126F401
:1023B80040764A6932438E691643466085614A68A9
:1023C8004263036270BC7047002C01400034014036
:1023D80030B4036A23F480730362036A4568C269F0
:1023E80022F073020C68224323F400738C6843EADA
:1023F8000423124CA04203D004F50064A04206D185
:1024080023F40063CC6843EA042323F480630B4C71
:10241800A04203D004F50064A04207D125F440553A
:102428004C6945EA04158C6945EA04154560C261A2
:102438004A68C263036230BC704700BF002C014089
:1024480030B4036A23F480530362036A4468C269A0
:1024580022F4E6420D6842EA052223F400538D680F
:1024680043EA0533094DA84203D005F50065A842A3
:1024780004D124F480444D6944EA85144460C2615F
:102488004A680264036230BC704700BF002C0140F8
:1024980010B4036A046A24F001040462846924F015
:1024A800F00444EA021223F00A031943826101622C
:1024B80010BC704710B4036A23F0100303628469E8
:1024C800036A24F4704444EA023223F0A00343EA86
:1024D80001118261016210BC704700BF10B48468AA
:1024E80024F47F4442EA0323194344EA0103836046
:1024F80010BC704710B50468A36823F070024B68DD
:10250800134323F007030A681343A3604B68502B57
:102518001FD002D8402B0BD010BD602B1FD0702BC2
:1025280022D10B698A68C9680068FFF7D7FF10BD18
:1025380003681C6A1A6A22F001021A620268936927
:1025480023F0F003096943EA0113936103681C62ED
:1025580010BD0A6989680068FFF79AFF10BD0A690B
:1025680089680068FFF7A6FF10BD00BF704700BF6D
:1025780038B590F83C30012B18D00446012580F876
:102588003C50022380F83D30FFF7B4FF2268D3683F
:1025980023F04003D3602268D36823F48043D360D8
:1025A80084F83D50002084F83C0038BD022038BD36
:1025B8000368244A904212D002F5006290420ED07D
:1025C800B0F1804F0BD0A2F59832904207D002F5B7
:1025D8008062904203D002F58062904203D123F0DA
:1025E80070034A681343174A904212D002F50062FA
:1025F80090420ED0B0F1804F0BD0A2F598329042A5
:1026080007D002F58062904203D002F580629042C2
:1026180003D123F44073CA68134323F080034A6943
:10262800134303608B68C3620B688362054B98424F
:1026380003D003F50063984201D10B6903630123BA
:1026480043617047002C0140B8B110B5044690F8BA
:102658003D3013F0FF0F04D1002380F83C30FFF722
:1026680085FF022384F83D30211D2068FFF7A0FF75
:10267800012384F83D30002010BD0120704700BFC1
:1026880030B4036A23F010030362036A4468826962
:1026980022F4E6420D6842EA052223F020038D6801
:1026A80043EA0513114DA84203D005F50065A84279
:1026B80006D123F08003CD6843EA051323F04003D5
:1026C8000A4DA84203D005F50065A84207D124F4B5
:1026D80040644D6944EA85048D6944EA8504446090
:1026E80082614A688263036230BC7047002C0140F3
:1026F80038B590F83C30012B66D00D4604460123CE
:1027080080F83C30022380F83D300C2A55D8DFE8A9
:1027180002F0075454541A5454542E54545441003B
:102728000068FFF721FE2268936943F0080393616C
:102738002268936923F004039361226891692B69E5
:102748000B43936139E00068FFF79AFF22689369A9
:1027580043F4006393612268936923F4806393616F
:1027680022689369296943EA0123936125E0006897
:10277800FFF72EFE2268D36943F00803D36122686D
:10278800D36923F00403D3612268D1692B690B4311
:10279800D36112E00068FFF753FE2268D36943F45F
:1027A8000063D3612268D36923F48063D36122680C
:1027B800D369296943EA0123D361012384F83D30B1
:1027C800002084F83C0038BD022038BD10B4012335
:1027D80003FA01F4036A23EA04030362036A8A40E2
:1027E8001A43026210BC704710B504460122006803
:1027F800FFF7ECFF23680C4A934205D002F500620C
:10280800934203D1012202E0012200E000221AB122
:102818005A6C42F400425A642268136843F0010378
:102828001360002010BD00BF002C014010B4042329
:1028380003FA01F4036A23EA04030362036A8A4081
:102848001A43026210BC704710B50446042200689F
:10285800FFF7ECFF2268536C43F40043536422688B
:10286800136843F001031360002010BD90F83C305A
:10287800012B25D0012380F83C30CB6823F440722B
:102888008B68134323F480624B68134323F400627C
:102898000B68134323F480520B69134323F400524B
:1028A8004B69134323F480438A69134323F4004399
:1028B800134302685364002380F83C30184670477D
:1028C8000220704790F83C30012B21D030B401220F
:1028D80080F83C20022380F83D300468636823F0C8
:1028E80070036360046865680B682B436360046861
:1028F800A36823F08003A3600468A5684B682B4392
:10290800A36080F83D20002380F83C30184601E0A1
:102918000220704730BC704790F82430012B27D034
:10292800012380F8243003689A6812F0010F10D14F
:10293800114A926812F0010F0BD1104A934208D144
:1029480010B45A6822F470240A6822435A6000239B
:1029580009E0836A43F0200383620123002280F8A0
:10296800242018467047002280F82420184601E0E9
:102978000220704710BC7047002801400024014025
:10298800074AD36823F4E0631B041B0C000200F41D
:10299800E060184340F0BF6040F40030D0607047FA
:1029A80000ED00E030B4164BDB68C3F30223C3F13B
:1029B8000704042C28BF04241D1D062D01D9DD1E83
:1029C80000E00025012303FA04F4013C2140A9405A
:1029D800AB40013B1A400A43002806DA00F00F001A
:1029E8001201D2B2074B1A5407E01201D2B200F119
:1029F800604000F5614080F8002330BC704700BF9C
:102A080000ED00E014ED00E0420900F01F00012392
:102A180003FA00F0014B43F82200704700E100E0A0
:102A28000138B0F1807F0AD2064B5860F021064A7F
:102A380082F823100020986007221A60704701204E
:102A4800704700BF10E000E000ED00E0042805D169
:102A5800054A136843F0040313607047024A136879
:102A680023F004031360704710E000E0704700BFD4
:102A780008B5FFF7FBFF08BDF0B583B00026344664
:102A8800DFE00122A2400B6813409A4240F0D88050
:102A98004D68122D2DD00BD8022D27D003D85DB349
:102AA800012D1ED035E0032D30D0112D1BD030E084
:102AB800664FBD4220D008D8A7F58017BD421BD06D
:102AC80007F58037BD4224D116E0614FBD4213D0CF
:102AD80007F58037BD420FD0A7F58017BD4218D142
:102AE8000AE0CE6815E0CE68043612E0CE680836F3
:102AF8000FE0CE680C360CE08D684DB1012D02D187
:102B08000261082605E04261082602E0002600E08E
:102B18000426FF2B01D8864601E000F1040EFF2BA6
:102B280001D8A20002E0A4F108029200DEF80070C9
:102B38000F25954027EA050506FA02F22A43CEF842
:102B480000204A6812F0805F7AD0424A956945F0C1
:102B580001059561926902F001020192019AA708A4
:102B6800BD1C3D4A52F825E004F0030292000F25EF
:102B780095402EEA050E394DA84215D005F5806519
:102B8800A84213D005F58065A84211D005F58065E7
:102B9800A8420FD005F58065A8420DD005F58065DF
:102BA800A8420BD105250AE0002508E0012506E02A
:102BB800022504E0032502E0042500E0062505FAC5
:102BC80002F24EEA02020237234D45F827204A68EE
:102BD80012F4803F05D005F580652A681A432A60FB
:102BE80004E01F4D2A6822EA03022A604A6812F4A8
:102BF800003F04D01A4D6A681A436A6004E0184D11
:102C08006A6822EA03026A604A6812F4801F04D0E4
:102C1800134DAA681A43AA6004E0114DAA6822EA73
:102C28000302AA604A6812F4001F04D00C4DEA6837
:102C38001343EB6004E00A4DEA6822EA0303EB6001
:102C480001340F2C7FF61DAF03B0F0BD000021103A
:102C5800000031100010024000000140000801404F
:102C6800000401408368194201D001207047002008
:102C7800704700BF0AB101617047090401617047DC
:102C8800C3685940C160704770B582B00446036894
:102C980013F0010F5CD03E4BDB6913F0805F0BD162
:102CA8003B4BDA6942F08052DA61DB6903F080530A
:102CB8000193019B012600E00026364B1B6813F4A4
:102CC800807F12D1334A136843F48073136000F095
:102CD80097F8054604E000F093F8401B64284FD8A5
:102CE8002C4B1B6813F4807FF5D0294B1B6A13F417
:102CF800407321D0626802F4407293421CD0244A87
:102D0800136A23F44070244901250D6000250D60E5
:102D1800106213F0010F0FD000F072F8054606E0BC
:102D280000F06EF8401B41F2883398422AD8184BBD
:102D38001B6A13F0020FF3D015490B6A23F4407293
:102D4800636813430B621EB1CB6923F08053CB61D8
:102D5800236813F0020F06D00D494B6823F4404254
:102D6800A36813434B60236813F0100F0CD0084975
:102D78004B6823F48002636913434B60002004E02E
:102D8800032002E0032000E0002002B070BD00BF75
:102D9800001002400070004040044242704700BFEB
:102DA80010B50446074B1B680748A0FB0330800991
:102DB800FFF736FE002221464FF0FF30FFF7F2FD05
:102DC800002010BD64000020D34D621008B5074AEA
:102DD800136843F0100313600320FFF7D1FD0020B0
:102DE800FFF7DEFFFFF7DAFF002008BD00200240F2
:102DF800024A136801331360704700BFE0000020E7
:102E0800014B1868704700BFE000002030B583B060
:102E18000190FFF7F5FF0546019CB4F1FF3F00D094
:102E28000134FFF7EDFF401BA042FAD303B030BDD9
:102E3800704700BF70B483B00023019390F824302A
:102E4800012B00F08880012380F824304B68062B82
:102E58000ED80668756B03EB8303053B1F249C4063
:102E680025EA04040A6802FA03F3234373631EE0A5
:102E78000C2B0ED805682A6B03EB8303233B1F2416
:102E88009C4022EA04040A6802FA03F323432B63F2
:102E98000DE00568EA6A03EB8303413B1F249C406D
:102EA80022EA04040A6802FA03F32343EB620B687C
:102EB800092B0ED90668F56803EB43031E3B07246C
:102EC8009C4025EA04048A6802FA03F32343F3606A
:102ED8000CE00668356903EB430307249C4025EAA8
:102EE80004048A6802FA03F3234333610B68103B36
:102EF800012B26D803681A4A93421CD19A6812F407
:102F0800000F20D19A6842F400029A600B68102BD7
:102F18001BD1144B1B68144AA2FB03239B0C03EB25
:102F280083035A00019202E0019B013B0193019B3C
:102F3800002BF9D10AE0836A43F02003836201235E
:102F480004E0002302E0002300E00023002280F8D0
:102F58002420184600E0022003B070BC704700BF70
:102F6800002401406400002083DE1B4330B583B099
:102F78000023019303689A6812F0010F2FD19A6811
:102F880042F001029A60174B1B68174AA2FB032301
:102F98009B0C019302E0019B013B0193019B002BD9
:102FA800F9D10446FFF72CFF054611E0FFF728FF8B
:102FB800401B02280CD9A36A43F01003A362E36AFA
:102FC80043F00103E362002384F82430012007E082
:102FD80023689B6813F0010FE8D0002000E0002070
:102FE80003B030BD6400002083DE1B4390F824301A
:102FF800012B71D010B50446012380F82430FFF767
:10300800B5FF0346002863D1A26A22F4407222F079
:10301800010242F48072A262226830498A4205D1D4
:10302800A1F58061496811F4702F0ED1A16A21F4CD
:103038008011A162516811F4806F1CD0A16A21F43B
:10304800405141F48051A16215E0A16A41F4801118
:10305800A16223498A4203D001F580618A420AD1DC
:103068001F49496811F4806F05D0A16A21F44051C5
:1030780041F48051A162A16A11F4805F04D0E16A31
:1030880021F00601E16201E00021E162002184F8FB
:1030980024106FF0020111602268916801F4602128
:1030A800B1F5602F0ED10D498A4205D1A1F5806195
:1030B800496811F4702F05D1916841F4A00191601D
:1030C800184610BD916841F480119160184610BDF2
:1030D800002284F8242010BD0220704700280140F7
:1030E8000024014038B503689A6812F0010F1ED019
:1030F80004469A6822F001029A60FFF781FE0546AD
:103108000EE0FFF77DFE401B022809D9A36A43F0B1
:103118001003A362E36A43F00103E362012038BDB0
:1031280023689B6813F0010FEBD1002038BD002005
:1031380038BD00BF002800F0888070B50446836A57
:1031480023B9C36280F82430FFF772FE2046FFF7E8
:10315800C9FFA36A13F0100F71D100286FD1A36AB9
:1031680023F4885323F0020343F00203A362636845
:103178002168374A914206D1E269B2F5402F03D15E
:103188004FF4002200E0E2691343E56843EA45038F
:10319800A268B2F5807F04D0012A05D14FF4807669
:1031A80003E04FF4807600E000266269012A0FD11F
:1031B80035B9A269013A46EA423242F4006607E0AC
:1031C800A26A42F02002A262E26A42F00102E262CE
:1031D8004A6822F4694232434A6021688D681D4A70
:1031E8002A401A438A60A268B2F5807F01D0012A7A
:1031F80003D12269013A110500E000212568EA6A35
:1032080022F470020A43EA6222689168124A0A406C
:10321800934208D10023E362A36A23F0030343F037
:103228000103A36270BDA36A23F0120343F01003E5
:10323800A362E36A43F00103E362012070BDA36A5D
:1032480043F01003A362012070BD0120704700BF46
:10325800003C0140FDF7E1FFFE0E1FFF0268D36846
:1032680023F0C003D360202380F83930704700BFB3
:103278000268D36823F49073D3600268536923F01B
:1032880001035361202380F83A3070472DE9F84351
:10329800814601680B6923F44052C36813430B61EC
:1032A800816803691943436919430068C26822F4B5
:1032B800B05323F00C030B43C360D9F800104B69DB
:1032C80023F44072D9F8183013434B61D9F80050F1
:1032D8005B4B9D4259D1FFF737F800EB800000EBBC
:1032E8008000D9F80440A400B0FBF4F4554EA6FBC6
:1032F800043464092401FFF727F800EB800000EB91
:103308008000D9F804309B00B0FBF3F7FFF71CF8F6
:1033180000EB800000EB8000D9F804309B00B0FB84
:10332800F3F3A6FB03235B094FF0640808FB137350
:103338001B013233A6FB03235B0903F0F0031C4493
:10334800FFF702F800EB800000EB8000D9F80430AA
:103358009B00B0FBF3F7FEF7F7FF00EB800000EBF4
:103368008000D9F804309B00B0FBF3F3A6FB0323DD
:103378005B0908FB13731B013233A6FB0323C3F35A
:1033880043131C44AC60BDE8F883FEF7CDFF00EBA7
:10339800800000EB8000D9F80440A400B0FBF4F4EE
:1033A800284EA6FB043464092401FEF7BDFF00EB98
:1033B800800000EB8000D9F804309B00B0FBF3F7E5
:1033C800FEF7B2FF00EB800000EB8000D9F8043074
:1033D8009B00B0FBF3F3A6FB03235B094FF06408E3
:1033E80008FB13731B013233A6FB03235B0903F0AD
:1033F800F0031C44FEF798FF00EB800000EB800010
:10340800D9F804309B00B0FBF3F7FEF78DFF00EB13
:10341800800000EB8000D9F804309B00B0FBF3F388
:10342800A6FB03235B0908FB13731B013233A6FBBE
:103438000323C3F343131C44AC60BDE8F88300BF07
:10344800003801401F85EB51704700BF68B310B5C5
:10345800044690F8393013F0FF0F04D1002380F8A8
:103468003830FFF7F1FF242384F839302268D36815
:1034780023F40053D3602046FFF708FF226813693E
:1034880023F4904313612268536923F02A0353619C
:103498002268D36843F40053D3600020E0632023FC
:1034A80084F8393084F83A3010BD0120704700BFE5
:1034B80030B583B090F83A40E4B2202C3DD10029D1
:1034C8003DD0002A3DD090F83830012B3BD0134630
:1034D8000A460446012180F8381082628385002557
:1034E800C563222180F83A10416B18488862616BE5
:1034F8001748C862616B17480863616B4D632168A0
:103508000431606B00F0E4F8019523681A680192B1
:103518005A680192019A84F83850DA6842F4807245
:10352800DA602268536943F00103536122685369E2
:1035380043F040035361284606E0022004E00120DE
:1035480002E0012000E0022003B030BD653500082C
:10355800A9350008B9350008704700BF08B5436AA7
:103568000268126812F0200F13D10022DA85196858
:10357800CA6822F48072CA6019684A6922F0010296
:103588004A6119684A6922F040024A61202283F898
:103598003A201846FFF7E0FF08BD00BF704700BF9C
:1035A80008B5406AFFF7FAFF08BD00BF704700BFC3
:1035B80010B5446A23685B6903F0800294F83930D7
:1035C800DBB2212B05D122B10023E3842046FFF78B
:1035D80045FE23685B6903F0400294F83A30DBB299
:1035E800222B05D122B10023E3852046FFF740FEB8
:1035F800E36B43F01003E3632046FFF7D7FF10BDEA
:1036080070B4C56B066C0124B4406C6004686360D8
:103618004368102B04D103689A600368D96003E0FB
:10362800036899600368DA6070BC704700283ED070
:1036380010B403460168204A91420AD81F4A0A4436
:103648001F49A1FB02121209920002641D4AC263BB
:1036580009E01D4A0A441A49A1FB02121209920004
:1036680002641A4AC263022283F821201C68226875
:1036780022F47F5121F0300158689A681043DA68C3
:1036880010431A6910435A6910439A691043DA695A
:1036980002430A43226000209862D8621863586384
:1036A8009863012283F8212083F8200001E001209B
:1036B800704710BC704700BF07040240F8FFFDBF09
:1036C800CDCCCCCC00000240F8FBFDBF000402408A
:1036D80038B590F82040012C32D0012480F82040E1
:1036E80090F82140012C26D10446022084F82100BC
:1036F8000020A0632568286820F001002860204683
:10370800FFF77EFFE36A2BB12268136843F00E03CC
:10371800136009E02268136823F004031360226829
:10372800136843F00A0313602268136843F0010327
:103738001360002038BD002380F82030022038BDF7
:10374800022038BD38B5C36B1A6804682568016C57
:1037580004238B401A4200F09D8015F0040F00F0FE
:103768009980236813F0200F03D1236823F0040302
:1037780023600368A84A934243D9783A934221D0F8
:103788001432934220D0143293421FD01432934201
:103798001FD0143293421FD0143293421FD01432D8
:1037A80093421FD002F5627293421ED014329342A4
:1037B8001DD0143293421CD0143293421CD14FF4C2
:1037C80080421BE0042219E0402217E04FF4806297
:1037D80014E04FF4804211E04FF480220EE04FF4E1
:1037E80080020BE04FF0806208E0042206E04022ED
:1037F80004E04FF4806201E04FF48022874B5A6066
:1038080042E0874A934221D01432934220D01432A6
:1038180093421FD0143293421FD0143293421FD0C8
:10382800143293421FD0143293421FD002F56272B1
:1038380093421ED0143293421DD0143293421CD0AE
:10384800143293421CD14FF480421BE0042219E049
:10385800402217E04FF4806214E04FF4804211E0F8
:103868004FF480220EE04FF480020BE04FF08062AC
:1038780008E0042206E0402204E04FF4806201E000
:103888004FF48022674B5A60C36A002B00F0C38054
:10389800984738BD02238B401A4200F0A18015F0EA
:1038A800020F00F09D80236813F0200F06D12368D3
:1038B80023F00A032360012380F821300368564A65
:1038C800934243D9783A934221D01432934220D07C
:1038D800143293421FD0143293421FD014329342B1
:1038E8001FD0143293421FD0143293421FD002F5D6
:1038F800627293421ED0143293421DD01432934206
:103908001CD0143293421CD14FF400521BE0022207
:1039180019E0202217E04FF4007214E04FF400522F
:1039280011E04FF400320EE04FF400120BE04FF0BC
:10393800007208E0022206E0202204E04FF4007240
:1039480001E04FF40032354B5A6042E0344A93426A
:1039580021D01432934220D0143293421FD0143213
:1039680093421FD0143293421FD0143293421FD077
:10397800143293421FD002F5627293421ED0143261
:1039880093421DD0143293421CD0143293421CD15E
:103998004FF400521BE0022219E0202217E04FF4F6
:1039A800007214E04FF4005211E04FF400320EE0C0
:1039B8004FF400120BE04FF0007208E0022206E01C
:1039C800202204E04FF4007201E04FF40032154B5E
:1039D8005A60002380F82030836AE3B1984738BDE5
:1039E800082303FA01F10A4215D015F0080F12D086
:1039F800236823F00E032360C16B026C012303FAD2
:103A080002F24A60836380F82130002380F8203076
:103A1800036B03B1984738BD8000024000040240A0
:103A280008000240000002400F4B1A6842F00102F1
:103A38001A6059680D4A0A405A601A6822F084725E
:103A480022F480321A601A6822F480221A605A68B6
:103A580022F4FE025A604FF41F029A604FF000628F
:103A6800034B9A60704700BF001002400000FFF847
:103A780000ED00E0F0B589B03E4EF36943F4003341
:103A8800F361F36903F400330093009B06220521D8
:103A98001020FEF787FF1020FEF7B6FF072205214A
:103AA8001120FEF77FFF1120FEF7AEFF324D334B9A
:103AB8002B604FF496436B600024AC60EC602C6183
:103AC8000C236B61AC612846FFF7C0FC736943F0B7
:103AD80001037361736903F001030193019BB369E7
:103AE80043F00403B361B36903F004030293029B38
:103AF800F36943F40033F361F36903F40033039388
:103B0800039B0123069304230493022305930323B1
:103B18000793A6F5843604A93046FEF7ADFF0823BF
:103B28000493059404A93046FEF7A6FF144E154BDE
:103B380033607460B4608027F76034617461202357
:103B4800B361F4613046FFF771FD6E6375620E4E26
:103B58000E4B336010237360B460F7603461746196
:103B6800B461F4613046FFF761FD2E63756209B0F8
:103B7800F0BD00BF00100240FC02002000440040DD
:103B8800E40000206C000240A402002080000240F3
:103B980030B597B01F4BDA6942F48022DA61DA69EE
:103BA80002F480220092009A5A6942F001025A6196
:103BB8005B6903F001030193019B174D06954FF4D0
:103BC800E13307930024089409940A9408230B937B
:103BD8000C940D9406A8FFF739FC6B6943F0800339
:103BE8006B614FF4806302930123049302230393D0
:103BF8000323059302A90948FEF73EFF084B1C6002
:103C0800084A9A605C6090221A6070221C3B5A60D5
:103C180017B030BD0010024000480040000C0140C1
:103C28001C000240044800402DE9F04F89B07B4B4E
:103C38009A6942F004029A619A6902F004020192B8
:103C4800019A9A6942F008029A619A6902F0080298
:103C58000292029A9A6942F010029A619B6903F0F3
:103C680010030393039B00230593069302270797EA
:103C78004FF0200A0DEB0A0444F810AD21466848BD
:103C8800FEF7FAFE4023049321466548FEF7F4FE4A
:103C98008025049521466248FEF7EEFE4FF48063C6
:103CA800049321465F48FEF7E7FE4FF40063049350
:103CB80021465C48FEF7E0FE4FF480560496214604
:103CC8005848FEF7D9FE049621465748FEF7D4FE19
:103CD800049721465448FEF7CFFE4FF00108CDF86F
:103CE80014804FF00409CDF8109021464C48FEF797
:103CF800C3FE1026049621464B48FEF7BDFECDF8BC
:103D080010A021464848FEF7B7FE03230593CDF8D7
:103D1800108021464348FEF7AFFECDF810802146BB
:103D28004148FEF7A9FE4FF0080BCDF810B0214628
:103D38003C48FEF7A1FE049721463A48FEF79CFE50
:103D4800049621463748FEF797FECDF810A0214685
:103D58003448FEF791FECDF8109021463148FEF721
:103D68008BFECDF810B021462F48FEF785FECDF822
:103D7800109021462C48FEF77FFE059740230493B8
:103D880021462848FEF778FE049521462548FEF787
:103D980073FE4FF48079CDF8109021462148FEF744
:103DA8006BFE049521462048FEF766FECDF810808C
:103DB80021461B48FEF760FE049721461848FEF787
:103DC8005BFECDF8109021461748FEF755FE4FF4DC
:103DD8000073049321461448FEF74EFE4FF48063A7
:103DE800049321461048FEF747FE4FF4005304930E
:103DF80021460B48FEF740FE4FF4804304932146CA
:103E08000748FEF739FE4FF400430493214604485F
:103E1800FEF732FE09B0BDE8F08F00BF0010024087
:103E2800000C014000100140000801402DE9F04F4E
:103E380099B0754B9A6942F400629A619A6902F4E2
:103E480000620192019A9A6942F400529A619B6950
:103E580003F400530293029B6C4EDFF8B891C6F846
:103E68000090002474604FF02008C6F808804FF4D2
:103E7800FA6BC6F80CB034617461B4613046FEF771
:103E8800E3FB10231693179416A93046FEF71AFD84
:103E980060230F9310941194082712971394149485
:103EA8004FF40073159322460FA93046FEF720FC05
:103EB80004220FA93046FEF71BFC3A460FA93046EC
:103EC800FEF716FC4FF4006308934FF480630993E0
:103ED8000A94CDF82C800C940D940E940DEB0801E7
:103EE8003046FEF7C3FC4A4DDFF82CA1C5F800A008
:103EF8006C60C5F80880C5F80CB02C616C61AC61C9
:103F08002846FEF7A1FBCDF858808023179316A901
:103F18002846FEF7D7FC049418A9052341F8543D18
:103F28002846FEF725FB60230F93109411941297EF
:103F3800139414944FF40073159322460FA928463E
:103F4800FEF7D6FB04220FA92846FEF7D1FB3A4616
:103F58000FA92846FEF7CCFB4FF4006308934FF4F3
:103F6800806309930A94CDF82C800C940D940E94D8
:103F78000DEB08012846FEF779FCDAF8443023F403
:103F88000043CAF84430D9F8443023F40043C9F850
:103F9800443021462846FEF727FC04212846FEF730
:103FA80023FC39462846FEF71FFC21462846FEF723
:103FB8004BFC04212846FEF747FC39462846FEF705
:103FC80043FC21463046FEF70FFC04213046FEF73D
:103FD8000BFC39463046FEF707FC21463046FEF713
:103FE80033FC04213046FEF72FFC39463046FEF7F5
:103FF8002BFC2B6801221A633268136843F0010313
:10400800136019B0BDE8F08F00100240AC01002029
:104018003C030020002C0140003401402DE9F0430E
:1040280087B0414EB36943F40073B361B36903F4D5
:1040380000730093009B3D4C3D4B23604FF480730D
:10404800A3600025E56065614FF44023E361656086
:104058004FF00508C4F810802046FFF76BF8354A82
:10406800536843F48023536006A94FF4C02341F8F2
:10407800043D2046FEF750FC012304930E220292D1
:10408800039302A92046FEF7D5FE0295022703975F
:1040980002A92046FEF7CEFE04970B2702970323BA
:1040A800039302A92046FEF7C5FE4FF00C09CDF890
:1040B80008900423039302A92046FEF7BBFECDF81F
:1040C8000890CDF80C8002A92046FEF7B3FE2368BD
:1040D8009A6842F480729A609A6842F001029A6083
:1040E800736943F001037361736903F0010301937A
:1040F800019B114B1D60C3F80480104A9A60104A56
:10410800DA6040F6A2221A601A6842F001021A60C8
:104118002A4629463846FEF745FC3846FEF774FC21
:1041280007B0BDE8F08300BF001002407402002011
:104138000024014000000140080002404C240140D6
:10414800E8020020F0B585B0274B9A6942F48062F6
:104158009A619B6903F480630093009B234C244B72
:1041680023604FF48073A3600023E36063614FF41E
:104178006022E2616360052626612046FEF7DAFFC9
:10418800012303930F220192029301A92046FEF70F
:1041980051FE0D2301930225029501A92046FEF741
:1041A80049FE03950A2301930327029701A9204694
:1041B800FEF740FE0195042302930DEB0301204610
:1041C800FEF738FE0197029601A92046FEF732FE57
:1041D80023689A6842F480729A609A6842F00102F1
:1041E8009A6005B0F0BD00BF001002402801002011
:1041F8000028014030B597B002250C950123109393
:10420800102311931395002414944FF460131593FD
:104218000CA8FDF789FD0F230793089509944FF41F
:1042280080630A930B94294607A8FDF7B5FF01950B
:104238004FF44043039301A8FEF726FDFEF76EF8FE
:10424800084BA3FB00308009FEF7EAFB0420FEF7C9
:10425800FDFB224621464FF0FF30FEF7A3FB17B0C7
:1042680030BD00BFD34D62102DE9F04F83B0FEF78B
:10427800ADFDC34CA36943F00103A361A36903F037
:1042880001030193019B0320FEF77AFB00221146EC
:104298006FF00B00FEF786FB002211466FF00A0054
:1042A800FEF780FB002211466FF00900FEF77AFB4B
:1042B800002211466FF00400FEF774FB002211463D
:1042C8006FF00300FEF76EFB002211466FF001004D
:1042D800FEF768FB002211464FF0FF30FEF762FB45
:1042E800FFF788FF636923F001036361FFF79CFC14
:1042F800FFF79CFDFFF792FEFFF724FFFFF748FC4E
:10430800012220219F48FEF7B5FC9F48FEF76EFE6C
:104318009E48FEF76BFE012405E09D4B1C7064204F
:10432800FEF774FD013C002CF7DA4FF0000A984BB9
:1043380083F800A0012204219648FEF79BFCFFF7B2
:1043480099FB042294499548FFF7B2F80122944B4F
:104358001A70D34601E0C346A2460520FEF756FD73
:104368008D4B1B881BB2B3F57A7F09DC8A4B1B88FF
:104378001BB213F57A7F06DB874B1D882DB203E04D
:104388004FF47A7500E0874D874B1D60824B5B8840
:104398001BB2B3F57A7F09DC7F4B5B881BB213F540
:1043A8007A7F06DB7C4B5C8824B203E04FF47A7496
:1043B80000E07C4C7D4B1C6000227D4B1A60DFF8CE
:1043C8000C92D9F80000FCF79DFF67A3D3E90023FE
:1043D800FCF7FEFF06460F462846FCF793FF64A34A
:1043E800D3E90023FCF7F4FF02460B463046394672
:1043F800FCF73CFEFDF786FA8046C9F800006D4DD3
:104408002868FCF77FFF58A3D3E90023FCF7E0FFF7
:1044180006460F462046FCF775FF55A3D3E900234F
:10442800FCF7D6FF02460B4630463946FCF71EFE1F
:10443800FDF768FA2860FCF765FF00225E4BFCF781
:10444800C7FF04460D464046FCF75CFF00225A4B66
:10445800FCF7BEFF06460F4602460B462046294695
:10446800FCF702FE804689460022544BFDF740FACD
:1044780068B941A3D3E9002340464946FDF71AFA33
:1044880040B940464946FDF73DFA804604E04FF4FE
:104498007A7801E0DFF80C8132463B46204629460F
:1044A800FCF7E4FD04460D460022444BFDF720FAD4
:1044B80068B931A3D3E9002320462946FDF7FAF964
:1044C80040B920462946FDF71DFA044603E04FF49B
:1044D8007A7400E0334C4146022000F05BFC214630
:1044E800032000F057FC0AF132039C4215DAAAF1C6
:1044F800320A544511DD0BF1320398450DDAABF160
:10450800320BD84509DD2A4B1B68042B05D8C8F1A6
:1045180000032B4A13602B4B1C6000F041FC022166
:104528001848FEF79FFB002852D000221C4B1A7037
:1045380002211448FEF796FB0028F9D10024144BF9
:104548001C70214B1C7005E0114B1C706420FEF799
:104558005DFC0134002CF7DD002220210948FEF71C
:1045680089FBFEE7AFF30080CDCCCCCCCCCCEC3FC4
:104578009A9999999999B93F0000000000408FC015
:1045880000100240000801407402002028010020A9
:10459800D0000020000C01407C030020FC02002019
:1045A800C800002018FCFFFF9803002084030020A7
:1045B80068000020900300200000E03F00408F408A
:1045C800D4000020CC000020B40000208803002084
:1045D800214B1D6821492846FDF768FB58B1204941
:1045E8002846FDF781FB30B105221E4B1A700822C0
:1045F8001D4B1A70AFE61A492846FDF757FB58B10C
:104608001A492846FDF770FB30B10522154B1A7080
:104618000122154B1A709EE614492846FDF746FB01
:1046280098B10024104B1C70114B1C7005E00D4B09
:104638001C706420FEF7EAFB0134072CF7DD00222A
:1046480020210C48FEF716FBFEE70023054A1370ED
:10465800054A13707FE600BF7C000020000010426E
:1046680000000442D0000020B40000200000F841FF
:10467800C8000020000801400222854B5A60854B83
:104688001B68B3F57A7F3ADA0133824A1360824AAB
:10469800938899B2814803680B4403EBD3735B108A
:1046A8000360D38899B27E4803680B4403EBD37345
:1046B8005B100360138899B27A4803680B4403EBD4
:1046C800D3735B100360538899B2774803680B442F
:1046D80003EBD3735B100360538999B27348036883
:1046E8000B4403EBD3735B10036013899AB27049D0
:1046F8000B68134403EBD3735B100B6070472DE911
:10470800F0416C4B1C886C4BA3FB04235B096422AF
:1047180002FB13439BB223BB684D2868FCF704FED9
:1047280053A3D3E90023FCF753FE06460F465A4B22
:10473800988980B2FDF714FAFCF7F6FD4EA3D3E989
:104748000023FCF745FE4EA3D3E90023FCF740FE07
:1047580002460B4630463946FCF788FCFDF7FAF866
:1047680028604D4B588980B2504B1D68401BFCF7A0
:10477800C9FD45A3D3E90023FCF72AFE0022002344
:10478800FDF798F880B1444B588980B2401BFCF77C
:10479800B9FD3DA3D3E90023FCF71AFE0022484BDC
:1047A800FDF788F8B8B90FE03B4B588980B2401B39
:1047B800FCF7A8FD34A3D3E90023FCF709FE002287
:1047C800404BFDF795F830B93F4B1B68052B02D8D5
:1047D8003E4B1B782BB93E4A536C23F40043536479
:1047E80004E03B4A536C43F4004353642A4B188952
:1047F80080B22F4B1D68401BFCF784FD22A3D3E930
:104808000023FCF7E5FD00220023FDF753F880B1F3
:10481800214B188980B2401BFCF774FD1AA3D3E919
:104828000023FCF7D5FD0022254BFDF743F8C0B95E
:104838000FE0194B188980B2401BFCF763FD12A3E7
:10484800D3E90023FCF7C4FD00221E4BFDF750F806
:1048580038B91D4B1B68052B03D81C4B1B78002B44
:104868003AD11C4A536C23F40043536439E000BF27
:104878002B8716D9CEF7EF3FF5E4E827181C9B3FA6
:10488800FCA9F1D24D62503F7B14AE47E17A943FC8
:1048980000000240B0000020E80200207000002064
:1048A8006C000020780000207400002080000020A8
:1048B80084000020D80000201F85EB517C000020D8
:1048C80000002EC000002E4068000020C800002014
:1048D80000340140002C0140914A536C43F40043DA
:1048E8005364904A936813F0200F0CBF01210021F4
:1048F800936813F0400F0CBF01230023926812F055
:10490800800F0CBF01250025874A906810F4806F3E
:104918000CBF01200020966816F4006F0CBF012719
:104928000027926812F4805F03EB450301EB430311
:10493800DBB27E4EF35C7E490B600B6803F1020329
:104948000B600D687B4B83FB05E2A2EBE57202EB83
:1049580042024FEA420ECEEB05020A600CBF022269
:1049680000223A4400EB4202D2B2B05C724A1060B4
:10497800106802301060106883FB0053A3EBE073EB
:1049880003EB43035D00431B136009686B4883888E
:104998009BB26B4A12689A1AC3889BB2694800682E
:1049A8001B1A052918D8DFE801F003070A0D1013B0
:1049B800D31A654A136012E0634B1A600FE0624B2A
:1049C8001A600CE0604A136009E05F4A136006E071
:1049D8009B1A5D4A136002E000225B4B1A600134A7
:1049E800A4B25A4B1C805A4B1878A8B1594BA3FB58
:1049F80004231B0B584A1278013293FBF2F102FB95
:104A080011334BB994FBF0F300FB13444CB910215C
:104A18005248FEF735F904E0002210214F48FEF70E
:104A280029F94F4B1C68424B1B68052B1ED8DFE841
:104A380003F003070B0F1318C4F1000E002519E04B
:104A480065424FF0000E15E06542A646002411E0CD
:104A5800A646644200250DE0254664424FF0000E4C
:104A680008E0C4F1000E2546002403E04FF0000ED4
:104A7800744675463B4B1A682F4B1B68052B1AD892
:104A8800DFE803F00306090D11155642002115E071
:104A98005142002612E05142164600220EE0164608
:104AA800524200210AE011465242002606E05642D0
:104AB8001146002202E0002632463146284B1B6888
:104AC800002B53DD284B1868194B1F680537194B05
:104AD80083FB07C3A3EBE77303EB43034FEA430CE2
:104AE800CCEB0703052B70D8DFE803F00306090DAC
:104AF8001115434200276EE0474200236BE047420E
:104B08000346002067E003464042002763E007466B
:104B1800404200235FE04342074600205BE000BFBD
:104B2800002C0140000C014000100140EC4E000830
:104B3800BC000020ABAAAA2AC4000020E80200207A
:104B4800700000206C000020DC000020D80000204D
:104B5800D00000205917B7D1B40000200008014048
:104B6800CC000020D4000020B8000020814B1F6832
:104B78007842814B1B6803F1010C804B83FB0C834B
:104B8800A3EBEC7303EB43034FEA4308C8EB0C03B6
:104B9800052B04D8DFE803F01D07090C10150023C6
:104BA80018461F4617E0002315E00346002012E0D0
:104BB8000346384600270EE03B46074618460023C2
:104BC80009E03B460746002005E0002318461F463B
:104BD80001E03B4600273D44044403EB0E00684BCC
:104BE8001B68002B35DD674BD3F800E0664B1F6868
:104BF8000537624B83FB07C3A3EBE77303EB430360
:104C08004FEA430CCCEB0703052B54D8DFE803F03D
:104C180003070B11161BCEF10003002751E0CEF15C
:104C2800000700234DE0CEF1000773464FF0000E59
:104C380047E07346CEF1000E002742E07746CEF1FA
:104C4800000E00233DE0CEF1000377464FF0000E42
:104C580037E04C4B1F68C7F1000E4B4B1B6803F144
:104C6800010C464B83FB0C83A3EBEC7303EB430370
:104C78004FEA4308C8EB0C03052B04D8DFE803F020
:104C88001F07090D111600239E461F4619E0002331
:104C980017E073464FF0000E13E07346BE46002738
:104CA8000FE03B4677469E4600230AE03B467746A0
:104CB8004FF0000E05E000239E461F4601E03B46EC
:104CC800002739447244334405F57A7540F2C676B4
:104CD800B54203DC0A2DB8BF0A2501E040F2C675CB
:104CE8002A4E756304F57A7440F2C675AC4203DC4B
:104CF8000A2CB8BF0A2401E040F2C674234DAC6305
:104D080000F57A7040F2C674A04203DC0A28B8BFE6
:104D18000A2001E040F2C6701C4CE06301F57A718C
:104D280040F2C670814203DC0A29B8BF0A2101E0BB
:104D380040F2C6711648416302F57A7240F2C671B4
:104D48008A4203DC0A2AB8BF0A2201E040F2C6728E
:104D58000F498A6303F57A7340F2C672934203DC03
:104D68000A2BB8BF0A2301E040F2C673084AD3638E
:104D7800BDE8F081B8000020BC000020ABAAAA2A38
:104D8800D4000020C0000020C400002000340140EE
:104D9800002C0140014B23F810107047000400203C
:104DA80030B583B0144C642200212046FBF792FAF8
:104DB80012490A884B88888800B2C98809B20191CB
:104DC80000901BB212B20E492046FBF7F3FA0D4BC6
:104DD8005B6873B90B4C236823F001032360064D0D
:104DE8002846FBF70DFB6060E560236843F001038C
:104DF800236003B030BD00BF9C03002000040020E6
:104E0800F44E00081C000240704700BFFEE700BFD8
:104E1800FEE700BFFEE700BFFEE700BF704700BF28
:104E2800704700BF704700BF08B5FDF7E1FFFDF709
:104E38001FFE08BD08B50248FEF784FC08BD00BF88
:104E4800E400002008B50248FEF77CFC08BD00BF5E
:104E5800A4020020002103E00B4B5B5843500431AF
:104E68000A480B4B42189A42F6D30A4A02E000233A
:104E780042F8043B084B9A42F9D3FEF7D5FDFBF7FD
:104E880001FAFFF7F1F970474C4F000800000020C5
:104E9800880000208800002014040020FEE700009D
:104EA800F8B500BFF8BC08BC9E467047F8B500BF0F
:084EB800F8BC08BC9E467047DF
:104EC00002030405060708090A0B0C0D0E0F10104B
:104ED00001020000000000000000000001020304C5
:104EE0000607080900000000010203040000020197
:104EF0000405030025693B25693B25693B25690AB3
:104F00000D00000043000000232D302B2000000086
:104F1000686C4C00656667454647000030313233A7
:104F200034353637383941424344454600000000A5
:104F3000303132333435363738396162636465660F
:044F4000000000006D
:044F4400550200080A
:044F48002D0200082E
:104F4C000400002000000000000000000000000031
:104F5C000000000000000000000000000000000045
:104F6C0000000000044F00080000000000000000DA
:104F7C000000000000000000000000000000000025
:104F8C000000000000000000000000000000000015
:104F9C000000000000000000000000000000000005
:104FAC000000000000A24A0464000000D0070000CA
:104FBC00D0070000D0070000D007000000002042FE
:084FCC00D0070000D00700002F
:0400000508004E5D44
:00000001FF
