:020000040800F2
:1000000000C00020F5390008C9390008CD390008C2
:10001000D1390008D5390008D9390008000000009E
:10002000000000000000000000000000DD390008B2
:10003000E139000800000000E5390008E93900084E
:100040003D3A00083D3A00083D3A00083D3A0008B4
:100050003D3A00083D3A00083D3A00083D3A0008A4
:100060003D3A00083D3A00083D3A000839320008A0
:100070003D3A00083D3A00083D3A00083D3A000884
:100080003D3A00083D3A00083D3A00083D3A000874
:100090003D3A00083D3A00083D3A00083D3A000864
:1000A0003D3A00083D3A00083D3A00083D3A000854
:1000B0003D3A00083D3A00083D3A00083D3A000844
:1000C0003D3A00083D3A00083D3A00083D3A000834
:1000D0003D3A00083D3A00083D3A00083D3A000824
:1000E0003D3A00083D3A00083D3A00083D3A000814
:1000F0003D3A00083D3A00083D3A00083D3A000804
:100100003D3A00083D3A00083D3A00083D3A0008F3
:100110003D3A00083D3A00083D3A00083D3A0008E3
:100120003D3A00083D3A00083D3A00083D3A0008D3
:1001300000000000000000000000000000000000BF
:1001400000000000000000000000000000000000AF
:10015000000000000000000000000000000000009F
:10016000000000000000000000000000000000008F
:10017000000000000000000000000000000000007F
:10018000000000000000000000000000000000006F
:10019000000000000000000000000000000000005F
:1001A000000000000000000000000000000000004F
:1001B000000000000000000000000000000000003F
:1001C000000000000000000000000000000000002F
:1001D000000000000000000000000000000000001F
:0401E0005FF8E0F1F3
:1001E800044B05481B1A062B02D9044B03B11847C8
:1001F800704700BF8B00002088000020000000002E
:1002080005490648091A891001EBD171491002D035
:10021800034B03B11847704788000020880000206E
:100228000000000010B5064C237843B9FFF7D8FF4B
:10023800044B13B10448AFF300800123237010BDB1
:100248008800002000000000F042000808B5084BB4
:100258001BB108480849AFF300800848036813B980
:10026800BDE80840CCE7064B002BF9D09847F7E7E4
:1002780000000000F04200088C00002088000020E8
:100288000000000081F0004102E000BF83F000435D
:1002980030B54FEA41044FEA430594EA050F08BF19
:1002A80090EA020F1FBF54EA000C55EA020C7FEADD
:1002B800645C7FEA655C00F0E2804FEA5454D4EB5A
:1002C8005555B8BF6D420CDD2C4480EA020281EA24
:1002D800030382EA000083EA010180EA020281EA5C
:1002E8000303362D88BF30BD11F0004F4FEA0131AE
:1002F8004FF4801C4CEA113102D0404261EB4101BD
:1003080013F0004F4FEA03334CEA133302D0524242
:1003180063EB430394EA050F00F0A780A4F10104FE
:10032800D5F1200E0DDB02FA0EFC22FA05F2801838
:1003380041F1000103FA0EF2801843FA05F359411E
:100348000EE0A5F120050EF1200E012A03FA0EFC9D
:1003580028BF4CF0020C43FA05F3C01851EBE371C7
:1003680001F0004507D54FF0000EDCF1000C7EEBE4
:1003780000006EEB0101B1F5801F1BD3B1F5001F22
:100388000CD349085FEA30004FEA3C0C04F1010441
:100398004FEA445212F5800F80F09A80BCF1004F6A
:1003A80008BF5FEA500C50F1000041EB045141EAEC
:1003B800050130BD5FEA4C0C404141EB010111F4ED
:1003C800801FA4F10104E9D191F0000F04BF014698
:1003D8000020B1FA81F308BF2033A3F10B03B3F176
:1003E80020020CDA0C3208DD02F1140CC2F10C0206
:1003F80001FA0CF021FA02F10CE002F11402D8BF64
:10040800C2F1200C01FA02F120FA0CFCDCBF41EA2F
:100418000C019040E41AA2BF01EB0451294330BDFE
:100428006FEA04041F3C1CDA0C340EDC04F11404DB
:10043800C4F1200220FA04F001FA02F340EA0300B2
:1004480021FA04F345EA030130BDC4F10C04C4F1F8
:10045800200220FA02F001FA04F340EA03002946D8
:1004680030BD21FA04F0294630BD94F0000F83F422
:10047800801306BF81F480110134013D4EE77FEA05
:10048800645C18BF7FEA655C29D094EA050F08BF51
:1004980090EA020F05D054EA000C04BF1946104632
:1004A80030BD91EA030F1EBF0021002030BD5FEA76
:1004B800545C05D14000494128BF41F0004130BD9E
:1004C80014F580043CBF01F5801130BD01F00045F2
:1004D80045F0FE4141F470014FF0000030BD7FEA65
:1004E800645C1ABF194610467FEA655C1CBF0B4660
:1004F800024650EA013406BF52EA033591EA030F77
:1005080041F4002130BD00BF90F0000F04BF00216E
:10051800704730B54FF4806404F132044FF00005A1
:100528004FF0000150E700BF90F0000F04BF00211A
:10053800704730B54FF4806404F1320410F0004580
:1005480048BF40424FF000013EE700BF42004FEA7B
:10055800E2014FEA31014FEA02701FBF12F07F43F8
:1005680093F07F4F81F06051704792F0000F14BFF5
:1005780093F07F4F704730B54FF4607401F0004539
:1005880021F0004120E700BF50EA010208BF704790
:1005980030B54FF000050AE050EA010208BF704785
:1005A80030B511F0004502D5404261EB41014FF4EE
:1005B800806404F132045FEA915C3FF4DCAE4FF0F2
:1005C80003025FEADC0C18BF03325FEADC0C18BFD9
:1005D800033202EBDC02C2F1200300FA03FC20FA2A
:1005E80002F001FA03FE40EA0E0021FA02F1144477
:1005F800C1E600BF70B54FF0FF0C4CF4E06C1CEA8C
:1006080011541DBF1CEA135594EA0C0F95EA0C0F00
:1006180000F0DEF82C4481EA030621EA4C5123EA73
:100628004C5350EA013518BF52EA033541F48011A2
:1006380043F4801338D0A0FB02CE4FF00005E1FB55
:1006480002E506F00042E0FB03E54FF00006E1FB9F
:1006580003569CF0000F18BF4EF0010EA4F1FF04E2
:10066800B6F5007F64F5407404D25FEA4E0E6D4122
:1006780046EB060642EAC62141EA55514FEAC52033
:1006880040EA5E504FEACE2EB4F1FD0C88BFBCF5AF
:10069800E06F1ED8BEF1004F08BF5FEA500E50F160
:1006A800000041EB045170BD06F0004646EA010126
:1006B80040EA020081EA0301B4EB5C04C2BFD4EB58
:1006C8000C0541EA045170BD41F480114FF0000E51
:1006D800013C00F3AB8014F1360FDEBF002001F0BF
:1006E800004170BDC4F10004203C35DA0C341BDC39
:1006F80004F11404C4F1200500FA05F320FA04F00B
:1007080001FA05F240EA020001F0004221F000413E
:1007180010EBD37021FA04F642EB06015EEA430EB1
:1007280008BF20EAD37070BDC4F10C04C4F12005E1
:1007380000FA04F320FA05F001FA04F240EA020094
:1007480001F0004110EBD37041F100015EEA430E65
:1007580008BF20EAD37070BDC4F1200500FA05F285
:100768004EEA020E20FA04F301FA05F243EA020304
:1007780021FA04F001F0004121FA04F220EA020013
:1007880000EBD3705EEA430E08BF20EAD37070BD59
:1007980094F0000F0FD101F00046400041EB010139
:1007A80011F4801F08BF013CF7D041EA060195F01B
:1007B800000F18BF704703F00046520043EB0303D5
:1007C80013F4801F08BF013DF7D043EA06037047C2
:1007D80094EA0C0F0CEA135518BF95EA0C0F0CD0CD
:1007E80050EA410618BF52EA4306D1D181EA030113
:1007F80001F000414FF0000070BD50EA410606BF0D
:100808001046194652EA430619D094EA0C0F02D151
:1008180050EA013613D195EA0C0F05D152EA033696
:100828001CBF104619460AD181EA030101F00041B4
:1008380041F0FE4141F470014FF0000070BD41F0FD
:10084800FE4141F4780170BD70B54FF0FF0C4CF4D7
:10085800E06C1CEA11541DBF1CEA135594EA0C0FF6
:1008680095EA0C0F00F0A7F8A4EB050481EA030E43
:1008780052EA03354FEA013100F088804FEA03332A
:100888004FF0805545EA131343EA12634FEA0222F8
:1008980045EA111545EA10654FEA00260EF00041B9
:1008A8009D4208BF964244F1FD0404F5407402D20B
:1008B8005B084FEA3202B61A65EB03055B084FEA9C
:1008C80032024FF480104FF4002CB6EB020E75EB99
:1008D800030E22BFB61A754640EA0C005B084FEAC1
:1008E8003202B6EB020E75EB030E22BFB61A75463E
:1008F80040EA5C005B084FEA3202B6EB020E75EB89
:10090800030E22BFB61A754640EA9C005B084FEA00
:100918003202B6EB020E75EB030E22BFB61A75460D
:1009280040EADC0055EA060E18D04FEA051545EAFC
:1009380016754FEA06164FEAC30343EA52734FEAA5
:10094800C2025FEA1C1CC0D111F4801F0BD141EA1E
:1009580000014FF000004FF0004CB6E711F4801F83
:1009680004BF01430020B4F1FD0C88BFBCF5E06F63
:100978003FF6AFAEB5EB030C04BFB6EB020C5FEA73
:10098800500C50F1000041EB045170BD0EF0004EC8
:100998004EEA113114EB5C04C2BFD4EB0C0541EAFA
:1009A800045170BD41F480114FF0000E013C90E6F7
:1009B80045EA060E8DE60CEA135594EA0C0F08BFBB
:1009C80095EA0C0F3FF43BAF94EA0C0F0AD150EABA
:1009D80001347FF434AF95EA0C0F7FF425AF10464D
:1009E80019462CE795EA0C0F06D152EA03353FF475
:1009F800FDAE1046194622E750EA410618BF52EAF2
:100A080043067FF4C5AE50EA41047FF40DAF52EAC5
:100A180043057FF4EBAE12E74FF0FF3C06E000BF62
:100A28004FF0010C02E000BF4FF0010C4DF804CD6F
:100A38004FEA410C7FEA6C5C4FEA430C18BF7FEA2F
:100A48006C5C1BD001B050EA410C0CBF52EA430C5D
:100A580091EA030F02BF90EA020F0020704710F1DD
:100A6800000F91EA030F58BF994208BF90422CBF6C
:100A7800D8176FEAE37040F0010070474FEA410C65
:100A88007FEA6C5C02D150EA013C07D14FEA430C83
:100A98007FEA6C5CD6D152EA033CD3D05DF8040BF4
:100AA800704700BF8446104662468C461946634626
:100AB80000E000BF01B5FFF7B7FF002848BF10F1FD
:100AC800000F01BD4DF808EDFFF7F4FF0CBF012042
:100AD80000205DF808FB00BF4DF808EDFFF7EAFFBE
:100AE80034BF012000205DF808FB00BF4DF808ED79
:100AF800FFF7E0FF94BF012000205DF808FB00BF6E
:100B08004DF808EDFFF7CEFF94BF012000205DF8F7
:100B180008FB00BF4DF808EDFFF7C4FF34BF012004
:100B280000205DF808FB00BF4FEA410212F50012F1
:100B380015D211D56FF47873B3EB625212D94FEA1C
:100B4800C12343F0004343EA505311F0004F23FA06
:100B580002F018BF404270474FF00000704750EA5B
:100B6800013005D111F0004008BF6FF00040704718
:100B78004FF00000704700BF4FEA4102B2F1E04376
:100B880024BFB3F5001CDCF1FE5C0DD901F0004C6C
:100B98004FEAC0024CEA5070B2F1004F40EB8300BC
:100BA80008BF20F00100704711F0804F21D113F1E8
:100BB8003872BCBF01F00040704741F480114FEA21
:100BC8005252C2F11802C2F1200C10FA0CF320FAAA
:100BD80002F018BF40F001004FEAC1234FEAD323C7
:100BE80003FA0CFC40EA0C0023FA02F34FEA430331
:100BF800CCE77FEA625307D150EA01331EBF4FF0BA
:100C0800FE4040F44000704701F0004040F0FE40D4
:100C180040F40000704700BF80F0004002E000BFD1
:100C280081F0004142001FBF5FEA410392EA030FCF
:100C38007FEA226C7FEA236C6AD04FEA1262D2EB19
:100C48001363C1BFD218414048404140B8BF5B421E
:100C5800192B88BF704710F0004F40F4000020F0B7
:100C68007F4018BF404211F0004F41F4000121F0CD
:100C78007F4118BF494292EA030F3FD0A2F1010217
:100C880041FA03FC10EB0C00C3F1200301FA03F155
:100C980000F0004302D5494260EB4000B0F5000F78
:100CA80013D3B0F1807F06D340084FEA310102F137
:100CB8000102FE2A51D2B1F1004F40EBC25008BFE9
:100CC80020F0010040EA03007047490040EB0000B3
:100CD80010F4000FA2F10102EDD1B0FA80FCACF1E2
:100CE800080CB2EB0C0200FA0CF0AABF00EBC250E1
:100CF80052421843BCBFD0401843704792F0000FCF
:100D080081F4000106BF80F400000132013BB5E721
:100D18004FEA41037FEA226C18BF7FEA236C21D097
:100D280092EA030F04D092F0000F08BF08467047FC
:100D380090EA010F1CBF0020704712F07F4F04D1CA
:100D4800400028BF40F00040704712F100723CBFDD
:100D580000F50000704700F0004343F0FE4040F407
:100D6800000070477FEA226216BF08467FEA2363C5
:100D78000146420206BF5FEA412390EA010F40F4B0
:100D8800800070474FF0000304E000BF10F00043FC
:100D980048BF40425FEA000C08BF704743F09643E3
:100DA80001464FF000001CE050EA010208BF7047FE
:100DB8004FF000030AE000BF50EA010208BF704785
:100DC80011F0004302D5404261EB41015FEA010C9A
:100DD80002BF84460146002043F0B64308BFA3F192
:100DE8008053A3F50003BCFA8CF2083AA3EBC25374
:100DF80010DB01FA02FC634400FA02FCC2F1200293
:100E0800BCF1004F20FA02F243EB020008BF20F0C9
:100E18000100704702F1200201FA02FCC2F120022F
:100E280050EA4C0021FA02F243EB020008BF20EA24
:100E3800DC7070474FF0FF3C06E000BF4FF0010C3C
:100E480002E000BF4FF0010C4DF804CD4FEA40021C
:100E58004FEA41037FEA226C18BF7FEA236C11D066
:100E680001B052EA530C18BF90EA010F58BFB2EB19
:100E7800030088BFC81738BF6FEAE17018BF40F099
:100E8800010070477FEA226C02D15FEA402C05D14D
:100E98007FEA236CE4D15FEA412CE1D05DF8040BD2
:100EA800704700BF844608466146FFE70FB5FFF765
:100EB800C9FF002848BF10F1000F0FBD4DF808ED1D
:100EC800FFF7F4FF0CBF012000205DF808FB00BF0E
:100ED8004DF808EDFFF7EAFF34BF012000205DF868
:100EE80008FB00BF4DF808EDFFF7E0FF94BF0120B5
:100EF80000205DF808FB00BF4DF808EDFFF7D2FFB2
:100F080094BF012000205DF808FB00BF4DF808EDF4
:100F1800FFF7C8FF34BF012000205DF808FB00BFC1
:100F280082B0084B1B68084AA2FB03235B0A00FB3C
:100F380003F0019000BF019B5A1E0192002BF9D1CA
:100F480002B0704700000020D34D621070B582B027
:100F58000446036813F0010F6BD0A84B5B6803F0DD
:100F68000C03042B0AD0A54B5B6803F00C03082B79
:100F78000DD1A24B5B6813F4803F08D09F4B1B68D0
:100F880013F4003F55D06368002B52D1B8E1636871
:100F9800B3F5803F05D1994A136843F48033136051
:100FA80026E063B903F1804303F504331A6822F499
:100FB80080321A601A6822F480221A6018E0B3F5A9
:100FC800A02F0CD103F18043A3F53C331A6842F4F7
:100FD80080221A601A6842F480321A6008E0874B4F
:100FE8001A6822F480321A601A6822F480221A6081
:100FF80063687BB101F01CF8054605E001F018F8BC
:10100800401B642800F27E817C4B1B6813F4003F70
:10101800F4D00EE001F00CF8054605E001F008F800
:10102800401B642800F27081744B1B6813F4003F66
:10103800F4D1236813F0020F50D0704B5B6813F0A3
:101048000C0F0AD06D4B5B6803F00C03082B16D10C
:101058006A4B5B6813F4803F11D1684B1B6813F02F
:10106800020F03D02369012B40F05081634A1368B3
:1010780023F0F803616943EAC10313602EE0236992
:10108800D3B101225E4B1A6000F0D2FF054605E09D
:1010980000F0CEFF401B022800F23A81574B1B6834
:1010A80013F0020FF4D0554A136823F0F80361696E
:1010B80043EAC103136011E00022514B1A6000F0AB
:1010C800B7FF054605E000F0B3FF401B022800F219
:1010D80021814A4B1B6813F0020FF4D1236813F0E7
:1010E800080F29D0A369ABB10122464B1A6000F062
:1010F8009FFF054605E000F09BFF401B022800F219
:101108000B813E4B5B6A13F0020FF4D00120FFF70E
:1011180007FF11E000223B4B1A6000F089FF0546EB
:1011280005E000F085FF401B022800F2F780334BF2
:101138005B6A13F0020FF4D1236813F0040F00F078
:1011480089802E4BDB6913F0805F0BD12B4BDA695A
:1011580042F08052DA61DB6903F080530193019B0E
:10116800012500E00025284B1B6813F4807F13D16C
:10117800254A136843F48073136000F059FF06464C
:1011880005E000F055FF801B642800F2C9801E4B63
:101198001B6813F4807FF4D0E368012B05D1174A4C
:1011A800136A43F00103136222E063B903F1804339
:1011B80003F504331A6A22F001021A621A6A22F04D
:1011C80004021A6214E0052B09D10C4B1A6A42F08A
:1011D80004021A621A6A42F001021A6208E0074B16
:1011E8001A6A22F001021A621A6A22F004021A62CA
:1011F800E368CBB100F01CFF06460FE00010024088
:1012080000004242800442420070004000F010FF9B
:10121800801B41F28833984200F28480494B1B6A54
:1012280013F0020FF2D00FE000F002FF064606E0CE
:1012380000F0FEFE801B41F28833984274D8414B7F
:101248001B6A13F0020FF3D125B13E4AD36923F08C
:101258008053D361E369002B68D03A4A526802F0A0
:101268000C02082A64D0022B37D10022364B1A60B0
:1012780000F0DEFE054604E000F0DAFE401B02281E
:1012880058D8304B1B6813F0007FF5D1236AB3F5AB
:10129800803F06D12B494B6823F40032A3681343DF
:1012A8004B602848436823F47411236A626A134325
:1012B8000B4343600122244B1A6000F0B9FE044638
:1012C80004E000F0B5FE001B022835D81D4B1B6852
:1012D80013F0007FF5D0002031E000221A4B1A608D
:1012E80000F0A6FE044604E000F0A2FE001B02285F
:1012F80024D8144B1B6813F0007FF5D100201EE0A2
:1013080001201CE003201AE0032018E0012016E069
:10131800032014E0032012E0032010E003200EE075
:1013280003200CE003200AE0032008E0002006E088
:10133800012004E0032002E0032000E0032002B0C3
:1013480070BD00BF001002406000424230B486B059
:10135800164D02AC28686968AA68EB680FC42B8A26
:10136800ADF80430124B5A6802F00C03082B19D15F
:10137800C2F3834306A90B4413F8103C12F4803FD0
:101388000CD00B4A5268C2F340420A4412F8140CBB
:10139800084AB2FBF0F003FB00F004E0064800FB4B
:1013A80003F000E0034806B030BC7047084300086B
:1013B8000010024000127A0000093D0070B55C4B35
:1013C8001B6803F007038B420BD2594A136823F0BA
:1013D80007030B431360136803F007038B4240F0C5
:1013E8009780036813F0020F06D0524C636823F00D
:1013F800F0028368134363600D460446036813F0E4
:10140800010F4DD04268012A05D14A4B1B6813F4DD
:10141800003F0DD17EE0022A05D1464B1B6813F030
:10142800007F05D178E0434B1B6813F0020F75D09D
:1014380040494B6823F0030313434B6000F0F8FD69
:1014480006466368012B0ED106E000F0F1FD801B13
:1014580041F28833984263D8364B5B6803F00C033B
:10146800042BF2D11CE0022B15D106E000F0E0FDC0
:10147800801B41F28833984254D82E4B5B6803F0A6
:101488000C03082BF2D10BE000F0D2FD801B41F2D7
:101498008833984248D8274B5B6813F00C0FF3D178
:1014A800234B1B6803F00703AB420AD9204A136891
:1014B80023F007032B431360136803F00703AB42C1
:1014C80034D1236813F0040F06D01A494B6823F46B
:1014D800E062E36813434B60236813F0080F07D0FA
:1014E800144A536823F46053216943EAC1035360E3
:1014F800FFF72CFF0F4B5B68C3F303130E4AD35C53
:10150800D8400E4B1860002000F062FD002070BD2E
:10151800012070BD012070BD012070BD012070BD8B
:10152800032070BD032070BD032070BD012070BD75
:1015380000200240001002401C4300080000002068
:10154800014B1868704700BF0000002008B5FFF77E
:10155800F7FF044B5B68C3F30223034AD35CD8400C
:1015680008BD00BF001002402C43000808B5FFF773
:10157800E7FF044B5B68C3F3C223034AD35CD8403C
:1015880008BD00BF001002402C43000830B4036AB5
:1015980023F001030362036A4468826922F073023C
:1015A8000D682A4323F002038D682B43104DA8428F
:1015B80003D005F50065A84205D123F00803CD68DE
:1015C8002B4323F004030A4DA84203D005F5006518
:1015D800A84205D124F440744D692C438D692C43ED
:1015E800446082614A684263036230BC704700BF4E
:1015F800002C014030B4036A23F480730362036A49
:101608004468C26922F073020D682A4323F4007308
:101618008D6843EA0523124DA84203D005F50065FD
:10162800A84206D123F40063CD6843EA052323F4D6
:1016380080630B4DA84203D005F50065A84207D189
:1016480024F440544D6944EA05148D6944EA0514AC
:101658004460C2614A68C263036230BC704700BF1D
:10166800002C014030B4036A23F480530362036AF8
:101678004468C26922F4E6420D6842EA052223F46E
:1016880000538D6843EA0533094DA84203D005F598
:101698000065A84204D124F480444D6944EA8514C5
:1016A8004460C2614A680264036230BC704700BF8C
:1016B800002C014010B4036A046A24F00104046297
:1016C800846924F0F00444EA021223F00A0319435F
:1016D800826101625DF8044B704700BF10B4036A71
:1016E80023F0100303628469036A24F4704444EA13
:1016F800023223F0A00343EA0111826101625DF81E
:10170800044B704710B4846824F47F4442EA0323EE
:1017180019430C4384605DF8044B704710B50C46C0
:101728000268936823F0700349680B4323F00703AA
:1017380021680B4393606368502B1FD002D8402B5D
:101748000BD010BD602B1FD0702B22D10068E16830
:10175800A2682369FFF7D6FF10BD0368196A1A6AE1
:1017680022F001021A620268936923F0F0032469E7
:1017780043EA041393610368196210BD0068A16805
:101788002269FFF797FF10BD0068A1682269FFF77B
:10179800A5FF10BD704700BF38B590F83C30012B4D
:1017A80018D00446012580F83C50022380F83D30CB
:1017B800FFF7B4FF2268D36823F04003D3602268A0
:1017C800D36823F48043D36084F83D50002084F824
:1017D8003C0038BD022038BD0368244A904212D02C
:1017E80002F5006290420ED0B0F1804F0BD0A2F506
:1017F8009832904207D002F58062904203D002F5F9
:101808008062904203D123F070034A681343174A59
:10181800904212D002F5006290420ED0B0F1804F93
:101828000BD0A2F59832904207D002F58062904220
:1018380003D002F58062904203D123F44073CA6852
:10184800134323F080034A69134303608B68C36220
:101858000B688362054B984203D003F500639842F6
:1018680001D10B690363012343617047002C0140D8
:10187800C0B110B5044690F83D3013F0FF0F04D105
:10188800002380F83C30FFF785FF022384F83D30C1
:10189800214651F8040BFFF79FFF012384F83D30E0
:1018A800002010BD0120704730B4036A23F01003F4
:1018B8000362036A4468826922F4E6420D6842EAD8
:1018C800052223F020038D6843EA0513114DA84231
:1018D80003D005F50065A84206D123F08003CD6842
:1018E80043EA051323F040030A4DA84203D005F547
:1018F8000065A84207D124F440644D6944EA850490
:101908008D6944EA8504446082614A68826303629F
:1019180030BC7047002C014038B590F83C30012BA2
:1019280066D00D460446012380F83C30022380F837
:101938003D300C2A55D8DFE802F0075454541A54A5
:1019480054542E54545441000068FFF71FFE226877
:10195800936943F0080393612268936923F00403B1
:101968009361226891692B690B43936139E00068A0
:10197800FFF79AFF2268936943F400639361226832
:10198800936923F48063936122689369296943EA20
:101998000123936125E00068FFF72CFE2268D369D4
:1019A80043F00803D3612268D36923F00403D361A9
:1019B8002268D1692B690B43D36112E00068FFF7F5
:1019C80051FE2268D36943F40063D3612268D36966
:1019D80023F48063D3612268D369296943EA012328
:1019E800D361012384F83D30002084F83C0038BDE1
:1019F800022038BD10B401238B40046A24EA030393
:101A08000362036A8A401A4302625DF8044B704716
:101A180010B5044600680122FFF7ECFF23680C4A62
:101A2800934205D002F50062934203D1012202E0FD
:101A3800012200E000221AB15A6C42F400425A64B2
:101A48002268136843F001031360002010BD00BF33
:101A5800002C014010B404238B40046A24EA0303D9
:101A68000362036A8A401A4302625DF8044B7047B6
:101A780010B5044600680422FFF7ECFF2268536C97
:101A880043F4004353642268136843F0010313606E
:101A9800002010BD90F83C30012B22D0012380F8A3
:101AA8003C30CB6823F440728B68134323F4806284
:101AB8004B68134323F400620B68134323F48052EA
:101AC8000B69134323F400524B6913438A6923F4C7
:101AD8004043134302685364002380F83C3018469F
:101AE80070470220704700BF90F83C30012B21D08E
:101AF80030B4012280F83C20022380F83D3004688D
:101B0800636823F070036360046865680B682B439F
:101B180063600468A36823F08003A3600468A56871
:101B28004B682B43A36080F83D20002380F83C30AD
:101B3800184601E00220704730BC704790F8243006
:101B4800012B27D0012380F8243003689A6812F00B
:101B5800010F10D1124A926812F0010F0BD1114AED
:101B6800934208D110B45A6822F470240A682243B8
:101B78005A60002309E0836A43F02003836201234B
:101B8800002280F8242018467047002280F824207C
:101B9800184601E0022070475DF8044B704700BF0B
:101BA800002801400024014000F00700064AD368DD
:101BB80023F4E0631B041B0C43EA002040F0BF60E1
:101BC80040F40030D060704700ED00E030B4164BB0
:101BD800DC68C4F30224C4F10705042D28BF0425DA
:101BE800231D062B01D9033C00E00024012303FA3E
:101BF80005F5013D2940A140A340013B1A400A4395
:101C0800002806DA00F00F001201D2B2074B1A546E
:101C180007E01201D2B200F1604000F5614080F89F
:101C2800002330BC704700BF00ED00E014ED00E079
:101C3800410900F01F0001238340024A42F8213085
:101C4800704700BF00E100E00138B0F1807F0AD2A0
:101C5800064B5860F021064A82F82310002098604D
:101C680007221A6070470120704700BF10E000E0AB
:101C780000ED00E0042805D1054A136843F0040389
:101C880013607047024A136823F004031360704717
:101C980010E000E0704700BF08B5FFF7FBFF08BD84
:101CA800F0B583B000273C46E2E00122A2400B6871
:101CB8001340934240F0DB804D68122D2DD00BD895
:101CC800022D27D003D85DB3012D1ED035E0032D9A
:101CD80030D0112D1BD030E0684EB54220D008D846
:101CE800A6F58016B5421BD006F58036B54224D13C
:101CF80016E0634EB54213D006F58036B5420FD0D4
:101D0800A6F58016B54218D10AE0CF6815E0CF686D
:101D1800043712E0CF6808370FE0CF680C370CE0C3
:101D28008D684DB1012D02D10261082705E042619D
:101D3800082702E0002700E00427FF2B01D884468B
:101D480001E000F1040CFF2B02D84FEA840E03E0F7
:101D5800A4F1080E4FEA8E0EDCF800600F2202FA9A
:101D68000EF226EA020507FA0EF22A43CCF8002002
:101D78004A6812F0805F7AD0424A956945F00105B9
:101D88009561926902F001020192019AA208961CDB
:101D98003D4D55F8266004F0030E4FEA8E0E0F25D0
:101DA80005FA0EF526EA0506384DA8421FD005F5B6
:101DB8008065A84219D005F58065A84213D005F5BD
:101DC8008065A8420DD005F58065A84207D005F5C5
:101DD8008065A84201D105250AE0062508E004250A
:101DE80006E0032504E0022502E0012500E00025C5
:101DF80005FA0EF535430232234E46F822504A685A
:101E080012F4803F04D0224D2A681A432A6004E065
:101E18001F4D2A6822EA03022A604A6812F4003F2A
:101E280004D01B4D6A681A436A6004E0184D6A685A
:101E380022EA03026A604A6812F4801F04D0144D33
:101E4800AA681A43AA6004E0114DAA6822EA0302AC
:101E5800AA604A6812F4001F04D00D4DEA681343C3
:101E6800EB6004E00A4DEA6822EA0303EB60013400
:101E78000F2C7FF61AAF03B0F0BD00BF0000211091
:101E8800000031100010024000000140000801402D
:101E98000004014083680B4201D0012070470020F4
:101EA800704700BF0AB101617047090401617047BA
:101EB800C3685940C160704770B582B00446036872
:101EC80013F0010F5CD03E4BDB6913F0805F0BD140
:101ED8003B4BDA6942F08052DA61DB6903F08053E8
:101EE8000193019B012600E00026364B1B6813F482
:101EF800807F12D1334A136843F48073136000F073
:101F080097F8054604E000F093F8401B64284FD882
:101F18002C4B1B6813F4807FF5D0294B1B6A13F4F4
:101F2800407321D0626802F440729A421CD0244A5D
:101F3800136A23F44070244901250D6000250D60C3
:101F4800106213F0010F0FD000F072F8054606E09A
:101F580000F06EF8401B41F2883398422AD8184B9B
:101F68001B6A13F0020FF3D015490B6A23F4407271
:101F7800636813430B621EB1CB6923F08053CB61B6
:101F8800236813F0020F06D00D494B6823F4404232
:101F9800A36813434B60236813F0100F0CD0084953
:101FA8004B6823F48002636913434B60002004E00C
:101FB800032002E0032000E0002002B070BD00BF53
:101FC800001002400070004040044242704700BFC9
:101FD80010B50446074B1B680748A0FB033080096F
:101FE800FFF732FE4FF0FF3021460022FFF7EEFDEB
:101FF800002010BD00000020D34D621008B5074A2C
:10200800136843F0100313600320FFF7CDFD002091
:10201800FFF7DEFFFFF7DAFF002008BD00200240CF
:10202800024A136801331360704700BFE0000020C4
:10203800014B1868704700BFE000002030B583B03E
:102048000190FFF7F5FF0546019CB4F1FF3F00D072
:102058000134FFF7EDFF401BA042FAD303B030BDB7
:10206800704700BF70B483B00023019390F8243008
:10207800012B00F08380012380F824304B68062B65
:102088000DD80668756B03EB8303053B1F229A4046
:1020980025EA02040A689A40224372631CE00C2B6A
:1020A8000DD80668356B03EB8303233B1F229A4048
:1020B80025EA02040A689A40224332630CE0066863
:1020C800F56A03EB8303413B1F229A4025EA020489
:1020D8000A689A402243F2620B68092B0DD90668F8
:1020E800F56803EB43031E3B07229A4025EA0204E6
:1020F8008A689A402243F2600BE00668356903EB70
:10210800430307229A4025EA02048A689A40224338
:1021180032610B68103B012B26D80368194A934299
:102128001CD19A6812F4000F20D19A6842F4000278
:102138009A600B68102B1BD1134B1B68134AA2FB28
:1021480003239B0C03EB83035B00019302E0019BD9
:10215800013B0193019B002BF9D10AE0836A43F00C
:1021680020038362012304E0002302E0002300E04F
:102178000023002280F82420184600E0022003B043
:1021880070BC7047002401400000002083DE1B4320
:1021980030B583B00023019303689A6812F0010FE9
:1021A8002FD19A6842F001029A60174B1B68174AB0
:1021B800A2FB03239B0C019302E0019B013B0193CB
:1021C800019B002BF9D10446FFF732FF054611E0C9
:1021D800FFF72EFF401B02280CD9A36A43F0100317
:1021E800A362E36A43F00103E362002384F8243026
:1021F800012007E023689B6813F0010FE8D0002056
:1022080000E0002003B030BD0000002083DE1B4347
:1022180090F82430012B70D010B50446012380F8C3
:102228002430FFF7B5FF0346002861D1A26A22F4E3
:10223800407222F0010242F48072A26222683049A0
:102248008A4205D1A1F58061496811F4702F0ED139
:10225800A16A21F48011A162516811F4806F1CD029
:10226800A16A21F4405141F48051A16215E0A16AAC
:1022780041F48011A16223498A4203D001F58061AB
:102288008A420AD11F49496811F4806F05D0A16AB2
:1022980021F4405141F48051A162A16A11F4805F98
:1022A80004D0E16A21F00601E16201E00021E16267
:1022B800002184F824106FF00201116022689168EF
:1022C80001F46021B1F5602F0DD10D498A4205D185
:1022D800A1F58061496811F4702F04D1916841F427
:1022E800A001916007E0916841F48011916002E0DB
:1022F800002284F82420184610BD0220704700BF31
:10230800002801400024014038B503689A6812F09B
:10231800010F1ED004469A6822F001029A60FFF766
:1023280087FE05460EE0FFF783FE401B022809D909
:10233800A36A43F01003A362E36A43F00103E36274
:10234800012038BD23689B6813F0010FEBD10020F2
:1023580038BD002038BD00BF002800F0888070B567
:102368000446836A23B9C36280F82430FFF778FEF5
:102378002046FFF7C9FFA36A13F0100F71D1002898
:102388006FD1A36A23F4885323F0020343F00203B6
:10239800A36262682168374B994206D1E369B3F5B5
:1023A800402F03D14FF4002300E0E3691343E568AD
:1023B80043EA4503A268B2F5807F04D0012A05D11B
:1023C8004FF4807203E04FF4807200E000226669E7
:1023D800012E0FD135B9A569013D42EA453242F4D3
:1023E800006207E0A56A45F02005A562E56A45F0A8
:1023F8000105E5624D6825F469452A434A6021686C
:102408008D681D4A2A401A438A60A268B2F5807F07
:1024180001D0012A03D12269013A110500E0002107
:102428002568EA6A22F470020A43EA62226891681F
:10243800124A0A40934208D10023E362A36A23F0B8
:10244800030343F00103A36270BDA36A23F01203E0
:1024580043F01003A362E36A43F00103E36201203F
:1024680070BDA36A43F01003A362012070BD012070
:10247800704700BF003C0140FDF7E1FFFE0E1FFF63
:102488002DE9F843814601680B6923F44052C3687B
:1024980013430B6181680369194343691943006851
:1024A800C26822F4B05323F00C030B43C360D9F87D
:1024B80000104B6923F44072D9F8183013434B616C
:1024C800D9F800505B4B9D4259D1FFF74FF800EB0C
:1024D800800000EB8000D9F80440A400B0FBF4F4BD
:1024E800554EA6FB043464092401FFF73FF800EBBE
:1024F800800000EB8000D9F804309B00B0FBF3F7B4
:10250800FFF734F800EB800000EB8000D9F80430C6
:102518009B00B0FBF3F3A6FB03235B094FF06408B1
:1025280008FB13731B013233A6FB03235B0903F07B
:10253800F0031C44FFF71AF800EB800000EB800062
:10254800D9F804309B00B0FBF3F7FFF70FF800EB66
:10255800800000EB8000D9F804309B00B0FBF3F357
:10256800A6FB03235B0908FB13731B013233A6FB8D
:102578000323C3F343131C44AC60BDE8F883FEF7A0
:10258800E5FF00EB800000EB8000D9F80440A400D0
:10259800B0FBF4F4284EA6FB043464092401FEF7CA
:1025A800D5FF00EB800000EB8000D9F804309B00D9
:1025B800B0FBF3F7FEF7CAFF00EB800000EB8000EA
:1025C800D9F804309B00B0FBF3F3A6FB03235B09A7
:1025D8004FF0640808FB13731B013233A6FB032377
:1025E8005B0903F0F0031C44FEF7B0FF00EB80002A
:1025F80000EB8000D9F804309B00B0FBF3F7FEF73E
:10260800A5FF00EB800000EB8000D9F804309B00A8
:10261800B0FBF3F3A6FB03235B0908FB13731B0151
:102628003233A6FB0323C3F343131C44AC60BDE859
:10263800F88300BF003801401F85EB51704700BF89
:1026480068B310B5044690F8393013F0FF0F04D181
:10265800002380F83830FFF7F1FF242384F839305D
:102668002268D36823F40053D3602046FFF708FF9D
:102678002268136923F4904313612268536923F095
:102688002A0353612268D36843F40053D3600020BF
:10269800E063202384F8393084F83A3010BD0120F3
:1026A800704700BF0F4B1A6842F001021A60596860
:1026B8000D4A0A405A601A6822F0847222F4803265
:1026C8001A601A6822F480221A605A6822F4FE02FC
:1026D8005A604FF41F029A604FF00062034B9A60F1
:1026E800704700BF001002400000FFF800ED00E056
:1026F80030B597B01F4BDA6942F48022DA61DA69A3
:1027080002F480220092009A5A6942F001025A614A
:102718005B6903F001030193019B174D06954FF484
:10272800E13307930024089409940A9408230B932F
:102738000C940D9406A8FFF783FF6B6943F08003A0
:102748006B614FF480630293012304930223039384
:1027580003230593094802A9FFF7A2FA084B1C6056
:10276800084A9A605C6090221A6070221C3B5A608A
:1027780017B030BD0010024000480040000C014076
:102788001C000240044800402DE9F04F89B07B4B03
:102798009A6942F004029A619A6902F0040201926D
:1027A800019A9A6942F008029A619A6902F008024D
:1027B8000292029A9A6942F010029A619B6903F0A8
:1027C80010030393039B002305930693022707979F
:1027D8004FF0200A0DEB0A0444F810AD6848214672
:1027E800FFF75EFA4023049365482146FFF758FA3D
:1027F8008025049562482146FFF752FA4FF480631A
:10280800049360482146FFF74BFA4FF400630493A2
:102818005C482146FFF744FA4FF48056049659481D
:102828002146FFF73DFA049657482146FFF738FA44
:10283800049755482146FFF733FA4FF00108CDF8C1
:1028480014804FF00409CDF810904D482146FFF749
:1028580027FA102604964C482146FFF721FACDF8AE
:1028680010A049482146FFF71BFA03230593CDF82A
:10287800108044482146FFF713FACDF810804248EB
:102888002146FFF70DFA4FF0080BCDF810B03D4880
:102898002146FFF705FA04973A482146FFF700FA60
:1028A800049638482146FFF7FBF9CDF810A03548C3
:1028B8002146FFF7F5F9CDF8109032482146FFF789
:1028C800EFF9CDF810B030482146FFF7E9F9CDF817
:1028D80010902D482146FFF7E3F90597402304930C
:1028E80028482146FFF7DCF9049526482146FFF7DA
:1028F800D7F94FF48079CDF8109022482146FFF798
:10290800CFF9049520482146FFF7CAF9CDF8108081
:102918001B482146FFF7C4F9049719482146FFF7D9
:10292800BFF9CDF8109018482146FFF7B9F94FF4D0
:102938000073049314482146FFF7B2F94FF48063FB
:10294800049311482146FFF7ABF94FF40053049361
:102958000B482146FFF7A4F94FF480430493084835
:102968002146FFF79DF94FF400430493044821469C
:10297800FFF796F909B0BDE8F08F00BF00100240DC
:10298800000C014000100140000801402DE9F04F03
:1029980099B0754B9A6942F400629A619A6902F497
:1029A80000620192019A9A6942F400529A619B6905
:1029B80003F400530293029B6C4EDFF8B891C6F8FB
:1029C8000090002474604FF02008C6F808804FF487
:1029D800FA6BC6F80CB034617461B4613046FEF726
:1029E80047FF102316931794304616A9FFF77CF873
:1029F80060230F931094119408271297139414943A
:102A08004FF40073159330460FA92246FEF784FF52
:102A180030460FA90422FEF77FFF30460FA93A4639
:102A2800FEF77AFF4FF4006308934FF4806309932D
:102A38000A94CDF82C800C940D940E9430460DEB2E
:102A48000801FFF727F84A4DDFF82CA1C5F800A0C8
:102A58006C60C5F80880C5F80CB02C616C61AC617D
:102A68002846FEF705FFCDF858808023179328469F
:102A780016A9FFF739F8049418A9052341F8543D1D
:102A88002846FEF789FE60230F931094119412973D
:102A9800139414944FF40073159328460FA92246F3
:102AA800FEF73AFF28460FA90422FEF735FF28460D
:102AB8000FA93A46FEF730FF4FF4006308934FF42E
:102AC800806309930A94CDF82C800C940D940E948D
:102AD80028460DEB0801FEF7DDFFDAF8443023F451
:102AE8000043CAF84430D9F8443023F40043C9F805
:102AF800443028462146FEF78BFF28460421FEF77E
:102B080087FF28463946FEF783FF28462146FEF709
:102B1800AFFF28460421FEF7ABFF28463946FEF7EB
:102B2800A7FF30462146FEF773FF30460421FEF723
:102B38006FFF30463946FEF76BFF30462146FEF7F9
:102B480097FF30460421FEF793FF30463946FEF7DB
:102B58008FFF2B6801221A633268136843F0010360
:102B6800136019B0BDE8F08F00100240AC010020DE
:102B78003C030020002C0140003401402DE9F043C3
:102B880087B0414EB36943F40073B361B36903F48A
:102B980000730093009B3D4C3D4B23604FF48073C2
:102BA800A3600025E56065614FF44023E36165603B
:102BB8004FF00508C4F810802046FFF7CDFB354AD2
:102BC800536843F48023536006A94FF4C02341F8A7
:102BD800043D2046FEF7B2FF012304930E22029221
:102BE8000393204602A9FFF73DFA029502270397AF
:102BF800204602A9FFF736FA04970B27029703230A
:102C08000393204602A9FFF72DFA4FF00C09CDF8DF
:102C1800089004230393204602A9FFF723FACDF86E
:102C28000890CDF80C80204602A9FFF71BFA23680C
:102C38009A6842F480729A609A6842F001029A6037
:102C4800736943F001037361736903F0010301932E
:102C5800019B114B1D60C3F80480104A9A60104A0A
:102C6800DA6040F6A2221A601A6842F001021A607D
:102C7800384629462A46FEF7A9FF3846FEF7D8FF08
:102C880007B0BDE8F08300BF0010024074020020C6
:102C98000024014000000140080002404C2401408B
:102CA800E8020020F0B585B0274B9A6942F48062AB
:102CB8009A619B6903F480630093009B234C244B27
:102CC80023604FF48073A3600023E36063614FF4D3
:102CD8006022E2616360052626612046FFF73CFB1F
:102CE800012303930F2201920293204601A9FFF7C3
:102CF800B9F90D23019302250295204601A9FFF792
:102D0800B1F903950A23019303270297204601A9E5
:102D1800FFF7A8F901950423029320460DEB030160
:102D2800FFF7A0F901970296204601A9FFF79AF943
:102D380023689A6842F480729A609A6842F00102A5
:102D48009A6005B0F0BD00BF0010024028010020C5
:102D58000028014030B597B002250C950123109347
:102D6800102311931395002414944FF460131593B2
:102D78000CA8FEF7EBF80F230793089509944FF476
:102D880080630A930B9407A82946FEF717FB019561
:102D98004FF44043039301A8FFF78EF8FEF7D0FBEA
:102DA800084BA3FB00308009FEF74EFF0420FEF716
:102DB80061FF4FF0FF3021462246FEF707FF17B0AC
:102DC80030BD00BFD34D62102DE9F04F83B0FFF73F
:102DD80015F9B54CA36943F00103A361A36903F096
:102DE80001030193019B0320FEF7DEFE6FF00B0049
:102DF80000210A46FEF7EAFE6FF00A0000210A46A3
:102E0800FEF7E4FE6FF0090000210A46FEF7DEFE39
:102E18006FF0040000210A46FEF7D8FE6FF00300A9
:102E280000210A46FEF7D2FE6FF0010000210A4693
:102E3800FEF7CCFE4FF0FF3000210A46FEF7C6FE33
:102E4800FFF788FF636923F001036361FFF79CFCC8
:102E5800FFF79CFDFFF792FEFFF724FFFFF748FC02
:102E6800924820210122FFF71DF89148FFF7D0F979
:102E78009048FFF7CDF9012405E08F4B1C706420C2
:102E8800FFF7DCF8013C002CF7DA4FF0000A8A4B18
:102E980083F800A0894804210122FFF703F80122E2
:102EA800874B1A70D34601E0C346A2460520FFF7B8
:102EB800C5F8844BDB899BB2A3F2FF7340F2D17251
:102EC800934213DC7F4BDB899BB2A3F2FF736FF451
:102ED800FA62934208DB7B4BDF89BFB2A7F2FF7728
:102EE80007EBD7777F1003E0774F01E04FF47A774D
:102EF800764B1F60734B5B8A9BB2A3F2FF7340F261
:102F0800D172934213DC6F4B5B8A9BB2A3F2FF73BF
:102F18006FF4FA62934208DB6A4B5E8AB6B2A6F295
:102F2800FF7606EBD676761003E0674E01E04FF4A5
:102F38007A76674B1E600022664B1A60DFF8AC9108
:102F4800D9F80000FDF7F0FA51A3D3E90023FDF703
:102F580051FB04460D463846FDF7E6FA4EA3D3E981
:102F68000023FDF747FB02460B4620462946FDF79E
:102F78008FF9FDF7D9FD8046C9F80000564F38682B
:102F8800FDF7D2FA42A3D3E90023FDF733FB044649
:102F98000D463046FDF7C8FA3FA3D3E90023FDF7F5
:102FA80029FB02460B4620462946FDF771F9FDF735
:102FB800BBFD3860FDF7B8FA06460F464046FDF7F8
:102FC800B3FA0022454BFDF715FB04460D46304683
:102FD800394622462B46FDF759F980468946002294
:102FE8003F4BFDF797FD80B9404649462CA3D3E9EE
:102FF8000023FDF771FD28B940464946FDF794FDC9
:10300800804604E0DFF8C08001E04FF47A7830466B
:10301800394622462B46FDF73BF904460D46002269
:103028002F4BFDF777FD78B9204629461CA3D3E935
:103038000023FDF751FD28B920462946FDF774FD08
:10304800044603E0204C01E04FF47A741D4DE989F1
:10305800002089B200F07AFC698A012089B200F068
:1030680075FC0220414600F071FC0320214600F067
:103078006DFCB8F52F7F3BDD144B1B68A3F52F7350
:10308800184A1360184A136037E000BFAFF3008096
:10309800CDCCCCCCCCCCEC3F9A9999999999B93FA5
:1030A8000000000000408FC00010024000080140EE
:1030B8007402002028010020C4000020000C0140F8
:1030C800BC000020E802002018FCFFFF9803002045
:1030D8008403002004000020900300200000E03F4B
:1030E80000408F40AC000020B4000020880300207E
:1030F8000023424A1360424A13600AF132039C4299
:1031080015DAAAF1320A544511DD0BF1320398455C
:103118000DDAABF1320BD84509DD3A4B1B68042BAD
:1031280005D8C8F10003384A1360384B1C6000F01A
:1031380013FC37480221FEF7ADFEE0B10022354B03
:103148001A7033480221FEF7A5FE0028F9D10024A1
:10315800314B1C70314B1C7005E02F4B1C706420E8
:10316800FEF76CFF0134002CF7DD294820210022EE
:10317800FEF798FEFEE72A4B1D6828462949FDF709
:10318800A7FE58B128462849FDF7C0FE30B10522F0
:10319800214B1A700822214B1A7085E628462249CD
:1031A800FDF796FE58B128462049FDF7AFFE30B12D
:1031B8000522194B1A700122184B1A7074E628461A
:1031C8001A49FDF785FE98B10024144B1C70114B69
:1031D8001C7005E0104B1C706420FEF72FFF0134B3
:1031E800072CF7DD0A4820210022FEF75BFEFEE7E8
:1031F8000023094A1370094A137055E6AC000020F1
:10320800B400002004000020C8000020C0000020F6
:1032180000080140BC000020C4000020A8000020D5
:103228001800002000001042000004420000F8418D
:103238000222854B5A60854B1B68B3F57A7F3ADAD0
:103248000133824A1360824A938899B2814803689D
:103258000B4403EBD3735B100360D38899B27E48A9
:1032680003680B4403EBD3735B100360138899B2B4
:103278007A4803680B4403EBD3735B1003605388ED
:1032880099B2774803680B4403EBD3735B10036070
:10329800538999B2734803680B4403EBD3735B10EB
:1032A800036013899AB270490B68134403EBD37314
:1032B8005B100B6070472DE9F0416C4B1C886C4B20
:1032C800A3FB04235B09642202FB13439BB223BBC9
:1032D800684D2868FDF73AF953A3D3E90023FDF7B1
:1032E80089F906460F465A4B988980B2FDF74AFD80
:1032F800FDF72CF94EA3D3E90023FDF77BF94EA384
:10330800D3E90023FDF776F902460B4630463946E5
:10331800FCF7BEFFFDF730FC28604D4B588980B2A2
:10332800504B1D68401BFDF7FFF845A3D3E9002368
:10333800FDF760F900220023FDF7CEFB80B1444B76
:10334800588980B2401BFDF7EFF83DA3D3E900236D
:10335800FDF750F90022484BFDF7BEFBB8B90FE066
:103368003B4B588980B2401BFDF7DEF834A3D3E904
:103378000023FDF73FF90022404BFDF7CBFB30B9A6
:103388003F4B1B68052B02D83E4B1B782BB93E4A96
:10339800536C23F40043536404E03B4A536C43F4F6
:1033A800004353642A4B188980B22F4B1D68401B79
:1033B800FDF7BAF822A3D3E90023FDF71BF9002291
:1033C8000023FDF789FB80B1214B188980B2401B8F
:1033D800FDF7AAF81AA3D3E90023FDF70BF9002299
:1033E800254BFDF779FBC0B90FE0194B188980B25E
:1033F800401BFDF799F812A3D3E90023FDF7FAF86B
:1034080000221E4BFDF786FB38B91D4B1B68052BA8
:1034180003D81C4B1B78002B3AD11C4A536C23F45D
:103428000043536439E000BF2B8716D9CEF7EF3F2E
:10343800F5E4E827181C9B3FFCA9F1D24D62503FE8
:103448007B14AE47E17A943F00000240A4000020BC
:10345800E80200200C0000200800002014000020D2
:10346800100000201C00002020000020CC000020BC
:103478001F85EB511800002000002EC000002E40D0
:1034880004000020BC00002000340140002C014052
:10349800914A536C43F40043536490498B6813F08A
:1034A800200F0CBF012200228B6813F0400F0CBFC5
:1034B80001230023896811F0800F0CBF0125002526
:1034C8008749886810F4806F0CBF012000208E683F
:1034D80016F4006F0CBF01270027896811F4805F7C
:1034E80003EB450302EB43037E4EF35C7E490B601E
:1034F8000B6803F102030B600D687C4B83FB05E24C
:10350800A2EBE57202EB42024FEA4202A5EB02028D
:103518000A600CBF022200223A4400EB4202B05C6F
:10352800734A1060106802301060106883FB005303
:10353800A3EBE07303EB43035B00C31A1360096852
:103548006C4883889BB26C4A12689A1AC3889BB2EB
:103558006A4800681B1A052918D8DFE801F0030734
:103568000A0D1013D31A664A136012E0644B1A60EE
:103578000FE0634B1A600CE0614A136009E0604A8F
:10358800136006E09B1A5E4A136002E000225C4B5F
:103598001A600134A4B25B4B1C805B4B1878A8B14D
:1035A8005A4BA3FB04231B0B594A1278013293FB95
:1035B800F2F102FB11334BB994FBF0F300FB134417
:1035C8004CB954481021FEF773FC04E0514810210F
:1035D8000022FEF767FC504BD3F800E0424B1B6813
:1035E800052B22D8DFE803F003080E12161C7446D8
:1035F800CEF1000E00251CE0CEF1000574464FF018
:10360800000E16E0CEF10005002412E0CEF1000411
:1036180000250EE0CEF1000475464FF0000E08E0DC
:103628007546CEF1000E002403E04FF0000E7446FC
:1036380075463A4B1E682E4B1B68052B1AD8DFE8D7
:1036480003F003070B0E111532467642002114E0F1
:1036580071423246002610E0714200220DE07242AB
:1036680000210AE072423146002606E031467642E1
:10367800002202E0002632463146274B1B68002B09
:1036880050DD274B1868184B1F680537174B83FB0D
:1036980007C3A3EBE77303EB43035B00FB1A052B9C
:1036A8006FD8DFE803F003070B0E111507464042F9
:1036B80000236BE043420746002067E043420027AF
:1036C80064E04742002361E04742034600205DE092
:1036D80003464042002759E0002C0140000C0140FD
:1036E8000010014034430008B0000020ABAAAA2A09
:1036F800B8000020E80200200C000020080000208C
:10370800D0000020CC000020C40000205917B7D1F9
:10371800A800002000080140C0000020C8000020C8
:10372800AC000020814B18684742814B1B6803F1AD
:10373800010C804B83FB0C83A3EBEC7303EB43037B
:103748005B00C3EB0C03052B04D8DFE803F01E076E
:103758000A0E131700200746034617E00346002009
:1037680014E003463846002710E03B460746184653
:1037780000230BE03B460746002007E03B460027B6
:1037880004E000200746034600E000231D443C44B3
:103798007044694B1B68002B33DD684BD3F800E09D
:1037A800674B1F680537634B83FB07C3A3EBE773BE
:1037B80003EB43035B00FB1A052B56D8DFE803F045
:1037C80003080E12161C7746CEF1000E002352E0B5
:1037D800CEF1000377464FF0000E4CE0CEF1000327
:1037E800002748E0CEF10007002344E0CEF10007AF
:1037F80073464FF0000E3EE07346CEF1000E0027F0
:1038080039E04E4BD3F800E0CEF100074C4B1B6873
:1038180003F1010C474B83FB0C83A3EBEC7303EB25
:1038280043035B00C3EB0C03052B04D8DFE803F06C
:1038380022080C10151A4FF0000E774673461AE04E
:1038480073464FF0000E16E07346BE46002712E09E
:103858003B4677469E4600230DE03B4677464FF0B1
:10386800000E08E03B46002705E04FF0000E7746C3
:10387800734600E0002319443A440EEB060305F5AD
:103888007A7540F2C676B54203DC0A2DB8BF0A2520
:1038980001E040F2C6752B4E756304F57A7440F268
:1038A800C675AC4203DC0A2CB8BF0A2401E040F21A
:1038B800C674244DAC6300F57A7040F2C674A04219
:1038C80003DC0A28B8BF0A2001E040F2C6701D4C8C
:1038D800E06301F57A7140F2C670814203DC0A297F
:1038E800B8BF0A2101E040F2C6711748416302F5EA
:1038F8007A7240F2C6718A4203DC0A2AB8BF0A22E9
:1039080001E040F2C67210498A6303F57A7340F207
:10391800C672934203DC0A2BB8BF0A2301E040F2C7
:10392800C673094AD363BDE8F08100BFAC0000202C
:10393800B0000020ABAAAA2AC8000020B4000020CA
:10394800B800002000340140002C0140014B23F84E
:10395800101070470004002030B583B0144C204686
:103968000021642200F08EF812490A884B88888862
:10397800C98800B2009009B2019120460E4912B2DE
:103988001BB200F087F80D4B5B6873B90B4C2368CA
:1039980023F001032360064D284600F09FF860607D
:1039A800E560236843F00103236003B030BD00BF26
:1039B8009C030020000400203C4300081C00024037
:1039C800704700BFFEE700BFFEE700BFFEE700BF8D
:1039D800FEE700BF704700BF704700BF704700BFD9
:1039E80008B5FEF71DFBFEF757F908BD002103E0F7
:1039F8000B4B5B58435004310A480B4B42189A4210
:103A0800F6D30A4A02E0002342F8043B084B9A42E4
:103A1800F9D3FEF747FE00F00FF8FFF7D5F9704726
:103A28008C43000800000020880000208800002047
:103A380014040020FEE700000E4B70B51E460E4C25
:103A48000025E41AA410A54204D056F8253098475A
:103A58000135F8E700F048FC084B094C1E46E41A0B
:103A6800A4100025A54204D056F825309847013502
:103A7800F8E770BD844300088443000884430008C5
:103A88008843000803460244934202D003F8011B0E
:103A9800FAE770470EB400B54FF402719CB0ADF868
:103AA80014106FF00041049107914FF6FF711DABA0
:103AB800ADF81610084953F8042B029006900868D0
:103AC80002A9019300F06CF8029B00221A701CB046
:103AD8005DF804EB03B0704784000020034613F838
:103AE800012B002AFBD1181A013870472DE9F0473D
:103AF8008E688246B3420C469046994640D38A89DE
:103B080012F4906F3AD02568096902236F1A656923
:103B180005EB450595FBF3F57B1C4B449D4238BFEF
:103B28001D4653050FD5294600F03AFB064698B1C5
:103B380021693A4600F0CAFAA38923F4906343F056
:103B48008003A38113E02A4600F080FB064670B983
:103B58005046216900F0E0FA0C23CAF80030A38926
:103B68004FF0FF3043F04003A381BDE8F0872661A2
:103B78003E4426604E466561ED1BA560B14500D206
:103B88004E4632462068414600F0ABFAA368002052
:103B98009B1BA36023681E442660BDE8F0870000D5
:103BA8002DE9F0439DB003938B8906461C060D460C
:103BB80090460CD50B6953B9402100F0F1FA286002
:103BC800286110B90C233360CCE040236B610023DB
:103BD800099320238DF8293030238DF82A30434665
:103BE8001C4613F8012B1AB9B4EB08090FD002E0F0
:103BF800252AF5D1F8E73046294642464B46FFF7D5
:103C080075FF013000F0A980099B4B440993237884
:103C1800002B00F0A28000234FF0FF32049307939B
:103C2800059206938DF853301A9304F1010844461F
:103C3800DFF8489121784846052200F039FA08F162
:103C48000108049B30B1C9EB0000012282401343F4
:103C58000493ECE7D80644BF20228DF853201907B7
:103C680044BF2B228DF8532022782A2A02D00799A4
:103C780023460EE0039A0134111D12680391002AAD
:103C8800BBBF524243F0020307920792B8BF0493A6
:103C98000AE01C4622780133303A092A03D80A2060
:103CA80000FB0121F5E7079123782E2B1AD16378C1
:103CB8002A2B0AD1039B02341A1D1B680392002B7E
:103CC800B8BF4FF0FF3305930CE0611C00220C468F
:103CD80023780131303B092B03D80A2000FB02323C
:103CE800F5E70592DFF8988021784046032200F036
:103CF800DFF938B1049AC8EB00004023834013432E
:103D08000493013421781A48062204F101088DF839
:103D1800281000F0CDF988B1164B33B9039B07334F
:103D280023F007030833039313E003AB00933046F3
:103D380004A92A46104BAFF3008007E003AB0093B9
:103D4800304604A92A460C4B00F092F8421C07465C
:103D580003D0099B3B44099341E7AB895B0601D437
:103D6800099801E04FF0FF301DB0BDE8F08300BFB7
:103D78005843000800000000F53A00084E430008C8
:103D8800544300082DE9F84391461F468A680B6999
:103D980006469342B8BF1346C9F8003091F843204D
:103DA8000C46DDF8208012B10133C9F800302368D1
:103DB800990642BFD9F800300233C9F800302568A7
:103DC80015F006051CD094F843302268003318BF5C
:103DD800012392061FD5E118302081F843005A1CB0
:103DE80094F845102244023382F8431013E0304619
:103DF800394604F119020123C047013007D00135C3
:103E0800E368D9F800209B1A9D42F0DBDBE74FF00E
:103E1800FF30BDE8F8833046394604F14302C04715
:103E28000130F4D02268D9F80050E36802F00602A5
:103E3800042A08BF5D1B2269A3680CBF25EAE57543
:103E480000259342C4BF9B1AED184FF00009A945FD
:103E58000ADA3046394604F11A020123C047013014
:103E6800D5D009F10109F2E70020BDE8F883000088
:103E78002DE9FF410C461746227E98466E2A0646D3
:103E88000A9B01F1430100F0B08012D8632A23D0C5
:103E98000AD8002A00F0BD80582A40F0CC8084F867
:103EA8004520DFF804E257E0642A1ED0692A1CD0B6
:103EB800C1E0732A00F0B18009D86F2A2ED0702A89
:103EC80040F0B980226842F0200222603FE0752A63
:103ED80024D0782A3BD0AEE01A6804F14205111DBF
:103EE8001960136884F84230A9E020681A6810F055
:103EF800800F02D0101D186008E010F0400F02F18A
:103F08000400186002D0B2F9003000E01368002BFA
:103F18003EDA2D225B4284F8432039E020681A6893
:103F280010F0800F02D0101D186007E010F0400F4D
:103F380002F10400186001D0138800E01368227EA3
:103F4800DFF864E16F2A0CBF08220A221CE07822FD
:103F5800DFF858E184F845202268186812F0800FCD
:103F680000F104051D6003D1550601D5038800E062
:103F78000368D00744BF42F0200222601BB92268C0
:103F880022F0200222601022002084F8430002E080
:103F9800DFF814E10A226568002DA8BF2068A56033
:103FA800A4BF20F00400206003B965B10D46B3FB3F
:103FB800F2F002FB10331EF8033005F8013D03460A
:103FC8000028F4D100E00D46082A0BD12368DA074F
:103FD80008D5236962689A42DEBF302305F8013CA0
:103FE80005F1FF35491B21612EE025681A6815F097
:103FF800800F606903D0151D1D60136808E015F077
:10400800400F02F104051D60136801D0188000E01C
:104018001860002323610D4616E01A68111D196007
:10402800156800212846626800F042F808B1401B74
:104038006060636804E004F1420584F842200123CB
:104048002361002384F84330CDF8008030462146B0
:1040580003AA3B46FFF796FE013002D14FF0FF302E
:104068001FE0304639462A462369C0470130F5D05B
:1040780023689B0705D4E068039B9842B8BF18469D
:104088000FE00025E368039A9B1A9D42F3DA304655
:10409800394604F119020123C0470130DED0013549
:1040A800F0E704B0BDE8F0815F4300087043000802
:1040B80010B5C9B202449042034605D01C780130BD
:1040C8008C42F8D1184610BD002010BD10B5431E13
:1040D8000A44914204D011F8014B03F8014FF8E764
:1040E80010BD814210B501EB020301D3421E0BE063
:1040F8009842FBD28118D21AD34204D013F8014D4A
:1041080001F8014DF8E710BD994204D011F8014BB0
:1041180002F8014FF8E710BD30B500293CD051F83E
:10412800042C0B1F1D49002AB8BF9B180A680C46AF
:1041380012B95A600B6030BD93420DD219685818F5
:10414800904201BF5A5852181A60426823605A6058
:1041580030BD994203D80A4651680029F9D114683C
:1041680015199D420AD11B682344D0188842136050
:1041780012D10868034413604B680CE002D90C2381
:10418800036030BD1C681819884201BF0868496877
:10419800001918605960536030BD00BFD800002076
:1041A80070B5CC1C24F0030408340C2C38BF0C2444
:1041B800002C064603DA0C233360002070BD8C42C5
:1041C800F9D3204A136810461946A1B10A68121B90
:1041D8000ED40B2A03D90A608B188C501FE08B422F
:1041E8000BBF5A684A6802605A6018BF0B4616E04F
:1041F8000B464968E9E7144D2B681BB9304600F0B7
:104208004BF828603046214600F046F8421C034629
:10421800D1D0C51C25F0030585420AD11C6003F1E5
:104228000B001A1D20F00700821A0AD0514299503B
:1042380070BD3046E91A00F02FF80130BBD02B468C
:10424800ECE770BDD8000020D4000020F8B5074680
:1042580015460E4621B91146BDE8F840FFF7A0BF44
:104268001AB9FFF759FF2846F8BD00F025F8A8420B
:104278000ED238462946FFF793FF044650B131461F
:104288002A46FFF723FF38463146FFF745FF01E08E
:104298003046F8BD2046F8BD38B5064C0023054623
:1042A8000846236000F012F8431C02D1236803B1CA
:1042B8002B6038BD1004002051F8040C0028BEBF44
:1042C800091851F8043CC01804387047044A0549D5
:1042D8001368002B08BF0B46184410601846704737
:1042E800DC00002018040020F8B500BFF8BC08BCAA
:1042F8009E467047F8B500BFF8BC08BC9E4670479C
:1043080002030405060708090A0B0C0D0E0F10100E
:104318000102000000000000000000000102030488
:10432800060708090000000001020304000002015A
:104338000405030025693B25693B25693B25690A76
:104348000D0000004300232D302B2000686C4C002A
:10435800656667454647003031323334353637387D
:1043680039414243444546003031323334353637DB
:0C43780038396162636465660000000073
:0443840055020008D6
:044388002D020008FA
:10438C0000A24A0464000000D0070000D00700001F
:10439C00D0070000D007000000002042D00700002A
:1043AC00D00700000000000000000000000000002A
:1043BC0000000000000000000000000000000000F1
:1043CC00000000004C43000800000000000000004A
:1043DC0000000000000000000000000000000000D1
:1043EC0000000000000000000000000000000000C1
:1043FC0000000000000000000000000000000000B1
:08440C00000000002400002064
:04000005080039F5C1
:00000001FF
